:020000040800F2
:1000000000800120B9180008ED140008F51400085C
:10001000FD140008051500080D150008000000007B
:10002000000000000000000000000000151500089E
:100030002315000800000000311500083F150008D6
:100040000919000809190008091900080919000808
:1000500009190008091900080919000809190008F8
:1000600009190008091900080919000809190008E8
:1000700009190008091900080919000809190008D8
:1000800009190008091900080919000809190008C8
:1000900009190008091900080919000809190008B8
:1000A00009190008091900080919000809190008A8
:1000B0000919000809190008091900080919000898
:1000C0000919000809190008091900080919000888
:1000D0000919000809190008091900080919000878
:1000E0004D15000809190008091900080919000828
:1000F0000919000809190008091900080919000858
:100100000919000809190008091900080919000847
:100110000919000809190008091900080919000837
:100120000919000809190008091900080919000827
:100130000919000809190008091900080919000817
:100140000919000809190008091900080919000807
:1001500009190008091900080919000809190008F7
:1001600009190008091900080919000809190008E7
:100170000919000809190008091900080000000001
:08018000091900080919000823
:1001900010B5054C237833B9044B13B10448AFF3C1
:1001A00000800123237010BD8000002000000000AB
:1001B000CC76000808B5034B1BB103490348AFF3E5
:1001C000008008BD0000000084000020CC760008FC
:1001D00001F0FF01102A2BDB10F0070F08D010F8F8
:1001E000013B013A8B422DD010F0070F42B3F6D1FC
:1001F000F0B441EA012141EA014122F007047FF015
:1002000000070023F0E80256083C85EA010586EA6B
:10021000010685FA47F5A3FA87F586FA47F6A5FAA7
:1002200087F68EB9EED1F0BC01F0FF0102F00702B3
:1002300032B110F8013B013A83EA010313B1F8D15E
:100240000020704701387047002D06BF354603383F
:10025000073815F0010F07D1013015F4807F02BF78
:10026000013015F4C03F0130F0BC0138704700BFC9
:1002700053B94AB9002908BF00281CBF4FF0FF310D
:100280004FF0FF3000F088B9ADF1080C6DE904CEF5
:1002900000F006F8DDF804E0DDE9022304B0704761
:1002A0002DE9F047089D8E4604468846002B4AD12A
:1002B0008A42174662D9B2FA82F64EB1C6F12003DD
:1002C00001FA06F820FA03F3B74043EA0808B440FD
:1002D0004FEA174E1FFA87FCB8FBFEF1230C0EFB0A
:1002E000118843EA084301FB0CF29A4209D9FB1832
:1002F00001F1FF3080F0EA809A4240F2E780023953
:100300003B449A1AA3B2B2FBFEF00EFB102243EA62
:10031000024300FB0CFC9C4509D9FB1800F1FF329D
:1003200080F0D6809C4540F2D3803B44023840EABE
:100330000140A3EB0C0300211DB1F3400022C5E9ED
:100340000032BDE8F0878B4205D90DB1C5E9000147
:1003500000210846F5E7B3FA83F1002946D1734539
:1003600002D3824200F20581841A6EEB030201205F
:100370009046002DE5D0C5E90048E2E7002A00F0EC
:100380009080B2FA82F6002E40F0A4808A1A030C04
:100390004FEA174E80B2BCB20121B2FBFEFC0EFB4D
:1003A0001C2243EA024304FB0CF29A4207D9FB18D1
:1003B0000CF1FF3802D29A4200F2E080C4469B1A48
:1003C000B3FBFEF20EFB123340EA034302FB04F4DC
:1003D0009C4207D9FB1802F1FF3002D29C4200F286
:1003E000CA8002461B1B42EA0C40A5E7C1F1200669
:1003F0008B4022FA06F71F430EFA01F420FA06F3A7
:100400002EFA06FE4FEA1749234300FA01F81FFAB5
:1004100087FCBEFBF9F01C0C09FB10EE44EA0E440D
:1004200000FB0CFEA64502FA01F209D93C1900F1C5
:10043000FF3A80F09C80A64540F2998002383C4407
:10044000A4EB0E041FFA83FEB4FBF9F309FB13447B
:100450004EEA044403FB0CFCA44508D93C1903F103
:10046000FF3E80F08280A4457FD9023B3C4443EAB2
:100470000040A4EB0C04A0FB02EC64457346E1468B
:1004800062D35FD05DB1B8EB030264EB090404FAF8
:1004900006F622FA01F31E43CC40C5E900640021B0
:1004A0004FE7B1FBF2FC010C41EA0E4180B240EA99
:1004B00001423B4638463C46B846BE462026B1FB84
:1004C000F7F1A2EB080241EA0C4166E7014618E7A2
:1004D00010462CE7C6F120022EFA02F3B740B140D5
:1004E00020FA02F24FEA174E0A43B3FBFEF8BCB201
:1004F0000EFB1833110C41EA034108FB04F9B0402C
:1005000089454FEA104380B23ED9791808F1FF3C83
:1005100001D289451FD8A1EB0901B1FBFEF909FB06
:1005200004F80EFB191192B242EA0142424529D267
:10053000BA1809F1FF31C4D24245C2D2A9F1020171
:100540003A44BEE7F0459DD2BEEB02036CEB070CCC
:100550000138E14696E7A7EB09094944A8F1020CE6
:10056000B1FBFEF909FB04F8DBE773467FE7504671
:1005700066E70846FDE63B44023A33E7ACF1020C7D
:100580003B441CE749469CE7A1EB0901C446B1FB8B
:10059000FEF909FB04F8C4E7704700BF80B58EB0D0
:1005A00004AF734A07F11C0392E803001860043398
:1005B0001980704A07F1140392E8030018600433AD
:1005C000198000F0FDF8002001F088FA0346DAB245
:1005D000694B1A700021694805F084FDBA1C7B1D27
:1005E0001146184605F0F3FB05F033FC642001F0DA
:1005F0003BFC7B7919467B881A46614806F0FEF978
:100600007B79302B02D95F4B01221A705E4B1B782D
:10061000002B09D107F10C0307F11C0292E803003B
:1006200018600433198008E007F10C0307F1140285
:1006300092E8030018600433198007F10C031A468E
:100640000621002005F02DFB03467B627B6A002B10
:1006500003D0796A4D4806F0D1F904F0CDFF034686
:100660007B627B6A002B02D0494806F037FA464B82
:100670001B78012B1ED1434B1B78012B0FD107F1A7
:100680000A02BB1D019307F10803009313460722DA
:100690000021012004F081FD03467B6228E0BB1DA0
:1006A00007F1080207F10A01012004F0C6FD034624
:1006B0007B621DE0334B1B78012B0FD107F10A023F
:1006C000BB1D019307F10803009313460722002185
:1006D000042004F062FD03467B6209E0BB1D07F1C4
:1006E000080207F10A01032004F0A7FD03467B621C
:1006F0007B6A002B02D0274806F0F0F90123039310
:10070000254B02930023019310230093072300221B
:100710000021012004F0C5FE03467B627B6A002BAA
:1007200002D11E4806F0DAF9174B1B78012B11D1C4
:100730001B4806F0D3F900F0F1F803467B627B6AB0
:10074000002B03D1174806F0C9F906E0164806F059
:10075000C5F902E0154806F0C1F90421012005F0B1
:1007600005FB03467B6200BF2837BD4680BD00BF46
:10077000D0770008D877000800000020C50D0008D9
:10078000E47600089C0000209E000020F876000817
:10079000187700082C77000840E201004077000835
:1007A000587700087877000894770008B077000839
:1007B00080B500AF00F012F805F00EFE00BF80BD5E
:1007C00080B500AF0121002001F034F9002001F0D4
:1007D0009DF8002001F0E0F900BF80BDB0B586B003
:1007E00000AF3D4B1B78DBB2002B0BD000F008F9BB
:1007F000394B00221A70002001F070F90346DAB27A
:10080000364B1A70364B1B78002B2ED1354B1B689C
:10081000002B07D0344B1B78DBB2002B02D100F049
:1008200059F90AE02F4B1B68002B06D02F4B1B7881
:10083000DBB2002B01D100F073F92A4B1B68002BAF
:1008400013D0294B1B78DBB2002B0ED0274B1B7823
:10085000DBB2002B09D0264B1B78DBB2002B04D176
:10086000002001F07BF800F0D7F9224B1B78DBB2B7
:10087000002B2CD0322001F0F7FA00BF002001F04D
:100880002DF90246154B1B78DBB2002B0CBF012360
:100890000023DBB29A42F1D0322001F0E5FA114B8D
:1008A0001B68002B10D0124B1B78DBB2002B0BD037
:1008B000114B3C1D1D460FCD0FC42B6823603B1D03
:1008C0001421184600F078F90A4B00221A7000BF74
:1008D0001837BD46B0BD00BF010000200000002059
:1008E0009E000020A0000020A9000020AA000020F7
:1008F000A60000209D000020E077000880B483B0AF
:1009000000AF0346FB71044B01221A7000BF0C3785
:10091000BD465DF8047B70479D00002090B595B002
:1009200006AF314B07F124040FCB84E80F002F4BA7
:1009300007F114040FCB84E80F002D4B3C1D0FCBA7
:1009400084E80F0007F124012A4B009307230122BA
:10095000022004F074FE034687F8373097F83730EA
:10096000002B36D1234B188807F11402224B059334
:100970000123049310230393002302930023019384
:10098000102300931423022104F0E2FE034687F8AB
:10099000373097F83730002B1DD1164B18883A1D89
:1009A000164B059301230493102303930123029311
:1009B000002301930C2300931423022104F0C8FEAA
:1009C000034687F8373097F83730002B05D10023DE
:1009D00005E000BF02E000BF00E000BF472318466B
:1009E0003C37BD4690BD00BFF4770008047800088E
:1009F00014780008B0000020B2000020B4000020ED
:100A000090B58FB008AF2E4B1B78002B32D12D48FC
:100A100006F064F82C4A07F1100392E8030018600E
:100A200004331980002000F083FF07F110034FF416
:100A3000FA6206924FF4FA6205923C220492002276
:100A40000392282202922822019200220092002280
:100A50004FF480414FF4804004F07AFD0346FB756B
:100A6000FB7D002B27D0194806F038F8642001F0F0
:100A7000FBF920E0164B3C460FCB07C42370002146
:100A8000002005F052FA002306930023059300236B
:100A90000493002303933B4602930D230193002309
:100AA000009300234FF480524FF40061002004F0C3
:100AB0000EFC0346FB7500BF1C37BD4690BD00BF52
:100AC0009E00002024780008647800084078000820
:100AD0006C78000890B587B002AF0E4B1B78DBB284
:100AE000002B12D10C4B3C460FCB84E80F000B4B74
:100AF0001B8898B23B46009302234FF6FF720121F8
:100B000004F081FF034B01221A7000BF1437BD4669
:100B100090BD00BFA700002004780008A4000020BA
:100B200090B587B002AF0E4B1B78DBB2002B12D111
:100B30000C4B3C460FCB84E80F000B4B1B8898B244
:100B40003B46009302234FF6FF72012104F05BFF46
:100B5000034B01221A7000BF1437BD4690BD00BF81
:100B6000A800002014780008A400002080B584B0FC
:100B700000AF78600B46FB70002000F005FF0023FB
:100B8000FB6009E0FB687A6813441B78184605F09F
:100B900047FFFB680133FB60FB78FA689A42F1DBA0
:100BA000044B1B689B68184605F052FE00BF1037C7
:100BB000BD4680BD3000002080B584B002AF7860B3
:100BC0000B46FB700F4B1B78012B0BD10E4B18887B
:100BD0000E4B1988FA787B6800931346002204F0C4
:100BE00082FE0AE00A4B1B8898B20A4B1B8801332D
:100BF00099B2FA787B6805F00FF800BF0837BD4658
:100C000080BD00BF9E000020B0000020B200002088
:100C1000A4000020AE00002080B582B000AF012308
:100C20003B8001F015F9786008E001F011F9024607
:100C30007B68D31A42F2107293420ED80B4B1B887A
:100C400098B20B4B1B88023399B23B46022204F048
:100C500068FF0346462BE8D000E000BF054B0122A9
:100C60001A7000BF0837BD4680BD00BFA400002039
:100C7000AC000020A600002080B582B000AF034683
:100C80003A60FB800B467B71FA880E4B1B88013360
:100C90009A4205D17B7919463868FFF767FF0CE067
:100CA000FA88094B1B8802339A4206D13B681B78AD
:100CB000012B02D1054B01221A7000BF0837BD4637
:100CC00080BD00BFB4000020B2000020A6000020BC
:100CD00080B584B000AF78600B467B80114B012259
:100CE0001A60114A7B881380104805F087FE05239F
:100CF000FB600AE0FB687A6813441B7819460C48CD
:100D000005F07CFEFB68013BFB60FB68002BF1DC1F
:100D10007B681B781946074805F070FE00BF103746
:100D2000BD4680BDA0000020A40000207C78000803
:100D3000947800089C78000880B500AF0C4B002226
:100D40001A600C4805F0CAFE0B4B01221A700B4BBF
:100D500000221A700A4B00221A700A4B00221A70E5
:100D6000094B00221A70094B00221A7000BF80BD87
:100D7000A0000020A478000801000020A6000020A8
:100D8000A7000020A8000020A9000020AA00002041
:100D900080B582B000AF03463A60FB800B467B71A2
:100DA000FA88074B1B8801339A4204D17B79194694
:100DB0003868FFF7DBFE00BF0837BD4680BD00BFC7
:100DC000AC00002080B58CB000AF78607B68FB621F
:100DD000FB6A0133BB62FB6A1B78042B40F0E280A4
:100DE000BB6A1B78FF2B21D0FF2B00F3E080052B83
:100DF00002D03E2B03D0DAE0FFF79EFFD7E0BB6ABC
:100E000002333B613B691B78012B40F0CD803B698D
:100E10000133FB60FB685A1DFB68B3F801309BB2DD
:100E200019461046FFF754FF00BFBDE0BB6A02330E
:100E30007B627B6A1B889BB2A3F60143112B00F2F5
:100E4000B58001A252F823F0910E0008AD0F000802
:100E5000AD0F0008AD0F0008AD0F0008AD0F000882
:100E6000AD0F0008AD0F0008AD0F0008AD0F000872
:100E7000AD0F0008AD0F0008AD0F0008AD0F000862
:100E8000D10E00085D0F0008AD0F0008F30E00083A
:100E9000484B1B78012B0DD17B6A02337B617B6948
:100EA0005B8898B27B6919797B6907331A46FFF72B
:100EB000E3FE76E07B6A0233BB61BB695B8898B274
:100EC000BB691979BB6905331A46FFF7D5FE68E09F
:100ED0007B6A0233FB61FB69B3F8033098B2FB69AC
:100EE0009B78023BD9B2FB6905331A46FFF750FFE6
:100EF00057E0314B1B78002B50D17B6A02333B62A9
:100F00002E4B1B78DBB2002B11D02D4B1B78DBB2A4
:100F1000002B0CD13B6AB3F803309AB2294B1A80EC
:100F2000284B1B881946284805F068FD36E0274BFA
:100F30001B78DBB2002B31D0254B1B78DBB2002BAA
:100F40002CD13B6AB3F803309AB2224B1A80214B62
:100F50001B881946204805F051FD1FE0164B1B78F1
:100F6000002B1DD1154B1B78DBB2002B08D0144B86
:100F70001B78DBB2002B03D1114B01221A700FE05A
:100F8000124B1B78DBB2002B0AD0114B1B78DBB263
:100F9000002B05D10E4B01221A7001E000BF05E0C5
:100FA00000BF03E000BF02E000BF00E000BF303739
:100FB000BD4680BD9C0000209E000020A7000020B0
:100FC000A9000020AC000020B4780008A800002090
:100FD000AA000020AE000020CC78000880B588B0C0
:100FE00000AF78601E4BDB6C1D4A43F00103D364F5
:100FF0001B4BDB6C03F00103BB60BB684FF48053F9
:10100000FB604FF488133B6100237B6107F10C0305
:101010001946144801F0BCF80423FB6001233B612E
:1010200000237B610023BB6107F10C0319460E48C6
:1010300001F0AEF80423FB6001233B6100237B61D8
:101040000023BB6107F10C031946064801F0A0F824
:1010500000F08AFA034618462037BD4680BD00BF1F
:1010600000100240000400480008004880B500AFAE
:101070004FF48051064801F035FA0421044801F08C
:1010800031FA0421034801F02DFA0023184680BDEF
:10109000000400480008004880B500AF0122042188
:1010A0000A4801F02BFB00220421094801F026FB2D
:1010B000052000F0D9FE01220421054801F01EFBA5
:1010C000052000F0D1FE0023184680BD0004004832
:1010D0000008004880B588B000AF78600B467B8080
:1010E00000237B77FF233B770B237B6100233B7639
:1010F00000220421214801F001FB07F10C0107F156
:1011000014030522184600F05FFA3B7B022B2AD11C
:101110003B7C1BB21B021AB2FB7B1BB213431BB2FC
:10112000FB83FB8B002B1ED0FA8B7B889A4201D964
:101130007B88FB8300237B7710E007F11B0107F11D
:101140001C030122184600F03FFA7B7F7A681344A3
:10115000FA7ED2B21A707B7F01337B777B7F9BB2A2
:10116000FA8B9A42E9D801220421044801F0C6FA18
:101170007B7F18462037BD4680BD00BF0004004875
:1011800080B588B000AF78600B467B800A233B6156
:1011900000233B7500F05CFEB8610023FB61002278
:1011A00004211C4801F0AAFA07F1080107F1100315
:1011B0000522184600F008FA3B7A022B0FD17B7A01
:1011C0001A467B88934206D87B881A46124978686B
:1011D00000F0FAF906E06FF00103FB6102E04FF066
:1011E000FF33FB61012204210A4801F087FA00F075
:1011F0002FFE0246BB69D31A0F2B03D96FF00203EF
:10120000FB6102E0FB69002BC7DBFB691846203756
:10121000BD4680BD00040048C000002080B500AF7E
:101220004FF48051054801F051FA0346012B0CBFE1
:1012300001230023DBB2184680BD00BF0004004834
:1012400080B588B000AF124B7B60124BBB60124B75
:101250007B61124B3B61124BFB60124BFB613B1DF0
:10126000184604F081FF1049104800F04CFF104A66
:1012700000210E4800F02DFF00220021282000F060
:10128000F2FE282000F00BFF00BF2037BD4680BDD6
:10129000DD0F00086D10000881110008D51000084E
:1012A00099100008091600080C000016B80000206C
:1012B000B512000880B500AF05E0002005F0B8F8D1
:1012C0000346002B05D1FFF7A9FF0346002BF4D1FD
:1012D00000E000BF80BD80B500AF00F049FD00F028
:1012E00007F800F057F8FFF759F9FFF761FAFCE744
:1012F00080B596B000AF07F11403442200211846D0
:1013000005F0CCFC3B4600221A605A609A60DA6015
:101310001A614FF4007001F031FA0346002B01D03E
:1013200000F0BAF802237B614FF480733B62102314
:101330007B620223FB6302233B6401237B640A2359
:10134000BB640723FB6402233B6502237B6507F133
:101350001403184601F068FA0346002B01D000F090
:101360009BF80F233B6003237B600023BB600023BB
:10137000FB6000233B613B460421184601F030FE30
:101380000346002B01D000F087F800BF5837BD4658
:1013900080BD000080B58AB000AF07F114030022C1
:1013A0001A605A609A60DA601A61384BDB6C374A0F
:1013B00043F00403D364354BDB6C03F004033B615F
:1013C0003B69324BDB6C314A43F08003D3642F4BD3
:1013D000DB6C03F08003FB60FB682C4BDB6C2B4A5F
:1013E00043F00103D364294BDB6C03F00103BB60C2
:1013F000BB68264BDB6C254A43F00203D364234BC6
:10140000DB6C03F002037B607B6800220421204830
:1014100001F074F9002204211E4801F06FF9042341
:101420007B610123BB610023FB6100233B6207F169
:1014300014031946164800F0ABFE04237B61012318
:10144000BB610023FB6100233B6207F114031946D3
:10145000104800F09DFE4FF480537B614FF48813D9
:10146000BB610023FB6107F114031946094800F032
:101470008FFE00220021282000F0F5FD282000F03A
:101480000EFE00BF2837BD4680BD00BF00100240E1
:10149000000800480004004880B400AF72B600BFE6
:1014A00000BFFDE780B483B000AF0F4B1B6E0E4A48
:1014B00043F0010313660C4B1B6E03F001037B60CA
:1014C0007B68094B9B6D084A43F080539365064B3C
:1014D0009B6D03F080533B603B6800BF0C37BD46FB
:1014E0005DF8047B704700BF0010024080B400AF7D
:1014F00000BFFDE780B400AF00BFFDE780B400AFE0
:1015000000BFFDE780B400AF00BFFDE780B400AFCF
:1015100000BFFDE780B400AF00BFBD465DF8047BAF
:10152000704780B400AF00BFBD465DF8047B7047D4
:1015300080B400AF00BFBD465DF8047B704780B546
:1015400000AF00F071FC00BF80BD000080B500AFAF
:10155000034800F0EDFD034800F0EAFD00BF80BD48
:10156000B80000201000002080B582B000AF00233A
:101570007B60124B124A1A60124B1B685A1C1149AD
:101580000A60002B14D10D4802F0D6FE0346002B52
:101590000ED10A4800F082F87B68002B08D107487A
:1015A00000F03AF80346002B02D06FF007037B608F
:1015B0007B6818460837BD4680BD00BFC0010020CB
:1015C000003800402402002080B588B002AFF860E7
:1015D000B9601346FB8000237B61FB884FF4805287
:1015E0000092BA68F968074802F087FC0346002BAE
:1015F00002D06FF005037B617B6918461837BD4642
:1016000080BD00BFC001002080B500AF00F020FC0D
:101610000346184680BD000080B584B000AF7860F6
:101620000023FB737B681C4A1A607B684FF482724C
:101630005A607B6800229A607B684FF4E062DA604F
:101640007B6800221A617B6800225A617B684FF434
:1016500000729A617B681822DA617B6800221A6244
:101660007B6800225A627B6800229A627B680722AC
:10167000DA627B6800221A637B6808225A63786802
:1016800002F08EFB0346002B01D00123FB73FB7B92
:1016900018461037BD4680BD0038004080B58AB07E
:1016A00000AF7860274B9B6D264A43F480439365D7
:1016B000244B9B6D03F480433B613B69214BDB6C06
:1016C000204A43F00203D3641E4BDB6C03F0020399
:1016D000FB60FB684FF400537B610223BB61002376
:1016E000FB6103233B6205237B6207F11403194668
:1016F000154800F04DFD4FF480437B610223BB6130
:101700000023FB6103233B6205237B6207F1140383
:1017100019460D4800F03CFD4FF400437B61022365
:10172000BB610023FB6103233B6205237B6207F15E
:1017300014031946044800F02BFD00BF2837BD46AE
:1017400080BD00BF001002400004004880B586B094
:1017500000AFF860B9607A6000237B610AE0AFF304
:1017600000800146BB685A1CBA60CAB21A707B6915
:1017700001337B617A697B689A42F0DB7B681846AB
:101780001837BD4680BD80B586B000AFF860B9603F
:101790007A6000237B6109E0BB685A1CBA601B7841
:1017A000184600F06BFA7B6901337B617A697B68CC
:1017B0009A42F1DB7B6818461837BD4680BD80B47D
:1017C00083B000AF78604FF0FF3318460C37BD464A
:1017D0005DF8047B704780B483B000AF78603960F7
:1017E0003B684FF400525A60002318460C37BD4640
:1017F0005DF8047B704780B483B000AF786001234C
:1018000018460C37BD465DF8047B704780B485B040
:1018100000AFF860B9607A60002318461437BD46FF
:101820005DF8047B7047000080B586B000AF78603B
:10183000144A154BD31A7B617B693B61134B1B68C0
:10184000002B02D1114B124A1A60104B1A687B68A8
:1018500013443A699A4207D205F06EFA03460C2205
:101860001A604FF0FF3309E0084B1B68FB60074B21
:101870001A687B681344054A1360FB6818461837DA
:10188000BD4680BD00800120000400002802002029
:10189000F806002080B400AF064BD3F88830054A24
:1018A00043F47003C2F8883000BFBD465DF8047B86
:1018B000704700BF00ED00E0DFF834D0FFF7EAFF2B
:1018C0000C480D490D4A002302E0D458C45004339B
:1018D000C4188C42F9D30A4A0A4C002301E0136071
:1018E0000432A242FBD305F02DFAFFF7F4FCFEE729
:1018F0000080012000000020800000208479000882
:1019000080000020F4060020FEE7000080B582B0D1
:1019100000AF0346FB71FB79044A52F82330984725
:10192000002318460837BD4680BD00BF2C7900084B
:1019300080B582B000AF0346FB71FB79064A52F8CE
:1019400023304FF480710122184600F0D7FE0023A7
:1019500018460837BD4680BD0800002080B582B01B
:1019600000AF0346FB71FB79064A52F823304FF46F
:1019700080710022184600F0C1FE00231846083787
:10198000BD4680BD0800002080B582B000AF034690
:10199000FB71FB79064A52F823304FF480721146EE
:1019A000184600F0C3FE002318460837BD4680BD28
:1019B0000800002080B588B000AF1C4BDB6C1B4AD0
:1019C00043F00403D364194BDB6C03F00403BB60E6
:1019D000BB6807F10C0300221A605A609A60DA6053
:1019E0001A61124BDB6C114A43F00403D3640F4BB2
:1019F000DB6C03F004037B607B6800224FF4807192
:101A00000B4800F07BFE4FF48073FB6001233B61C9
:101A100000237B610023BB6107F10C0319460448D6
:101A200000F0B6FB00BF2037BD4680BD001002406D
:101A30000008004880B584B000AF03460A46FB7139
:101A40001346BB710023FB60FB791F4A52F8233019
:101A50009847BB79012B32D1FB79DB001B4A1A4432
:101A6000FB791B4951F823301946104600F04BFB17
:101A70000346002B03D06FF00303FB601FE0FB79EC
:101A8000DB00124A9818FB79124A52F823301A46A2
:101A9000002100F01EFB0346002B03D06FF0030370
:101AA000FB600CE02820FB790B4A52F8233000221F
:101AB000194600F0D8FA2823184600F0F0FAFB681F
:101AC00018461037BD4680BD307900081000002050
:101AD00034790008387900083C79000880B582B074
:101AE00000AF0346FB71FB79094A52F823304FF4EB
:101AF00000521146184600F0E9FD0346002B0CBFCA
:101B000001230023DBB218460837BD4680BD00BF65
:101B10000C00002080B500AF0020FEF7EFFE00BFF4
:101B200080BD000080B588B000AF194BDB6C184A4F
:101B300043F00403D364164BDB6C03F00403BB6077
:101B4000BB6807F10C0300221A605A609A60DA60E1
:101B50001A610F4BDB6C0E4A43F00403D3640C4B49
:101B6000DB6C03F004037B607B684FF40053FB6085
:101B70004FF404133B6100237B6107F10C0319460A
:101B8000044800F005FB00BF2037BD4680BD00BF04
:101B9000001002400008004880B584B000AF034642
:101BA000FB710023FB60FB79012B03D96FF001036C
:101BB000FB6025E0FB79FA79144951F823101448A9
:101BC00013461B011344DB0003441960FA791346E2
:101BD0001B011344DB000E4A1344184600F06AF858
:101BE000FA7913461B011344DB00094A13441846D3
:101BF00000F010F80346002B02D06FF00303FB60E7
:101C0000FB6818461037BD4680BD00BF1800002095
:101C10002C02002080B584B000AF78600023FB73F5
:101C20007B68154A1A607B684FF4E1325A607B6822
:101C300000229A607B680022DA607B6800221A61C9
:101C40007B680C225A617B6800229A617B680022C3
:101C5000DA617B6800221A627B6800225A62786827
:101C600002F0DCFC0346002B01D00123FB73FB7B5D
:101C700018461037BD4680BD0044004080B582B094
:101C800000AF7860094B1B781A4613461B011344BA
:101C9000DB00074A9818391D4FF47A73012202F0CD
:101CA00015FD7B6818460837BD4680BDB40200208C
:101CB0002C02002080B5ACB000AF786007F11403AF
:101CC00088220021184604F0E9FF02237B610023EB
:101CD0003B6507F11403184601F0A6FB234B9B6DEF
:101CE000224A43F400339365204B9B6D03F4003389
:101CF0003B613B691D4BDB6C1C4A43F00103D36421
:101D00001A4BDB6C03F00103FB60FB680423C7F88C
:101D10009C300223C7F8A0300023C7F8A430032367
:101D2000C7F8A8300723C7F8AC3007F19C03194661
:101D30004FF0904000F02CFA0823C7F89C300223A3
:101D4000C7F8A0300023C7F8A4300323C7F8A83091
:101D50000723C7F8AC3007F19C0319464FF09040B9
:101D600000F016FA00BFB037BD4680BD001002403B
:101D700080B582B000AF0023FB710C4B1B680B4A8F
:101D800043F480731360032000F062F9002000F038
:101D90000FF80346002B02D00123FB7101E0FFF78F
:101DA00081FBFB7918460837BD4680BD0020024004
:101DB00080B584B000AF78600023FB73174B1B78AD
:101DC000002B23D0164B1A68144B1B7819464FF47E
:101DD0007A73B3FBF1F3B2FBF3F3184600F06DF93D
:101DE0000346002B0FD17B680F2B09D8002279689E
:101DF0004FF0FF3000F037F90A4A7B68136007E0C4
:101E00000123FB7304E00123FB7301E00123FB7357
:101E1000FB7B18461037BD4680BD00BF2000002068
:101E2000040000201C00002080B400AF064B1B788B
:101E30001A46064B1B681344044A136000BFBD4694
:101E40005DF8047B704700BF20000020B80200202E
:101E500080B400AF034B1B681846BD465DF8047B99
:101E6000704700BFB802002080B584B000AF786032
:101E7000FFF7EEFFB8607B68FB60FB68B3F1FF3FE4
:101E800005D00A4B1B781A46FB681344FB6000BF61
:101E9000FFF7DEFF0246BB68D31AFA689A42F7D80A
:101EA00000BF00BF1037BD4680BD00BF200000202E
:101EB00080B485B000AF78607B6803F00703FB60F7
:101EC0000C4BDB68BB60BA684FF6FF031340BB6086
:101ED000FB681A02BB68134343F0BF6343F400334B
:101EE000BB60044ABB68D36000BF1437BD465DF8D1
:101EF000047B704700ED00E080B400AF044BDB686A
:101F00001B0A03F007031846BD465DF8047B7047C3
:101F100000ED00E080B483B000AF0346FB7197F999
:101F20000730002B0BDBFB7903F01F02074997F901
:101F300007305B09012000FA02F241F8232000BFBC
:101F40000C37BD465DF8047B704700BF00E100E040
:101F500080B483B000AF03463960FB7197F9073056
:101F6000002B0ADB3B68DAB20C4997F90730120103
:101F7000D2B20B4483F800230AE03B68DAB2084986
:101F8000FB7903F00F03043B1201D2B20B441A7623
:101F900000BF0C37BD465DF8047B704700E100E0F0
:101FA00000ED00E080B489B000AFF860B9607A60FD
:101FB000FB6803F00703FB61FB69C3F10703042B14
:101FC00028BF0423BB61FB690433062B02D9FB69DC
:101FD000033B00E000237B614FF0FF32BB6902FA54
:101FE00003F3DA43BB681A407B699A404FF0FF3134
:101FF0007B6901FA03F3D9437B680B40134318460E
:102000002437BD465DF8047B7047000080B582B080
:1020100000AF78607B68013BB3F1807F01D301237F
:102020000FE00A4A7B68013B53600F214FF0FF30FD
:10203000FFF78EFF054B00229A60044B07221A60BF
:10204000002318460837BD4680BD00BF10E000E001
:1020500080B582B000AF78607868FFF729FF00BFD5
:102060000837BD4680BD80B586B000AF0346B96075
:102070007A60FB7300237B61FFF73EFF78617A682B
:10208000B9687869FFF78EFF024697F90F3011465D
:102090001846FFF75DFF00BF1837BD4680BD80B50D
:1020A00082B000AF0346FB7197F907301846FFF77F
:1020B00031FF00BF0837BD4680BD80B582B000AF9C
:1020C00078607868FFF7A2FF034618460837BD46D8
:1020D00080BD80B487B000AFF8600B467A60FB72B9
:1020E0000023FB75FB7A002B03D1FB687A685A60EA
:1020F00002E00123FB7500BFFB7D18461C37BD467F
:102100005DF8047B704780B483B000AF78603960BD
:102110007B68002B01D1012303E07B683A681A60D9
:10212000002318460C37BD465DF8047B704700005D
:1021300080B586B000AF78607B681B681B0C03F02D
:1021400001037B617B681B6803F01F03012202FA15
:1021500003F33B617B695A010C4B1344FB60FB6842
:102160001B683A691340BB60BB68002B09D0FB6851
:102170003A691A607B685B68002B02D07B685B68F9
:10218000984700BF1837BD4680BD00BF140401400A
:1021900080B487B000AF7860396000237B617FE155
:1021A0003B681A6801217B6901FA03F31340FB6065
:1021B000FB68002B00F071813B685B6803F0030350
:1021C000012B05D03B685B6803F00303022B30D181
:1021D0007B689B683B617B695B00032202FA03F327
:1021E000DB433A6913403B613B68DA687B695B001B
:1021F00002FA03F33A6913433B617B683A699A60D8
:102200007B685B683B6101227B6902FA03F3DB4375
:102210003A6913403B613B685B681B0903F00102AC
:102220007B6902FA03F33A6913433B617B683A69BD
:102230005A603B685B6803F00303032B18D17B688B
:10224000DB6A3B6101227B6902FA03F3DB433A69F3
:1022500013403B613B685B68DB0803F001027B696C
:1022600002FA03F33A6913433B617B683A69DA6225
:102270003B685B6803F00303032B17D07B68DB68C4
:102280003B617B695B00032202FA03F3DB433A699B
:1022900013403B613B689A687B695B0002FA03F379
:1022A0003A6913433B617B683A69DA603B685B6873
:1022B00003F00303022B23D17B69DA087B68083221
:1022C00053F822303B617B6903F007039B000F2228
:1022D00002FA03F3DB433A6913403B613B681A6936
:1022E0007B6903F007039B0002FA03F33A69134387
:1022F0003B617B69DA087B680832396943F8221050
:102300007B681B683B617B695B00032202FA03F375
:10231000DB433A6913403B613B685B6803F00302AF
:102320007B695B0002FA03F33A6913433B617B6804
:102330003A691A603B685B6803F44033002B00F095
:10234000AC805F4B1B6E5E4A43F0010313665C4B2F
:102350001B6E03F00103BB60BB685A4A7B699B0894
:10236000023352F823303B617B6903F003039B0087
:102370000F2202FA03F3DB433A6913403B617B68A7
:10238000B3F1904F25D07B684F4A93421FD07B68B2
:102390004E4A934219D07B684D4A934213D07B68D2
:1023A0004C4A93420DD07B684B4A934207D07B68DE
:1023B0004A4A934201D106230CE007230AE0052391
:1023C00008E0042306E0032304E0022302E00123E3
:1023D00000E000237A6902F00302920093403A6918
:1023E00013433B6137497B699B0802333A6941F8E3
:1023F00023203B4B9B683B61FB68DB433A691340FE
:102400003B613B685B6803F48013002B03D03A699F
:10241000FB6813433B61324A3B699360304BDB6896
:102420003B61FB68DB433A6913403B613B685B6897
:1024300003F40013002B03D03A69FB6813433B619C
:10244000274A3B69D360264B5B683B61FB68DB43F3
:102450003A6913403B613B685B6803F40033002B2F
:1024600003D03A69FB6813433B611D4A3B695360E3
:102470001B4B1B683B61FB68DB433A6913403B61C4
:102480003B685B6803F48033002B03D03A69FB6838
:1024900013433B61124A3B6913607B6901337B61E3
:1024A0003B681A687B6922FA03F3002B7FF478AE4D
:1024B00000BF00BF1C37BD465DF8047B704700BFFE
:1024C00000100240000001400004004800080048DD
:1024D000000C004800100048001400480018004894
:1024E0000004014080B487B000AF786039600023F9
:1024F0007B61CDE001227B6902FA03F33A68134065
:102500003B613B69002B00F0C080684A7B699B08F7
:10251000023352F82330FB607B6903F003039B0016
:102520000F2202FA03F3FA681340FB607B68B3F1F1
:10253000904F25D07B685E4A93421FD07B685D4AEE
:10254000934219D07B685C4A934213D07B685B4A04
:1025500093420DD07B685A4A934207D07B68594A10
:10256000934201D106230CE007230AE0052308E08B
:10257000042306E0032304E0022302E0012300E039
:1025800000237A6902F0030292009340FA689A42AB
:1025900032D14D4B1A683B69DB434B4913400B600A
:1025A000494B5A683B69DB43474913404B60464BF4
:1025B000DA683B69DB4344491340CB60424B9A687D
:1025C0003B69DB43404913408B607B6903F00303A5
:1025D0009B000F2202FA03F3FB60344A7B699B08DD
:1025E000023352F82310FB68DA4330487B699B08BA
:1025F0000A40023340F823207B681A687B695B003D
:10260000032101FA03F31A437B681A607B69DA0835
:102610007B68083253F822107B6903F007039B00A4
:102620000F2202FA03F3DB437A69D20819407B6870
:10263000083243F822107B689A687B695B000321AB
:1026400001FA03F3DB431A407B689A607B685A689F
:1026500001217B6901FA03F3DB431A407B685A606E
:102660007B68DA687B695B00032101FA03F3DB43D3
:102670001A407B68DA607B68DA6A01217B6901FABB
:1026800003F3DB431A407B68DA627B6901337B61C9
:102690003A687B6922FA03F3002B7FF42BAF00BF6B
:1026A00000BF1C37BD465DF8047B70470000014049
:1026B0000004004800080048000C004800100048D2
:1026C00000140048001800480004014080B485B0A0
:1026D00000AF78600B467B807B681A697B8813406B
:1026E000002B02D00123FB7301E00023FB73FB7B73
:1026F00018461437BD465DF8047B704780B483B03C
:1027000000AF78600B467B8013467B707B78002B94
:1027100003D07A887B689A6102E07A887B689A6243
:1027200000BF0C37BD465DF8047B704780B485B0B0
:1027300000AF78600B467B807B685B69FB607A88C2
:10274000FB6813401A04FB68D9437B880B401A438B
:102750007B689A6100BF1437BD465DF8047B704703
:1027600080B400AF044B1B6803F4C0631846BD4639
:102770005DF8047B704700BF0070004080B485B0F6
:1027800000AF78607B68B3F5007F30D1234B1B68C6
:1027900003F4C063B3F5007F38D0204B1B6823F4EB
:1027A000C0631E4A43F4007313601D4B1B68322242
:1027B00002FB03F31B4AA2FB03239B0C0133FB60C8
:1027C00002E0FB68013BFB60144B5B6903F4806330
:1027D000B3F5806F02D1FB68002BF2D10F4B5B6920
:1027E00003F48063B3F5806F10D103230FE00B4B2C
:1027F0001B6803F4C063B3F5806F07D0074B1B68F9
:1028000023F4C063054A43F4806313600023184631
:102810001437BD465DF8047B704700BF0070004070
:102820000400002083DE1B4380B588B000AF7860D1
:102830007B68002B01D10123CAE3974B9B6803F00F
:102840000C03BB61944BDB6803F003037B617B6883
:102850001B6803F01003002B00F0E480BB69002B21
:1028600007D0BB690C2B40F08B807B69012B40F0BB
:102870008780894B1B6803F00203002B05D07B681F
:102880009B69002B01D10123A2E37B681A6A824B6A
:102890001B6803F00803002B04D07F4B1B6803F078
:1028A000F00305E07C4BD3F894301B0903F0F003F0
:1028B000934223D27B681B6A184600F055FD0346FD
:1028C000002B01D0012383E3734B1B68724A43F052
:1028D00008031360704B1B6823F0F0027B681B6ACF
:1028E0006D4913430B606C4B5B6823F47F427B683C
:1028F000DB691B02684913434B6025E0664B1B688C
:10290000654A43F008031360634B1B6823F0F00231
:102910007B681B6A604913430B605F4B5B6823F461
:102920007F427B68DB691B025B4913434B60BB69D9
:10293000002B09D17B681B6A184600F015FD034681
:10294000002B01D0012343E300F04AFC0246524B26
:102950009B681B0903F00F035049CB5C03F01F0376
:1029600022FA03F34E4A13604E4B1B681846FFF7DA
:102970001FFA0346FB73FB7B002B52D0FB7B27E344
:102980007B689B69002B32D0434B1B68424A43F063
:1029900001031360FFF75CFA386108E0FFF758FAAB
:1029A00002463B69D31A022B01D9032310E33A4BA9
:1029B0001B6803F00203002BF0D0374B1B68364A2C
:1029C00043F008031360344B1B6823F0F0027B686C
:1029D0001B6A314913430B602F4B5B6823F47F4222
:1029E0007B68DB691B022C4913434B601AE02A4BBE
:1029F0001B68294A23F001031360FFF729FA3861A5
:102A000008E0FFF725FA02463B69D31A022B01D9E9
:102A10000323DDE2204B1B6803F00203002BF0D1FF
:102A200000E000BF7B681B6803F00103002B74D03B
:102A3000BB69082B05D0BB690C2B0ED17B69032B1E
:102A40000BD1154B1B6803F40033002B64D07B685B
:102A50005B68002B60D10123BAE27B685B68B3F549
:102A6000803F06D10C4B1B680B4A43F48033136044
:102A700026E07B685B68B3F5A02F15D1064B1B6879
:102A8000054A43F480231360034B1B68024A43F456
:102A90008033136014E000BF00100240E4780008A7
:102AA000040000201C000020A04B1B689F4A23F458
:102AB000803313609D4B1B689C4A23F48023136072
:102AC0007B685B68002B13D0FFF7C2F9386108E020
:102AD000FFF7BEF902463B69D31A642B01D90323E1
:102AE00076E2924B1B6803F40033002BF0D014E025
:102AF000FFF7AEF9386108E0FFF7AAF902463B6933
:102B0000D31A642B01D9032362E2884B1B6803F4B8
:102B10000033002BF0D100E000BF7B681B6803F09E
:102B20000203002B60D0BB69042B05D0BB690C2BC2
:102B300019D17B69022B16D17C4B1B6803F480638F
:102B4000002B05D07B68DB68002B01D101233FE21D
:102B5000764B5B6823F0F8527B681B691B06734950
:102B600013434B6040E07B68DB68002B23D06F4B46
:102B70001B686E4A43F480731360FFF769F938618C
:102B800008E0FFF765F902463B69D31A022B01D929
:102B900003231DE2654B1B6803F48063002BF0D018
:102BA000624B5B6823F0F8527B681B691B065F4928
:102BB00013434B6018E05D4B1B685C4A23F4807341
:102BC0001360FFF745F9386108E0FFF741F9024665
:102BD0003B69D31A022B01D90323F9E1534B1B683C
:102BE00003F48063002BF0D17B681B6803F00803BB
:102BF000002B3CD07B685B69002B1CD04B4BD3F87F
:102C000094304A4A43F00103C2F89430FFF720F9A8
:102C1000386108E0FFF71CF902463B69D31A022B22
:102C200001D90323D4E1414BD3F8943003F00203DC
:102C3000002BEFD01BE03D4BD3F894303B4A23F000
:102C40000103C2F89430FFF703F9386108E0FFF799
:102C5000FFF802463B69D31A022B01D90323B7E1DF
:102C6000324BD3F8943003F00203002BEFD17B6892
:102C70001B6803F00403002B00F0A6800023FB7701
:102C80002A4B9B6D03F08053002B0DD1274B9B6D7E
:102C9000264A43F080539365244B9B6D03F0805389
:102CA000BB60BB680123FB77214B1B6803F4807377
:102CB000002B18D11E4B1B681D4A43F48073136010
:102CC000FFF7C6F8386108E0FFF7C2F802463B6933
:102CD000D31A022B01D903237AE1154B1B6803F4A5
:102CE0008073002BF0D07B689B68012B08D10F4BC1
:102CF000D3F890300D4A43F00103C2F8903029E038
:102D00007B689B68052B15D1084BD3F89030074A98
:102D100043F00403C2F89030044BD3F89030034AD8
:102D200043F00103C2F8903014E000BF00100240ED
:102D3000007000409C4BD3F890309B4A23F0010375
:102D4000C2F89030984BD3F89030974A23F00403A0
:102D5000C2F890307B689B68002B16D0FFF778F89C
:102D600038610AE0FFF774F802463B69D31A41F272
:102D70008832934201D903232AE18B4BD3F8903058
:102D800003F00203002BEDD015E0FFF761F8386186
:102D90000AE0FFF75DF802463B69D31A41F2883238
:102DA000934201D9032313E17F4BD3F8903003F012
:102DB0000203002BEDD1FB7F012B05D17A4B9B6DDC
:102DC000794A23F0805393657B689B6A002B00F05F
:102DD000FE807B689B6A022B40F0D080724BDB68E0
:102DE0007B617B6903F003027B68DB6A9A4230D126
:102DF0007B6903F070027B681B6B013B1B019A42ED
:102E000027D17B6903F4FE427B685B6B1B029A420D
:102E10001FD17B6903F400337A68926B072A14BFD1
:102E200001220022D2B2934213D17B6903F4C00283
:102E30007B68DB6B5B08013B5B059A4209D17B69D0
:102E400003F0C0627B681B6C5B08013B5B069A4227
:102E50006ED0BB690C2B69D0534B1B6803F08063A9
:102E6000002B05D1504B1B6803F08053002B01D081
:102E70000123ADE04C4B1B684B4A23F08073136079
:102E8000FEF7E6FF386108E0FEF7E2FF02463B6925
:102E9000D31A022B01D903239AE0434B1B6803F09A
:102EA0000073002BF0D1404BDA68404B13407A6836
:102EB000D16A7A68126B013A120111437A68526B37
:102EC000120211437A68D26B5208013A520511433B
:102ED0007A68126C5208013A520611437A68926B72
:102EE000120952040A4330491343CB602E4B1B682E
:102EF0002D4A43F0807313602B4BDB682A4A43F062
:102F00008073D360FEF7A4FF386108E0FEF7A0FFEE
:102F100002463B69D31A022B01D9032358E0224B06
:102F20001B6803F00073002BF0D050E001234FE04A
:102F30001D4B1B6803F00073002B48D11A4B1B6814
:102F4000194A43F080731360174BDB68164A43F04D
:102F50008073D360FEF77CFF386108E0FEF778FFEE
:102F600002463B69D31A022B01D9032330E00E4BF2
:102F70001B6803F00073002BF0D028E0BB690C2B1A
:102F800023D0094B1B68084A23F080731360FEF7B7
:102F90005FFF38610CE0FEF75BFF02463B69D31A26
:102FA000022B05D9032313E0001002408C809DF909
:102FB000094B1B6803F00073002BECD1064BDA6859
:102FC0000549064B1340CB6001E0012300E00023DC
:102FD00018462037BD4680BD00100240FCFFEEFEC3
:102FE00080B584B000AF786039607B68002B01D178
:102FF0000123E7E0754B1B6803F007033A689A4228
:1030000010D9724B1B6823F0070270493B681343C9
:103010000B606E4B1B6803F007033A689A4201D0BD
:103020000123CFE07B681B6803F00203002B10D064
:103030007B689A68664B9B6803F0F0039A4208D954
:10304000634B9B6823F0F0027B689B6860491343E5
:103050008B607B681B6803F00103002B4CD07B68FE
:103060005B68032B07D15A4B1B6803F00073002BDE
:1030700021D10123A6E07B685B68022B07D1544B6A
:103080001B6803F40033002B15D101239AE07B6801
:103090005B68002B07D14E4B1B6803F00203002B2B
:1030A00009D101238EE04A4B1B6803F48063002B97
:1030B00001D1012386E0464B9B6823F003027B6825
:1030C0005B68434913438B60FEF7C2FEF8600AE079
:1030D000FEF7BEFE0246FB68D31A41F288329342E5
:1030E00001D903236EE03A4B9B6803F00C027B6826
:1030F0005B689B009A42EBD17B681B6803F002037C
:10310000002B10D07B689A68314B9B6803F0F0036A
:103110009A4208D22E4B9B6823F0F0027B689B6892
:103120002B4913438B60294B1B6803F007033A6854
:103130009A4210D2254B1B6823F0070223493B68B3
:1031400013430B60214B1B6803F007033A689A4254
:1031500001D0012336E07B681B6803F00403002BD9
:1031600008D01B4B9B6823F4E0627B68DB6818493E
:1031700013438B607B681B6803F00803002B09D0A6
:10318000134B9B6823F460527B681B69DB0010497A
:1031900013438B6000F024F802460D4B9B681B091B
:1031A00003F00F030B49CB5C03F01F0322FA03F378
:1031B000094A1360094B1B681846FEF7F9FD0346E0
:1031C000FB72FB7A18461037BD4680BD00200240D6
:1031D00000100240E4780008040000201C000020D9
:1031E00080B489B000AF0023FB610023BB613E4B7C
:1031F0009B6803F00C033B613B4BDB6803F003036C
:10320000FB603B69002B05D03B690C2B21D1FB688F
:10321000012B1ED1344B1B6803F00803002B07D190
:10322000314BD3F894301B0A03F00F03FB6105E028
:103230002D4B1B681B0903F00F03FB612B4AFB6935
:1032400052F82330FB613B69002B0DD1FB69BB6158
:103250000AE03B69042B02D1254BBB6104E03B69CA
:10326000082B01D1234BBB613B690C2B34D11E4B86
:10327000DB6803F00303BB60BB68022B03D0BB68B1
:10328000032B03D005E01A4B7B6105E0194B7B61F2
:1032900002E0FB697B6100BF134BDB681B0903F095
:1032A000070301337B60104BDB681B0A03F07F03CD
:1032B0007A6903FB02F27B68B2FBF3F37B610A4B92
:1032C000DB685B0E03F0030301335B003B607A694C
:1032D0003B68B2FBF3F3BB61BB6918462437BD46BC
:1032E0005DF8047B704700BF00100240FC780008C6
:1032F0000024F40000127A0080B400AF034B1B6876
:103300001846BD465DF8047B704700BF04000020EE
:1033100080B500AFFFF7F0FF0246064B9B681B0A23
:1033200003F007030449CB5C03F01F0322FA03F305
:10333000184680BD00100240F478000880B500AF48
:10334000FFF7DAFF0246064B9B68DB0A03F0070330
:103350000449CB5C03F01F0322FA03F3184680BD37
:1033600000100240F478000880B586B000AF7860A5
:1033700000233B612A4B9B6D03F08053002B03D04D
:10338000FFF7EEF9786114E0254B9B6D244A43F07A
:1033900080539365224B9B6D03F08053FB60FB6869
:1033A000FFF7DEF978611E4B9B6D1D4A23F08053B9
:1033B00093657B69B3F5007F0BD17B68802B19D9AE
:1033C0007B68A02B02D902233B6113E001233B6100
:1033D00010E07B68802B02D903233B610AE07B6805
:1033E000802B02D102233B6104E07B68702B01D16A
:1033F00001233B610B4B1B6823F0070209493B6922
:1034000013430B60074B1B6803F007033A699A42AA
:1034100001D0012300E0002318461837BD4680BDC7
:10342000001002400020024080B586B000AF7860F6
:103430000023FB740023BB747B681B6803F40063E8
:10344000002B41D07B685B6EB3F5400F2AD0B3F5FB
:10345000400F24D8B3F5000F08D0B3F5000F1ED8E5
:10346000002B0AD0B3F5800F10D018E0864BDB6834
:10347000854A43F48033D36015E07B680433002130
:10348000184600F0BBFA0346FB740CE07B6820335F
:103490000021184600F0A6FB0346FB7403E001235D
:1034A000FB7400E000BFFB7C002B0BD1764BD3F804
:1034B000883023F440027B685B6E73491343C1F884
:1034C000883001E0FB7CBB747B681B6803F480538D
:1034D000002B41D07B689B6EB3F1407F2AD0B3F1C3
:1034E000407F24D8B3F1007F08D0B3F1007F1ED80D
:1034F000002B0AD0B3F1807F10D018E0624BDB685C
:10350000614A43F48033D36015E07B6804330021C3
:10351000184600F073FA0346FB740CE07B68203316
:103520000021184600F05EFB0346FB7403E0012314
:10353000FB7400E000BFFB7C002B0BD1524BD3F897
:10354000883023F040727B689B6E4F491343C1F86B
:10355000883001E0FB7CBB747B681B6803F400339C
:10356000002B00F0A08000237B74474B9B6D03F081
:103570008053002B01D1012300E00023002B0DD04C
:10358000414B9B6D404A43F0805393653E4B9B6D8E
:1035900003F08053BB60BB6801237B743B4B1B680B
:1035A0003A4A43F480731360FEF752FCF86009E076
:1035B000FEF74EFC0246FB68D31A022B02D9032306
:1035C000FB7405E0314B1B6803F48073002BEFD0D4
:1035D000FB7C002B5CD12C4BD3F8903003F4407370
:1035E0007B617B69002B1FD07B68D3F884307A69BC
:1035F0009A4219D0244BD3F8903023F440737B6166
:10360000214BD3F89030204A43F48033C2F89030F5
:103610001D4BD3F890301C4A23F48033C2F890300D
:10362000194A7B69C2F890307B6903F00103002BD3
:1036300016D0FEF70DFCF8600BE0FEF709FC024621
:10364000FB68D31A41F28832934202D90323FB74F8
:1036500006E00D4BD3F8903003F00203002BECD0C2
:10366000FB7C002B0CD1084BD3F8903023F4407234
:103670007B68D3F8843004491343C1F8903009E0E3
:10368000FB7CBB7406E000BF0010024000700040ED
:10369000FB7CBB747B7C012B05D19E4B9B6D9D4AB3
:1036A00023F0805393657B681B6803F00103002BB4
:1036B0000AD0984BD3F8883023F003027B689B6BC9
:1036C00094491343C1F888307B681B6803F00203F8
:1036D000002B0AD08F4BD3F8883023F00C027B6884
:1036E000DB6B8C491343C1F888307B681B6803F09F
:1036F0000403002B0AD0874BD3F8883023F0300224
:103700007B681B6C83491343C1F888307B681B6856
:1037100003F00803002B0AD07E4BD3F8883023F047
:10372000C0027B685B6C7B491343C1F888307B68BF
:103730001B6803F01003002B0AD0764BD3F88830B7
:1037400023F440727B689B6C72491343C1F8883044
:103750007B681B6803F02003002B0AD06D4BD3F865
:10376000883023F440627B68DB6C6A491343C1F8FC
:1037700088307B681B6803F40073002B0AD0654B0C
:10378000D3F8883023F440227B68DB6D6149134312
:10379000C1F888307B681B6803F48063002B0AD073
:1037A0005C4BD3F8883023F440127B681B6E594978
:1037B0001343C1F888307B681B6803F04003002B7B
:1037C0000AD0544BD3F8883023F440527B681B6DE9
:1037D00050491343C1F888307B681B6803F08003AD
:1037E000002B0AD04B4BD3F8883023F440427B683F
:1037F0005B6D48491343C1F888307B681B6803F44C
:103800008073002B0AD0434BD3F8883023F4403226
:103810007B689B6D3F491343C1F888307B681B6808
:1038200003F40053002B28D03A4BD3F8883023F010
:1038300040627B68DB6E37491343C1F888307B6890
:10384000DB6EB3F1006F06D1324BDB68314A43F4D3
:103850008013D36011E07B68DB6EB3F1806F0CD115
:103860007B6804330121184600F0C8F80346FB7456
:10387000FB7C002B01D0FB7CBB747B681B6803F4D2
:103880000023002B28D0234BD3F8883023F040624C
:103890007B681B6F1F491343C1F888307B681B6F1F
:1038A000B3F1006F06D11B4BDB681A4A43F4801357
:1038B000D36011E07B681B6FB3F1806F0CD17B6824
:1038C00004330121184600F099F80346FB74FB7C91
:1038D000002B01D0FB7CBB747B681B6803F4802346
:1038E000002B2BD00B4BD3F8883023F040627B6841
:1038F0005B6F08491343C1F888307B685B6FB3F195
:10390000006F09D1034BDB68024A43F48013D36094
:1039100014E000BF001002407B685B6FB3F1806F62
:103920000CD17B6804330121184600F067F8034688
:10393000FB74FB7C002B01D0FB7CBB747B681B6899
:1039400003F48043002B2FD02B4BD3F8883023F087
:1039500040527B689B6F28491343C1F888307B68CD
:103960009B6FB3F1805F0DD17B6804330221184651
:1039700000F044F80346FB74FB7C002B14D0FB7C66
:10398000BB7411E07B689B6FB3F1005F0CD17B6867
:1039900020330221184600F025F90346FB74FB7C16
:1039A000002B01D0FB7CBB747B681B6803F40043D5
:1039B000002B0AD0104BD3F8883023F080427B686C
:1039C000DB6F0D491343C1F888307B681B6803F433
:1039D0008033002B0BD0084BD3F8883023F0004203
:1039E0007B68D3F8803004491343C1F88830BB7C2E
:1039F00018461837BD4680BD0010024080B584B01F
:103A000000AF786039600023FB73754BDB6803F00F
:103A10000303002B18D0724BDB6803F003027B68B2
:103A20001B689A420DD17B681B68002B09D06C4B38
:103A3000DB681B0903F007035A1C7B685B689A422A
:103A400047D00123FB7344E07B681B68032B18D02D
:103A5000032B25D8012B02D0022B09D020E0604B8C
:103A60001B6803F00203002B1DD10123FB731AE036
:103A70005B4B1B6803F48063002B16D10123FB739F
:103A800013E0574B1B6803F40033002B0FD1544B4A
:103A90001B6803F48023002B09D10123FB7306E08C
:103AA0000123FB7304E000BF02E000BF00E000BFA1
:103AB000FB7B002B0DD14A4BDB6823F073027B6844
:103AC00019687B685B68013B1B010B434449134346
:103AD000CB60FB7B002B7DD1414B1B68404A23F020
:103AE00080631360FEF7B4F9B86009E0FEF7B0F93F
:103AF0000246BB68D31A022B02D90323FB7305E0ED
:103B0000374B1B6803F00063002BEFD1FB7B002BCE
:103B100060D13B68002B11D1314B1B6923F41F335B
:103B200023F440737A68926811027A68D2681209A5
:103B300052040A432A4913430B6127E03B68012BD7
:103B400012D1274B1B6923F4C00323F4FE437A6888
:103B5000926811027A6812695208013A52050A43C2
:103B60001F4913430B6111E01D4B1B6923F0C06318
:103B700023F4FE437A68926811027A685269520807
:103B8000013A52060A43164913430B61144B1B6852
:103B9000134A43F080631360FEF75AF9B86009E0F6
:103BA000FEF756F90246BB68D31A022B02D903234B
:103BB000FB7305E00A4B1B6803F00063002BEFD09A
:103BC000FB7B002B06D1064B1A697B689B69044975
:103BD00013430B61FB7B18461037BD4680BD00BF09
:103BE0000010024080B584B000AF786039600023D7
:103BF000FB736A4BDB6803F00303002B18D0674BA1
:103C0000DB6803F003027B681B689A420DD17B6876
:103C10001B68002B09D0614BDB681B0903F007030D
:103C20005A1C7B685B689A4247D00123FB7344E0CF
:103C30007B681B68032B18D0032B25D8012B02D0DF
:103C4000022B09D020E0554B1B6803F00203002B28
:103C50001DD10123FB731AE0504B1B6803F48063F2
:103C6000002B16D10123FB7313E04C4B1B6803F4AC
:103C70000033002B0FD1494B1B6803F48023002B2A
:103C800009D10123FB7306E00123FB7304E000BFAD
:103C900002E000BF00E000BFFB7B002B0DD13F4BDB
:103CA000DB6823F073027B6819687B685B68013B03
:103CB0001B010B4339491343CB60FB7B002B67D1BE
:103CC000364B1B68354A23F080531360FEF7C0F86B
:103CD000B86009E0FEF7BCF80246BB68D31A022BB5
:103CE00002D90323FB7305E02C4B1B6803F0005340
:103CF000002BEFD1FB7B002B4AD13B68002B11D16D
:103D0000264B5B6923F41F3323F440737A6892686F
:103D100011027A68D268120952040A431F491343F8
:103D20004B6111E01D4B5B6923F0C06323F4FE433C
:103D30007A68926811027A6812695208013A52064A
:103D40000A43164913434B61144B1B68134A43F053
:103D500080531360FEF77CF8B86009E0FEF778F84E
:103D60000246BB68D31A022B02D90323FB7305E07A
:103D70000A4B1B6803F00053002BEFD0FB7B002B9A
:103D800006D1064B5A697B685B69044913434B6152
:103D9000FB7B18461037BD4680BD00BF00100240B7
:103DA00080B584B000AF78607B68002B01D101231F
:103DB00095E07B685B6A002B08D17B685B68B3F594
:103DC000827F09D07B680022DA6105E07B680022EF
:103DD0001A617B6800225A617B6800229A627B68C4
:103DE00093F85D30DBB2002B06D17B68002283F8AC
:103DF0005C20786800F077F87B68022283F85D2009
:103E00007B681B681A687B681B6822F040021A6096
:103E10007B68DB68B3F5E06F02D90023FB6002E04A
:103E20004FF48053FB607B68DB68B3F5706F07D09D
:103E30007B68DB68B3F5E06F02D07B6800229A6292
:103E40007B685B6803F482727B689B6803F40443BD
:103E50001A437B681B6903F002031A437B685B69A2
:103E600003F001031A437B689B6903F400731A4350
:103E70007B68DB6903F038031A437B681B6A03F035
:103E8000800342EA03017B689B6A03F400527B686B
:103E90001B680A431A607B689B691B0C03F00402D1
:103EA0007B685B6A03F010031A437B685B6B03F06B
:103EB00008031A437B68DB6803F4706342EA03017A
:103EC000FB6803F480527B681B680A435A607B6876
:103ED00000221A667B68012283F85D2000231846C1
:103EE0001037BD4680BD80B483B000AF786000BF9E
:103EF0000C37BD465DF8047B704780B58AB000AFD3
:103F0000F860B9607A607B8001237B62FDF7A0FFD7
:103F10003862FB6893F85D30FB77FB685B68BB61D8
:103F20007B88FB827B88BB82FB7F012B0CD0BB692B
:103F3000B3F5827F06D1FB689B68002B02D1FB7F23
:103F4000042B01D00223F3E1BB68002B05D07B6872
:103F5000002B02D07B88002B01D10123E8E1FB6814
:103F600093F85C30012B01D10223E1E1FB680122CF
:103F700083F85C20FB6893F85D30DBB2042B03D040
:103F8000FB68052283F85D20FB6800221A66FB6847
:103F90007A681A64FB687A88A3F84620FB687A88F6
:103FA000A3F84420FB68BA689A63FB687A88DA87CA
:103FB000FB687A889A87FB680022DA64FB68002233
:103FC0001A65FB68DB68B3F5E06F02D8BB8A012B8A
:103FD00008D9FB681B685A68FB681B6822F480528A
:103FE0005A6007E0FB681B685A68FB681B6842F46C
:103FF00080525A60FB681B681B6803F04003402B2B
:1040000007D0FB681B681A68FB681B6842F0400217
:104010001A60FB68DB68B3F5E06F40F28380FB68F1
:104020005B68002B02D0FB8A012B6FD1FB689B6B76
:104030001A88FB681B68DA60FB689B6B9A1CFB683C
:104040009A63FB68DB8F9BB2013B9AB2FB68DA870D
:104050005CE0FB681B689B6803F00203022B1BD12A
:10406000FB68DB8F9BB2002B16D07B6A012B13D130
:10407000FB689B6B1A88FB681B68DA60FB689B6BAC
:104080009A1CFB689A63FB68DB8F9BB2013B9AB278
:10409000FB68DA8700237B62FB681B689B6803F080
:1040A0000103012B1CD1FB68B3F846309BB2002BF7
:1040B00016D0FB681B68DA68FB681B6C92B21A802A
:1040C000FB681B6C9A1CFB681A64FB68B3F84630EB
:1040D0009BB2013B9AB2FB68A3F8462001237B62A6
:1040E000FDF7B6FE02463B6AD31A3A6B9A420DD8E8
:1040F0003B6BB3F1FF3F09D0FB68012283F85D20E1
:10410000FB68002283F85C20032311E1FB68DB8F4E
:104110009BB2002B9DD1FB68B3F846309BB2002BBD
:1041200097D1E5E0FB685B68002B03D0FB8A012B8D
:1041300040F0D180FB68DB8F9BB2012B12D9FB686A
:104140009B6B1A88FB681B68DA60FB689B6B9A1C88
:10415000FB689A63FB68DB8F9BB2023B9AB2FB68F9
:10416000DA87B8E0FB689A6BFB681B680C3312783F
:104170001A70FB689B6B5A1CFB689A63FB68DB8FA9
:104180009BB2013B9AB2FB68DA87A4E0FB681B682C
:104190009B6803F00203022B34D1FB68DB8F9BB2D8
:1041A000002B2FD07B6A012B2CD1FB68DB8F9BB2BD
:1041B000012B12D9FB689B6B1A88FB681B68DA60BD
:1041C000FB689B6B9A1CFB689A63FB68DB8F9BB256
:1041D000023B9AB2FB68DA8712E0FB689A6BFB68D5
:1041E0001B680C3312781A70FB689B6B5A1CFB68B7
:1041F0009A63FB68DB8F9BB2013B9AB2FB68DA875C
:1042000000237B62FB681B689B6803F00103012BA2
:1042100048D1FB68B3F846309BB2002B42D0FB6814
:10422000B3F846309BB2012B23D9FB681B68DA68D0
:10423000FB681B6C92B21A80FB681B6C9A1CFB68B3
:104240001A64FB68B3F846309BB2023B9AB2FB6833
:10425000A3F84620FB68B3F846309BB2012B1FD869
:10426000FB681B685A68FB681B6842F480525A60FE
:1042700016E0FB681B6803F10C02FB681B6C1278EC
:10428000D2B21A70FB681B6C5A1CFB681A64FB687C
:10429000B3F846309BB2013B9AB2FB68A3F84620C4
:1042A00001237B62FDF7D4FD02463B6AD31A3A6BC9
:1042B0009A4203D83B6BB3F1FF3F02D13B6B002B1B
:1042C00009D1FB68012283F85D20FB68002283F896
:1042D0005C2003232CE0FB68DB8F9BB2002B7FF478
:1042E00055AFFB68B3F846309BB2002B7FF44EAF5E
:1042F0003A6A396BF86800F04BF90346002B08D096
:10430000FB6820221A66FB68002283F85C200123E8
:104310000EE0FB68012283F85D20FB68002283F831
:104320005C20FB681B6E002B01D0012300E0002302
:1043300018462837BD4680BD80B483B000AF786092
:104340007B6893F85D30DBB218460C37BD465DF8EC
:10435000047B704780B588B000AFF860B9603B60FF
:104360001346FB71FDF774FD0246BB6A9B1A3A685F
:104370001344FB61FDF76CFDB861394B1B685B01B1
:104380001B0DFA6902FB03F37B6155E03B68B3F157
:10439000FF3F51D0FDF75CFD0246BB69D31AFA69B5
:1043A0009A4202D9FB69002B3DD1FB681B685A6811
:1043B000FB681B6822F0E0025A60FB685B68B3F59B
:1043C000827F11D1FB689B68B3F5004F04D0FB6876
:1043D0009B68B3F5806F07D1FB681B681A68FB68A0
:1043E0001B6822F040021A60FB689B6AB3F5005F0D
:1043F0000FD1FB681B681A68FB681B6822F4005227
:104400001A60FB681B681A68FB681B6842F400525C
:104410001A60FB68012283F85D20FB68002283F8A4
:104420005C20032318E07B69002B02D10023FB6191
:1044300002E07B69013B7B61FB681B689A68BB6893
:104440001340BA689A420CBF01230023DBB21A461C
:10445000FB799A429AD1002318462037BD4680BD89
:104460000400002080B58AB000AFF860B9607A60BF
:104470003B600023FB75FDF7EBFC02463B6B9B1A90
:104480003A6813447B62FDF7E3FC3862FB681B6803
:104490000C33FB613D4B1A6813469B001344DA0052
:1044A000D31A1B0D7A6A02FB03F3BB6161E0BB68A0
:1044B000B3F5C06F07D17B68002B04D1FB691B7873
:1044C000DBB2FB75FB7D3B68B3F1FF3F51D0FDF7DD
:1044D000BFFC02463B6AD31A7A6A9A4202D97B6AC7
:1044E000002B3DD1FB681B685A68FB681B6822F0F3
:1044F000E0025A60FB685B68B3F5827F11D1FB680C
:104500009B68B3F5004F04D0FB689B68B3F5806FE0
:1045100007D1FB681B681A68FB681B6822F0400221
:104520001A60FB689B6AB3F5005F0FD1FB681B68DC
:104530001A68FB681B6822F400521A60FB681B684B
:104540001A68FB681B6842F400521A60FB6801227B
:1045500083F85D20FB68002283F85C20032311E0D0
:10456000BB69002B02D100237B6202E0BB69013BE7
:10457000BB61FB681B689A68BB6813407A689A4203
:1045800095D1002318462837BD4680BD0400002081
:1045900080B586B002AFF860B9607A607B6800933E
:1045A000BB6800224FF4C051F868FFF75BFF034679
:1045B000002B07D0FB681B6E43F02002FB681A66D5
:1045C000032327E07B680093BB6800228021F86802
:1045D000FFF7C0FE0346002B07D0FB681B6E43F0BD
:1045E0002002FB681A66032314E07B680093BB6813
:1045F00000224FF4C061F868FFF734FF0346002B38
:1046000007D0FB681B6E43F02002FB681A66032389
:1046100000E0002318461037BD4680BD80B582B04B
:1046200000AF78607B68002B01D1012340E07B68FC
:10463000DB6F002B06D17B68002283F87820786836
:1046400000F03AF87B682422DA677B681B681A68F6
:104650007B681B6822F001021A607B685B6A002B92
:1046600002D0786800F07EFB786800F0C3F803465B
:10467000012B01D101231BE07B681B685A687B6812
:104680001B6822F490425A607B681B689A687B68BA
:104690001B6822F02A029A607B681B681A687B6894
:1046A0001B6842F001021A60786800F0FDFB0346C7
:1046B00018460837BD4680BD80B483B000AF78602F
:1046C00000BF0C37BD465DF8047B704780B58AB0EB
:1046D00002AFF860B9603B601346FB80FB68DB6F9C
:1046E000202B40F08180BB68002B02D0FB88002B80
:1046F00001D1012379E0FB680022C3F88420FB6824
:104700002122DA67FDF7A4FB7861FB68FA88A3F839
:104710005020FB68FA88A3F85220FB689B68B3F529
:10472000805F08D1FB681B69002B04D10023FB616B
:10473000BB68BB6103E0BB68FB610023BB6138E081
:104740003B6800937B6900228021F86800F054FCEC
:104750000346002B04D0FB682022DA67032344E0E1
:10476000FB69002B0BD1BB691B881A46FB681B68D1
:10477000C2F308029A62BB690233BB6107E0FB69BE
:104780001A78FB681B689A62FB690133FB61FB685E
:10479000DB6F03F02103212B09D1FB68B3F8523002
:1047A0009BB2013B9AB2FB68A3F8522001E00123BF
:1047B0001BE0FB68B3F852309BB2002BC0D13B68C2
:1047C00000937B6900224021F86800F015FC034645
:1047D000002B04D0FB682022DA67032305E0FB6886
:1047E0002022DA67002300E0022318462037BD4666
:1047F00080BD00002DE9B04F8AB000AFF860002303
:1048000087F82230FB689A68FB681B691A43FB68CB
:104810005B691A43FB68DB6913437B62FB681B68B7
:104820001A68A44B1340FA681268796A0B43136044
:10483000FB681B685B6823F44051FB68DA68FB681F
:104840001B680A435A60FB689B697B62FB681B68B4
:10485000994A934204D0FB681B6A7A6A13437B62CD
:10486000FB681B689B6823F43061FB681B687A6AED
:104870000A439A60FB681B68904A934226D1904B8A
:10488000D3F8883003F00303032B1BD801A252F89E
:1048900023F000BFA5480008B5480008AD4800084F
:1048A000BD480008012387F8233016E1022387F86A
:1048B000233012E1042387F823300EE1082387F820
:1048C00023300AE1102387F8233006E1FB681B68D8
:1048D0007C4A934238D17A4BD3F8883003F00C03EA
:1048E0000C2B2DD801A252F823F000BF214900085B
:1048F0004149000841490008414900083149000880
:104900004149000841490008414900082949000877
:104910004149000841490008414900083949000857
:10492000002387F82330D8E0022387F82330D4E02F
:10493000042387F82330D0E0082387F82330CCE025
:10494000102387F82330C8E0FB681B685E4A934257
:1049500025D15B4BD3F8883003F03003302B16D0D1
:10496000302B18D8202B0AD0202B14D8002B02D0A3
:10497000102B08D00FE0002387F82330ADE002238E
:1049800087F82330A9E0042387F82330A5E0082323
:1049900087F82330A1E0102387F823309DE0FB68DF
:1049A0001B684A4A934225D1454BD3F8883003F01F
:1049B000C003C02B16D0C02B18D8802B0AD0802B58
:1049C00014D8002B02D0402B08D00FE0002387F82A
:1049D000233082E0022387F823307EE0042387F827
:1049E00023307AE0082387F8233076E0102387F815
:1049F000233072E0FB681B68354A93422AD1304B62
:104A0000D3F8883003F44073B3F5407F1AD0B3F580
:104A1000407F1BD8B3F5007F0CD0B3F5007F15D8CD
:104A2000002B03D0B3F5807F08D00FE0002387F878
:104A3000233052E0022387F823304EE0042387F826
:104A400023304AE0082387F8233046E0102387F814
:104A5000233042E0FB681B68174A93423AD1184B57
:104A6000D3F8883003F44063B3F5406F1AD0B3F540
:104A7000406F1BD8B3F5006F0CD0B3F5006F15D89D
:104A8000002B03D0B3F5806F08D00FE0002387F828
:104A9000233022E0022387F823301EE0042387F826
:104AA00023301AE0082387F8233016E0102387F814
:104AB000233012E0F369FFEF00800040003801402E
:104AC000001002400044004000480040004C0040FC
:104AD00000500040102387F82330FB681B689F4A72
:104AE00093427AD197F82330082B24D801A252F8A8
:104AF00023F000BF194B0008374B0008214B00087A
:104B0000374B0008274B0008374B0008374B00088D
:104B1000374B00082F4B0008FEF7FAFBF86110E056
:104B20008F4BFB610DE0FEF75BFBF86109E04FF492
:104B30000043FB6105E00023FB61012387F822307D
:104B400000BFFB69002B00F0FB80FB685A6813462E
:104B50005B001344FA699A4205D3FB685B681B0348
:104B6000FA699A4203D9012387F82230E8E0FB6909
:104B700000221C4615464FF000024FF000032B02A6
:104B800043EA14632202F96849684908002088460C
:104B9000814612EB080A43EB090BFB685B680022B5
:104BA0003B607A60D7E9002350465946FBF760FB2B
:104BB00002460B461346BB61BB69B3F5407F08D381
:104BC000BB69B3F5801F04D2FB681B68BA69DA6061
:104BD000B6E0012387F82230B2E0FB68DB69B3F569
:104BE000004F5ED197F82330082B28D801A252F845
:104BF00023F000BF194C0008214C0008294C000884
:104C00003F4C00082F4C00083F4C00083F4C000868
:104C10003F4C0008374C0008FEF77AFBF86114E0BF
:104C2000FEF78CFBF86110E04D4BFB610DE0FEF7E9
:104C3000D7FAF86109E04FF40043FB6105E0002377
:104C4000FB61012387F8223000BFFB69002B77D07E
:104C5000FB695A00FB685B685B081A44FB685B6889
:104C6000B2FBF3F3BB61BB690F2B16D9BB69B3F57C
:104C7000803F12D2BB699BB223F00F03FB82BB695A
:104C80005B089BB203F007039AB2FB8A1343FB82D3
:104C9000FB681B68FA8ADA6052E0012387F8223049
:104CA0004EE097F82330082B27D801A252F823F0C2
:104CB000D54C0008DD4C0008E54C0008FB4C000812
:104CC000EB4C0008FB4C0008FB4C0008FB4C0008B8
:104CD000F34C0008FEF71CFBF86114E0FEF72EFB16
:104CE000F86110E01E4BFB610DE0FEF779FAF86108
:104CF00009E04FF40043FB6105E00023FB61012361
:104D000087F8223000BFFB69002B19D0FB685B6875
:104D10005A08FB691A44FB685B68B2FBF3F3BB619A
:104D2000BB690F2B09D9BB69B3F5803F05D2BB69BD
:104D30009AB2FB681B68DA6002E0012387F8223030
:104D4000FB6800229A66FB680022DA6697F8223038
:104D500018462837BD46BDE8B08F00BF0080004030
:104D60000024F40080B483B000AF78607B685B6A95
:104D700003F00803002B0AD07B681B685B6823F4F0
:104D800000417B685A6B7B681B680A435A607B68EA
:104D90005B6A03F00103002B0AD07B681B685B6829
:104DA00023F400317B689A6A7B681B680A435A6067
:104DB0007B685B6A03F00203002B0AD07B681B68E8
:104DC0005B6823F480317B68DA6A7B681B680A437E
:104DD0005A607B685B6A03F00403002B0AD07B688F
:104DE0001B685B6823F480217B681A6B7B681B68F7
:104DF0000A435A607B685B6A03F01003002B0AD0F9
:104E00007B681B689B6823F480517B689A6B7B6886
:104E10001B680A439A607B685B6A03F02003002BDF
:104E20000AD07B681B689B6823F400517B68DA6BAF
:104E30007B681B680A439A607B685B6A03F04003E7
:104E4000002B1AD07B681B685B6823F480117B6899
:104E50001A6C7B681B680A435A607B681B6CB3F54D
:104E6000801F0AD17B681B685B6823F4C0017B68E4
:104E70005A6C7B681B680A435A607B685B6A03F064
:104E80008003002B0AD07B681B685B6823F4002139
:104E90007B689A6C7B681B680A435A6000BF0C37BA
:104EA000BD465DF8047B704780B598B002AF78606E
:104EB0007B680022C3F88420FCF7CAFF78657B6812
:104EC0001B681B6803F00803082B2ED16FF07E438C
:104ED00000937B6D00224FF40011786800F08CF88D
:104EE0000346002B21D07B681B68BB63BB6B53E878
:104EF000003F7B637B6B23F080033B657B681B6813
:104F00001A463B6D7B643A64396C7A6C41E8002345
:104F1000FB63FB6B002BE6D17B682022DA677B68A2
:104F2000002283F87820032362E07B681B681B68FB
:104F300003F00403042B49D16FF07E4300937B6D93
:104F400000224FF48001786800F056F80346002BE9
:104F50003CD07B681B687B627B6A53E8003F3B6206
:104F60003B6A23F49073FB647B681B681A46FB6CF6
:104F70003B63FA62F96A3A6B41E80023BB62BB6AA1
:104F8000002BE6D17B681B6808333B613B6953E823
:104F9000003FFB60FB6823F00103BB647B681B6878
:104FA0000833BA6CFA61BB61B969FA6941E8002358
:104FB0007B617B69002BE5D17B682022C3F88020D0
:104FC0007B68002283F87820032311E07B6820228D
:104FD000DA677B682022C3F880207B6800221A668B
:104FE0007B6800225A667B68002283F878200023C1
:104FF00018465837BD4680BD80B584B000AFF86014
:10500000B9603B601346FB714FE0BB69B3F1FF3FF2
:105010004BD0FCF71DFF02463B68D31ABA699A428F
:1050200002D3BB69002B01D103234EE0FB681B6850
:105030001B6803F00403002B37D0BB68802B34D0EF
:10504000BB68402B31D0FB681B68DB6903F00803A9
:10505000082B10D1FB681B6808221A62F86800F060
:1050600038F8FB680822C3F88420FB68002283F824
:105070007820012329E0FB681B68DB6903F40063E7
:10508000B3F5006F11D1FB681B684FF400621A6220
:10509000F86800F01EF8FB682022C3F88420FB6843
:1050A000002283F8782003230FE0FB681B68DA698D
:1050B000BB681340BA689A420CBF01230023DBB2DD
:1050C0001A46FB799A42A0D0002318461037BD46F5
:1050D00080BD80B495B000AF78607B681B687B634F
:1050E0007B6B53E8003F3B633B6B23F49073FB64A3
:1050F0007B681B681A46FB6C3B64FA63F96B3A6C7D
:1051000041E80023BB63BB6B002BE6D17B681B68C7
:1051100008333B623B6A53E8003FFB61FB6923F0C5
:105120000103BB647B681B680833BA6CFA62BB621C
:10513000B96AFA6A41E800237B627B6A002BE5D1F9
:105140007B681B6E012B18D17B681B68FB60FB68BA
:1051500053E8003FBB60BB6823F010037B647B68AF
:105160001B681A467B6CBB617A617969BA6941E850
:1051700000233B613B69002BE6D17B682022C3F80A
:1051800080207B6800221A667B6800229A6600BF36
:105190005437BD465DF8047B704780B58CB000AFD6
:1051A0003B600346FB710B46BB7113467B71FB7979
:1051B0003B75BB797B757B79BB7507F10C030722C7
:1051C0000021184601F06AFD07F11803182200219A
:1051D000184601F063FD3F233B838A237B8307F15D
:1051E00014033B6203237B6207F10C03BB620723BA
:1051F000FB6207F118030021184600F0D5FF0346B3
:10520000002B01DAFF2314E03B7B002B01D03B7B1A
:105210000FE0B7F80D309AB23B681A80B7F80F303C
:105220009AB2BB6B1A80B7F811309AB2FB6B1A8036
:10523000002318463037BD4680BD80B58EB000AF24
:10524000B9607A603B600346FB73FB7B3B7707F1F9
:10525000140307220021184601F020FD07F1200366
:1052600018220021184601F019FD3F233B848A23B0
:105270007B8407F11C03BB620123FB6207F114036B
:105280003B6307237B6307F120030021184600F0EE
:105290008BFF0346002B01DAFF2314E03B7D002B3C
:1052A00001D03B7D0FE0B7F815309AB2BB681A8089
:1052B000B7F817309AB27B681A80B7F819309AB2EB
:1052C0003B681A80002318463837BD4680BD90B52C
:1052D00095B000AF0446084611461A462346FB71B6
:1052E0000346BB800B467B801346BB71002387F8C7
:1052F0004F3097F8642097F86C3013440E33282B06
:1053000001D94223C9E097F84F3050333B44FA7932
:1053100003F8482C97F84F30013387F84F30BB889B
:10532000BB8097F84F3007F108021344BA881A80FF
:1053300097F84F30023387F84F307B887B8097F89F
:105340004F3007F1080213447A881A8097F84F30DB
:10535000023387F84F3097F84F3050333B44BA79D7
:1053600003F8482C97F84F30013387F84F3097F8FF
:105370004F3050333B4497F8602003F8482C97F89F
:105380004F30013387F84F3097F84F3050333B445C
:1053900097F8642003F8482C97F84F30013387F8CA
:1053A0004F3097F84F3007F10802134497F8642004
:1053B000B96E184601F0EDFC97F84F2097F864306D
:1053C000134487F84F3097F84F3050333B4497F8E9
:1053D0006C2003F8482C97F84F30013387F84F3092
:1053E00097F84F3007F10802134497F86C20396F93
:1053F000184601F0CEFC97F84F2097F86C30134414
:1054000087F84F30B7F87430A7F8743097F84F30FA
:1054100007F108021344B7F874201A8097F84F3048
:10542000023387F84F30B7F87830A7F8783097F81C
:105430004F3007F108021344B7F878201A8097F824
:105440004F30023387F84F3007F134031822002120
:10545000184601F023FC3F23BB868323FB8607F11C
:105460000803FB6397F84F303B6407F133037B6419
:105470000123BB6407F134030021184600F094FEB9
:105480000346002B01DAFF2307E097F83330002BA7
:1054900002D097F8333000E0002318465437BD4659
:1054A00090BD90B591B000AF3A601A460346FB71CB
:1054B0000B46BB7113467B71FB793B73BB797B73E6
:1054C000BB79002B0AD03A6807F10E0314685068C4
:1054D0009168D2681C6058609960DA607B79BB770C
:1054E00097F85030FB7797F8543087F82030BB6D31
:1054F000C7F8213097F85C3087F8253007F128038A
:1055000018220021184601F0C9FB3F233B85862362
:105510007B8507F10C033B631A237B6307F10B03C5
:10552000BB630123FB6307F128030021184600F049
:105530003BFE0346002B01DAFF2305E0FB7A002B3C
:1055400001D0FB7A00E0002318464437BD4690BDE9
:1055500080B592B000AF7B600346FB810B46BB81F8
:105560001346FB72FB893B83BB897B83FB7A3B77CA
:105570007A6807F11D031168196092889A8097F87C
:10558000503087F82330B7F85430BB84B7F8583020
:10559000FB84B7F85C303B85B7F860307B85B7F8A3
:1055A0006430BB85B7F86830FB8507F130031822FB
:1055B0000021184601F072FB3F233B869C237B862B
:1055C00007F11803BB631823FB630F237B6307F109
:1055D00017033B6401237B6407F130030021184665
:1055E00000F0E2FD0346002B01DAFF2300E0FB7D23
:1055F00018464837BD4680BD80B588B000AF07F17A
:10560000080318220021184601F048FB3F233B8184
:1056100040F201137B81FB1DBB610123FB6107F19C
:1056200008030021184600F0BFFD0346002B01DAF5
:10563000FF2300E0FB7918462037BD4680BD80B5CA
:1056400090B000AF396011461A460346FB710B4615
:10565000BB7113467B71002387F83E3097F83E30CC
:1056600040333B44FA7903F8342C97F83E30013349
:1056700087F83E30FB79012B03D1022387F83F30B6
:1056800002E0102387F83F3097F83E3007F10C0214
:10569000134497F83F203968184601F07AFB97F8D1
:1056A0003E2097F83F30134487F83E3097F83E305D
:1056B00040333B44BA7903F8342C97F83E30013339
:1056C00087F83E3097F83E3040333B447A7903F810
:1056D000342C97F83E30013387F83E3007F1200331
:1056E00003220021184601F0D9FA07F124031822F9
:1056F0000021184601F0D2FA3F23BB844FF4817396
:10570000FB8407F10C03FB6297F83E303B6307F123
:1057100020037B630323BB6307F1240300211846A6
:1057200000F042FD0346002B01DAFF230CE097F85E
:105730002030002B02D097F8203005E0B7F8213058
:105740009AB2BB6C1A80002318464037BD4680BD14
:1057500080B592B000AF3A601A460346FB800B4614
:105760007B7113463B71002387F84630FB88FB8032
:1057700097F8463007F10C021344FA881A8097F81C
:105780004630023387F8463097F8463048333B447A
:105790007A7903F83C2C97F84630013387F8463085
:1057A0007B79012B03D1022387F8473002E01023D5
:1057B00087F8473097F8463007F10C02134497F802
:1057C00047203968184601F0E4FA97F8462097F820
:1057D0004730134487F8463097F8463048333B4407
:1057E0003A7903F83C2C97F84630013387F8463075
:1057F00097F8463048333B4497F8502003F83C2C48
:1058000097F84630013387F8463097F846304833EA
:105810003B4497F8542003F83C2C97F8463001336A
:1058200087F8463097F8463048333B4497F858207D
:1058300003F83C2C97F84630013387F8463097F848
:10584000463048333B4497F85C2003F83C2C97F8EB
:105850004630013387F8463097F8463048333B44AA
:1058600097F8602003F83C2C97F84630013387F80E
:10587000463007F1280303220021184601F00EFAF2
:1058800007F12C0318220021184601F007FA3F23E4
:10589000BB854FF48273FB8507F10C037B6397F89C
:1058A0004630BB6307F12803FB6303233B6407F126
:1058B0002C030021184600F077FC0346002B01DA88
:1058C000FF230CE097F82830002B02D097F82830FF
:1058D00005E0B7F829309AB27B6E1A80002318468B
:1058E0004837BD4680BD90B5ABB000AF0446084612
:1058F00011461A462346FB800346BB800B46FB70CD
:105900001346BB70002387F8A730BB787A2B01D9E8
:10591000422374E0FB88FB8097F8A73007F1080268
:105920001344FA881A8097F8A730023387F8A73013
:10593000BB88BB8097F8A73007F108021344BA88E8
:105940001A8097F8A730023387F8A73097F8A73066
:10595000A8333B44FA7803F8A02C97F8A73001331A
:1059600087F8A73097F8A730A8333B44BA7803F8F4
:10597000A02C97F8A730013387F8A73097F8A73005
:1059800007F108021344BA78D7F8B810184601F0A6
:1059900000FA97F8A720BB78134487F8A73007F1DF
:1059A0008C0318220021184601F078F93F23A7F84C
:1059B0008C304FF48373A7F88E3007F10803C7F8D3
:1059C000943097F8A730C7F8983007F18B03C7F8E1
:1059D0009C300123C7F8A03007F18C030021184642
:1059E00000F0E2FB0346002B01DAFF2307E097F803
:1059F0008B30002B02D097F88B3000E00023184644
:105A0000AC37BD4690BD90B591B000AF0446084696
:105A100011461A462346FB800346BB800B467B801B
:105A200013467B70002387F83E30FB88FB8097F895
:105A30003E3007F10C021344FA881A8097F83E3082
:105A4000023387F83E30BB88BB8097F83E3007F1C1
:105A50000C021344BA881A8097F83E30023387F854
:105A60003E307B887B8097F83E3007F10C02134470
:105A70007A881A8097F83E30023387F83E3097F8DC
:105A80003E3040333B447A7803F8342C97F83E306C
:105A9000013387F83E307B78012B03D1022387F84E
:105AA0003F3002E0102387F83F3097F83E3007F18F
:105AB0000C02134497F83F20396D184601F069F93C
:105AC00097F83E2097F83F30134487F83E3007F1AF
:105AD000240318220021184601F0E0F83F23BB847C
