:020000040800F2
:1000000000800120692A00086D2400086F24000880
:100010007124000873240008752400080000000003
:10002000000000000000000000000000772400082D
:1000300079240008000000007B2400087D240008CB
:10004000B92A0008B92A0008B92A0008B92A000804
:10005000B92A0008B92A0008B92A0008B92A0008F4
:10006000B92A0008B92A0008B92A0008B92A0008E4
:10007000B92A0008B92A0008B92A0008B92A0008D4
:10008000B92A0008B92A0008B92A0008B92A0008C4
:10009000B92A0008B92A0008B92A0008B92A0008B4
:1000A000B92A0008B92A0008B92A0008B92A0008A4
:1000B000B92A0008B92A0008B92A0008B92A000894
:1000C000B92A0008B92A0008B92A0008B92A000884
:1000D000B92A0008B92A0008B92A0008B92A000874
:1000E00081240008B92A0008B92A0008B92A0008A2
:1000F000B92A0008B92A0008B92A0008B92A000854
:10010000B92A0008B92A0008B92A0008B92A000843
:10011000B92A0008B92A0008B92A00089924000859
:10012000B92A0008B92A0008B92A0008B92A000823
:10013000B92A0008B92A0008B92A0008B92A000813
:10014000B92A0008B92A0008B92A0008A52400081D
:10015000B92A0008B92A0008B92A0008B92A0008F3
:10016000B92A0008B92A0008B92A0008B92A0008E3
:10017000B92A0008B92A0008B92A000800000000BE
:08018000B92A0008B92A0008A1
:1001900010B5054C237833B9044B13B10448AFF3C1
:1001A00000800123237010BD3005002000000000F6
:1001B0000CD7000808B5034B1BB103490348AFF344
:1001C000008008BD00000000340500200CD70008A6
:1001D000034613F8012B002AFBD1181A0138704787
:1001E00001F0FF01102A2BDB10F0070F08D010F8E8
:1001F000013B013A8B422DD010F0070F42B3F6D1EC
:10020000F0B441EA012141EA014122F007047FF004
:1002100000070023F0E80256083C85EA010586EA5B
:10022000010685FA47F5A3FA87F586FA47F6A5FA97
:1002300087F68EB9EED1F0BC01F0FF0102F00702A3
:1002400032B110F8013B013A83EA010313B1F8D14E
:100250000020704701387047002D06BF354603382F
:10026000073815F0010F07D1013015F4807F02BF68
:10027000013015F4C03F0130F0BC0138704700BFB9
:1002800081F0004102E000BF83F0004330B54FEA47
:1002900041044FEA430594EA050F08BF90EA020FB4
:1002A0001FBF54EA000C55EA020C7FEA645C7FEA47
:1002B000655C00F0E2804FEA5454D4EB5555B8BF6A
:1002C0006D420CDD2C4480EA020281EA030382EADB
:1002D000000083EA010180EA020281EA0303362D6D
:1002E00088BF30BD11F0004F4FEA01314FF4801C40
:1002F0004CEA113102D0404261EB410113F0004F52
:100300004FEA03334CEA133302D0524263EB430308
:1003100094EA050F00F0A780A4F10104D5F1200EA6
:100320000DDB02FA0EFC22FA05F2801841F1000101
:1003300003FA0EF2801843FA05F359410EE0A5F1D5
:1003400020050EF1200E012A03FA0EFC28BF4CF006
:10035000020C43FA05F3C01851EBE37101F00045BC
:1003600007D54FF0000EDCF1000C7EEB00006EEBC9
:100370000101B1F5801F1BD3B1F5001F0CD3490853
:100380005FEA30004FEA3C0C04F101044FEA4452AA
:1003900012F5800F80F09A80BCF1004F08BF5FEA31
:1003A000500C50F1000041EB045141EA050130BD11
:1003B0005FEA4C0C404141EB0101013C28BFB1F523
:1003C000801FE9D291F0000F04BF01460020B1FA6E
:1003D00081F308BF2033A3F10B03B3F120020CDA41
:1003E0000C3208DD02F1140CC2F10C0201FA0CF01F
:1003F00021FA02F10CE002F11402D8BFC2F1200C84
:1004000001FA02F120FA0CFCDCBF41EA0C01904039
:10041000E41AA2BF01EB0451294330BD6FEA040482
:100420001F3C1CDA0C340EDC04F11404C4F120026D
:1004300020FA04F001FA02F340EA030021FA04F37F
:1004400045EA030130BDC4F10C04C4F1200220FAD6
:1004500002F001FA04F340EA0300294630BD21FA14
:1004600004F0294630BD94F0000F83F4801306BFDA
:1004700081F480110134013D4EE77FEA645C18BFCE
:100480007FEA655C29D094EA050F08BF90EA020F65
:1004900005D054EA000C04BF1946104630BD91EA5D
:1004A000030F1EBF0021002030BD5FEA545C05D160
:1004B0004000494128BF41F0004130BD14F580049F
:1004C0003CBF01F5801130BD01F0004545F0FE4113
:1004D00041F470014FF0000030BD7FEA645C1ABF48
:1004E000194610467FEA655C1CBF0B46024650EA7F
:1004F000013406BF52EA033591EA030F41F40021AB
:1005000030BD00BF90F0000F04BF0021704730B530
:100510004FF4806404F132044FF000054FF0000105
:1005200050E700BF90F0000F04BF0021704730B5C6
:100530004FF4806404F1320410F0004548BF40429B
:100540004FF000013EE700BF42004FEAE2014FEAF0
:1005500031014FEA02701FBF12F07F4393F07F4FCB
:1005600081F06051704732F07F4208BF704793F0CE
:100570007F4F04BF41F40021704730B54FF46074E1
:1005800001F0004521F000411CE700BF50EA0102E4
:1005900008BF704730B54FF000050AE050EA01028D
:1005A00008BF704730B511F0004502D5404261EBFD
:1005B00041014FF4806404F132045FEA915C3FF43E
:1005C000D8AE4FF003025FEADC0C18BF03325FEADB
:1005D000DC0C18BF033202EBDC02C2F1200300FA8C
:1005E00003FC20FA02F001FA03FE40EA0E0021FAB1
:1005F00002F11444BDE600BF70B54FF0FF0C4CF49F
:10060000E06C1CEA11541DBF1CEA135594EA0C0F50
:1006100095EA0C0F00F0DEF82C4481EA030621EA8B
:100620004C5123EA4C5350EA013518BF52EA0335C6
:1006300041F4801143F4801338D0A0FB02CE4FF078
:100640000005E1FB02E506F00042E0FB03E54FF0A8
:100650000006E1FB03569CF0000F18BF4EF0010EA0
:10066000A4F1FF04B6F5007F64F5407404D25FEA9C
:100670004E0E6D4146EB060642EAC62141EA55514F
:100680004FEAC52040EA5E504FEACE2EB4F1FD0C91
:1006900088BFBCF5E06F1ED8BEF1004F08BF5FEA0F
:1006A000500E50F1000041EB045170BD06F00046C1
:1006B00046EA010140EA020081EA0301B4EB5C046E
:1006C000C2BFD4EB0C0541EA045170BD41F4801166
:1006D0004FF0000E013C00F3AB8014F1360FDEBF8B
:1006E000002001F0004170BDC4F10004203C35DA67
:1006F0000C341BDC04F11404C4F1200500FA05F3EA
:1007000020FA04F001FA05F240EA020001F000428A
:1007100021F0004110EBD37021FA04F642EB060100
:100720005EEA430E08BF20EAD37070BDC4F10C042A
:10073000C4F1200500FA04F320FA05F001FA04F2EE
:1007400040EA020001F0004110EBD37041F10001DA
:100750005EEA430E08BF20EAD37070BDC4F12005E5
:1007600000FA05F24EEA020E20FA04F301FA05F24D
:1007700043EA020321FA04F001F0004121FA04F2F5
:1007800020EA020000EBD3705EEA430E08BF20EAC5
:10079000D37070BD94F0000F0FD101F000464000FF
:1007A00041EB010111F4801F08BF013CF7D041EA81
:1007B000060195F0000F18BF704703F00046520085
:1007C00043EB030313F4801F08BF013DF7D043EA56
:1007D0000603704794EA0C0F0CEA135518BF95EA0C
:1007E0000C0F0CD050EA410618BF52EA4306D1D193
:1007F00081EA030101F000414FF0000070BD50EAB2
:10080000410606BF1046194652EA430619D094EA3B
:100810000C0F02D150EA013613D195EA0C0F05D125
:1008200052EA03361CBF104619460AD181EA030179
:1008300001F0004141F0FE4141F470014FF0000031
:1008400070BD41F0FE4141F4780170BD70B54FF0CC
:10085000FF0C4CF4E06C1CEA11541DBF1CEA13554C
:1008600094EA0C0F95EA0C0F00F0A7F8A4EB05042E
:1008700081EA030E52EA03354FEA013100F0888025
:100880004FEA03334FF0805545EA131343EA1263EE
:100890004FEA022245EA111545EA10654FEA0026A3
:1008A0000EF000419D4208BF964244F1FD0404F55C
:1008B000407402D25B084FEA3202B61A65EB0305B8
:1008C0005B084FEA32024FF480104FF4002CB6EB75
:1008D000020E75EB030E22BFB61A754640EA0C00F5
:1008E0005B084FEA3202B6EB020E75EB030E22BF35
:1008F000B61A754640EA5C005B084FEA3202B6EB76
:10090000020E75EB030E22BFB61A754640EA9C0034
:100910005B084FEA3202B6EB020E75EB030E22BF04
:10092000B61A754640EADC0055EA060E18D04FEAC2
:10093000051545EA16754FEA06164FEAC30343EA62
:1009400052734FEAC2025FEA1C1CC0D111F4801F2F
:100950000BD141EA00014FF000004FF0004CB6E728
:1009600011F4801F04BF01430020B4F1FD0C88BFC7
:10097000BCF5E06F3FF6AFAEB5EB030C04BFB6EBD2
:10098000020C5FEA500C50F1000041EB045170BDC5
:100990000EF0004E4EEA113114EB5C04C2BFD4EBF2
:1009A0000C0541EA045170BD41F480114FF0000E76
:1009B000013C90E645EA060E8DE60CEA135594EAF2
:1009C0000C0F08BF95EA0C0F3FF43BAF94EA0C0FF5
:1009D0000AD150EA01347FF434AF95EA0C0F7FF46A
:1009E00025AF104619462CE795EA0C0F06D152EABE
:1009F00003353FF4FDAE1046194622E750EA4106A2
:100A000018BF52EA43067FF4C5AE50EA41047FF4B2
:100A10000DAF52EA43057FF4EBAE12E74FF0FF3C17
:100A200006E000BF4FF0010C02E000BF4FF0010CE8
:100A30004DF804CD4FEA410C7FEA6C5C4FEA430C61
:100A400018BF7FEA6C5C1BD001B050EA410C0CBFB0
:100A500052EA430C91EA030F02BF90EA020F002012
:100A6000704710F1000F91EA030F58BF994208BF79
:100A700090422CBFD8176FEAE37040F00100704736
:100A80004FEA410C7FEA6C5C02D150EA013C07D18D
:100A90004FEA430C7FEA6C5CD6D152EA033CD3D0D8
:100AA0005DF8040B704700BF8446104662468C46D2
:100AB0001946634600E000BF01B5FFF7B7FF002805
:100AC00048BF10F1000F01BD4DF808EDFFF7F4FF2E
:100AD0000CBF012000205DF808FB00BF4DF808EDB9
:100AE000FFF7EAFF34BF012000205DF808FB00BFDC
:100AF0004DF808EDFFF7E0FF94BF012000205DF8FE
:100B000008FB00BF4DF808EDFFF7CEFF94BF0120B2
:100B100000205DF808FB00BF4DF808EDFFF7C4FFAB
:100B200034BF012000205DF808FB00BF4FEA410CF4
:100B30007FEA6C5C02D150EA013C0AD14FEA430CD7
:100B40007FEA6C5C02D152EA033C02D14FF0000014
:100B500070474FF0010070474FEA410212F5001252
:100B600015D211D56FF47873B3EB625212D94FEAF4
:100B7000C12343F0004343EA505311F0004F23FADE
:100B800002F018BF404270474FF00000704750EA33
:100B9000013005D111F0004008BF6FF000407047F0
:100BA0004FF00000704700BF4A0011D212F500124A
:100BB00011D20DD56FF47873B3EB62520ED44FEAB5
:100BC000C12343F0004343EA505323FA02F0704735
:100BD0004FF00000704750EA013002D14FF0FF3073
:100BE00070474FF0000070474FEA4102B2F1E04316
:100BF00024BFB3F5001CDCF1FE5C0DD901F0004C04
:100C00004FEAC0024CEA5070B2F1004F40EB830053
:100C100008BF20F00100704711F0804F21D113F17F
:100C20003872BCBF01F00040704741F480114FEAB8
:100C30005252C2F11802C2F1200C10FA0CF320FA41
:100C400002F018BF40F001004FEAC1234FEAD3235E
:100C500003FA0CFC40EA0C0023FA02F34FEA4303C8
:100C6000CCE77FEA625307D150EA01331EBF4FF051
:100C7000FE4040F44000704701F0004040F0FE406C
:100C800040F40000704700BF53B94AB9002908BFBB
:100C900000281CBF4FF0FF314FF0FF3000F0AAB921
:100CA000ADF1080C6DE904CE00F03CF8DDF804E08D
:100CB000DDE9022304B0704738B500220023044662
:100CC0000D46FFF70BFF28B920462946BDE83840FE
:100CD00000F00AB8204605F1004100F005F8404256
:100CE00061EB410138BD00BFD0B50C4B0022064678
:100CF0000F46FFF781FCFFF757FF0446FFF702FCA2
:100D0000074B0022FFF778FC02460B463046394677
:100D1000FFF7BAFAFFF748FF2146D0BD0000F03DCB
:100D20000000F0412DE9F047089D04468E46002B57
:100D30004DD18A42944669D9B2FA82F252B101FA8F
:100D400002F3C2F1200120FA01F10CFA02FC41EA9F
:100D5000030E94404FEA1C48210CBEFBF8F61FFA24
:100D60008CF708FB16E341EA034306FB07F19942BF
:100D70000AD91CEB030306F1FF3080F01F81994272
:100D800040F21C81023E63445B1AA4B2B3FBF8F04C
:100D900008FB103344EA034400FB07F7A7420AD9D3
:100DA0001CEB040400F1FF3380F00A81A74240F2FB
:100DB00007816444023840EA0640E41B00261DB166
:100DC000D4400023C5E900433146BDE8F0878B429B
:100DD00009D9002D00F0EF800026C5E9000130465A
:100DE0003146BDE8F087B3FA83F6002E4AD18B4234
:100DF00002D3824200F2F980841A61EB03030120DE
:100E00009E46002DE0D0C5E9004EDDE702B9FFDEC9
:100E1000B2FA82F2002A40F09280A1EB0C014FEA74
:100E20001C471FFA8CFE0126200CB1FBF7F307FBD1
:100E3000131140EA01410EFB03F0884208D91CEB74
:100E4000010103F1FF3802D2884200F2CB80434611
:100E5000091AA4B2B1FBF7F007FB101144EA0144F0
:100E60000EFB00FEA64508D91CEB040400F1FF317F
:100E700002D2A64500F2BB800846A4EB0E0440EA6D
:100E800003409CE7C6F12007B34022FA07FC4CEA76
:100E9000030C20FA07F401FA06F31C43F9404FEA69
:100EA0001C4900FA06F3B1FBF9F8200C1FFA8CFE7E
:100EB00009FB181140EA014108FB0EF0884202FAD2
:100EC00006F20BD91CEB010108F1FF3A80F0888093
:100ED000884240F28580A8F102086144091AA4B250
:100EE000B1FBF9F009FB101144EA014100FB0EFED1
:100EF0008E4508D91CEB010100F1FF346CD28E4500
:100F00006AD90238614440EA0840A0FB0294A1EB90
:100F10000E01A142C846A64656D353D05DB1B3EBED
:100F2000080261EB0E0101FA07F722FA06F3F1401D
:100F30001F43C5E9007100263146BDE8F087C2F1C4
:100F40002003D8400CFA02FC21FA03F3914001433C
:100F50004FEA1C471FFA8CFEB3FBF7F007FB103675
:100F60000B0C43EA064300FB0EF69E4204FA02F421
:100F700008D91CEB030300F1FF382FD29E422DD974
:100F8000023863449B1B89B2B3FBF7F607FB1633A9
:100F900041EA034106FB0EF38B4208D91CEB010129
:100FA00006F1FF3816D28B4214D9023E6144C91AA9
:100FB00046EA004638E72E46284605E70646E3E6B9
:100FC0001846F8E64B45A9D2B9EB020864EB0C0EC3
:100FD0000138A3E74646EAE7204694E74046D1E7D2
:100FE000D0467BE7023B614432E7304609E7644480
:100FF000023842E7704700BF184BF0B5DA6C184D65
:1010000042F00102DA64DB6C87B003F00103009365
:101010004FF4805204270024009B03944FF488135C
:1010200001A92846CDE90123012601F033FE0DEB8D
:1010300007010C48CDE90176CDE9034401F02AFE11
:101040000DEB07012846CDE90176CDE9034401F017
:1010500021FE01F065FA07B0F0BD00BF00100240AC
:10106000000400480008004808B507484FF48051C4
:1010700001F0EEFE0448042101F0EAFE03480421D9
:1010800001F0E6FE002008BD00040048000800480A
:1010900010B50C4C0C480122042101F06DFF002218
:1010A0000421204601F068FF052001F055FD0122D2
:1010B0000421204601F060FF052001F04DFD0020D5
:1010C00010BD00BF0008004800040048F0B587B01C
:1010D000FF238DF806301C4B0646186802901B79DA
:1010E0001A488DF80C3000220D46042101F044FF0F
:1010F000052204A902A801F0DBF99DF81030022BAB
:101100001FD1BDF8134044B1A54228BF2546002396
:10111000DCB2A54203F1010707D80C4801220421E3
:1011200001F02AFF204607B0F0BD01220DF10701B2
:101130000DF1060001F0BCF99DF8073033553B4630
:10114000E6E70024E9E700BF28D7000800040048CC
:101150002DE9F043204BDFF88480DFF8849085B0E0
:101160000746D3F805005B7A00900D468DF80430F1
:1011700001F0ECFC064600220421404601F0FCFE92
:10118000052202A9684601F093F99DF80830022B68
:1011900019D19DF80930AB4218D32A464946384642
:1011A00001F086F9002401220421404601F0E4FE0A
:1011B00001F0CCFC801B0F280BD8002CDBD1204683
:1011C00005B0BDE8F0834FF0FF34ECE76FF00104A9
:1011D000E9E76FF00204F2E728D7000800040048AE
:1011E0005405002010B5074C4FF48051204601F003
:1011F000BDFE012804D1002006F076F80028F3D0C7
:1012000010BD00BF0004004810B588B0114B019319
:10121000114B0293114B0593114B124C0493124B3B
:10122000039301A8114B079305F072FF1049204664
:1012300001F012FD0F4A0021204601F007FD0022B7
:101240001146282001F0AEFC282001F0DDFC08B09A
:1012500010BD00BFF90F0008691000085111000807
:10126000CD1000084C05002091100008D92400087A
:101270000C000016E51100082DE9F04F434BA5B016
:1012800006AA03F11006154618685968144603C4E7
:101290000833B3422246F7D13D4B0AAA03F11006A8
:1012A000914618685968144603C40833B34222466D
:1012B000F7D1384B0EAA03F1100693461868596807
:1012C000144603C40833B3422246F7D1324C00948B
:1012D000294609230122022005F022FD2F4D304F1F
:1012E000287000283DD14FF0100A0126CDE903A651
:1012F000CDE901001223DFF8B4800093CDF814800B
:10130000208814234A46022105F046FD2870002853
:1013100038D1DFF89C900190CDE90469CDE9026AEB
:101320000C230093208814235A46022105F034FD33
:101330000446287040BB97F9003073B11949B9F8D9
:101340000030B8F8002012A807F0ACFF12A8FEF792
:101350003FFF81B212A806F077FE204625B0BDE817
:10136000F08F012297F9003053B10F4912A807F00E
:1013700099FF12A8FEF72CFF81B212A806F064FEB6
:101380004724EAE70222EDE70322EBE732D7000821
:1013900042D7000852D700085E0600205D060020F4
:1013A0007506002074D70008B6D70008560600203E
:1013B0005406002010B51F4A1F4C1068516812894E
:1013C00094B009AB03C3002108461A8005F032FE31
:1013D00094F9003053B119490CA807F0F4FF0CA898
:1013E000FEF7F6FE81B20CA806F02EFE09AA002335
:1013F00002920A22CDE90032CDE90533CDE903336B
:101400004FF4805218464FF4006105F0D9FB0C4BA5
:10141000187094F90030024653B10A490CA807F03D
:1014200041FF0CA8FEF7D4FE81B20CA806F00CFE1A
:1014300014B010BD00D8000875060020E5D70008DC
:101440005D06002069D8000810B58AB00B460090F0
:101450000E490F48098800880E4C002205F0FAFC5E
:101460000246207070B10C4B93F9003053B10B4918
:1014700002A807F017FF02A8FEF7AAFE81B202A891
:1014800006F0E2FD20780AB010BD00BF560600202D
:101490005E0600205D060020750600200BD80008BF
:1014A000094B1B880133984202D1104600F0C8BA9C
:1014B000064B1B880233984204D11378012B04BFDA
:1014C000034A1370704700BF5406002056060020E0
:1014D0005C0600201B4BF0B501221A701A4B1980D4
:1014E0001A4B93F9003089B0044643B3184D1421C8
:1014F000284606F0A9FD0028F9D1164FA51D661C47
:1015000015F8012D3946684607F0CCFE6846FEF70F
:101510005FFE81B2684606F097FD0028F6D1AE4224
:10152000EED122780C49684607F0BCFE6846FEF70B
:101530004FFE81B2684606F087FD0028F6D109B05B
:10154000F0BD00BF5306002058060020750600209D
:1015500021D8000836D800083CD800080E4A08B543
:10156000002313700D4A012111700D4A13700D4AAA
:1015700013700D4A13700D4A13700D4A13700D4B02
:1015800093F900301BB10C48152106F05DFDBDE854
:10159000084000F03BB900BF5306002001000020C6
:1015A0005C06002061060020600600205B0600202B
:1015B0005A0600207506002043D80008044B1B88FB
:1015C0000133984202D1104600F03ABA704700BF8A
:1015D000620600200278042A034630D142783E2A6F
:1015E00005D0FF2A0BD0052A29D1FFF7B7BFC27853
:1015F000012A24D1B0F805100930FFF76BBFB0F80D
:10160000032040F601418A4204D040F60F418A424D
:101610000DD070470A4AB0F807001278597A012AAB
:101620000CBF03F10C0203F10A02FFF739BFC179C5
:10163000023900F10A02C9B20089FFF7BFBF704743
:101640000000002030B5624B624C186B9B8E93B04B
:101650004FF4005108906048ADF8243001F086FC4A
:101660005E4B002118705E4805F026FD0DF11E014D
:101670000DF1170005F06AFC05F08AFC642001F00A
:101680006BFA94F9003073B15649BDF81E309DF8DD
:1016900017200AA807F006FE0AA8FEF799FD81B2F6
:1016A0000AA806F0D1FC9DF817304F4D302B88BFAB
:1016B000012308AA4FF006014FF0000088BF2B70ED
:1016C00005F0F8FB024668B194F9003053B1474980
:1016D0000AA807F0E7FD0AA8FEF77AFD81B20AA87A
:1016E00006F0B2FC05F002FB68B194F9003053B18A
:1016F0003F490AA807F067FE0AA8FEF769FD81B214
:101700000AA806F0A1FC2878012807AB0DF11A02FF
:1017100055D1CDE90023002106AB072205F0E4F9FD
:1017200068B194F9003053B132490AA807F04BFE72
:101730000AA8FEF74DFD81B20AA806F085FC2E4BE3
:1017400001200022CDE902301023CDE900321146FC
:10175000072305F08FFA68B994F90030C3B127491F
:101760000AA807F030FE0AA8FEF732FD81B20AA8E7
:1017700006F06AFC94F9003053B121490AA807F039
:1017800022FE0AA8FEF724FD81B20AA806F05CFC3E
:10179000FFF772FD94F90030B0B953B119490AA8A6
:1017A00007F011FE0AA8FEF713FD81B20AA806F0A1
:1017B0004BFC0421012005F0A9FB13B030BD06A9A4
:1017C000012005F0C9F9ABE7002BF2D00E49E6E79E
:1017D00032D700087506002000080048B00100203C
:1017E000D515000859D80008000000206ED8000860
:1017F0008FD80008A3D8000840E20100B6D800083E
:10180000CFD80008EFD800080DD90008054B0648CE
:101810001A6800235363D3631364044A1268D363C2
:1018200003F090BD200800206C080020D4070020A1
:10183000B0F5005F02BF024B01221A70704700BF73
:1018400090060020014B01221A70704764060020A8
:101850002DE9F04786B00646FEF7BAFC1427DFF8FC
:101860007490B0FBF7F8002507FB1804454507FB0B
:1018700005610CDB224607FB086101A807F0BFFDEC
:10188000E1B201A8FFF7E0FD06B0BDE8F087142241
:1018900001A807F0B4FD01F059F98246142101A80E
:1018A000FFF7D2FD28B101F051F9A0EB0A000A2898
:1018B000F4D901F04BF909FB05F38246B3F1333F4C
:1018C00001D90135D2E701F041F9A0EB0A03132B4E
:1018D000F6E700BFCDCCCCCC70B500248CB0474D22
:1018E00007941022214608A806F054FE2B784BB12D
:1018F000FFF760FD42482C704FF4005101F036FBB9
:10190000404B1870404C23781BB3322001F024F96F
:101910003B4E3C4D4FF40051304601F027FB2B78F5
:10192000B3FA83F35B098342F4D0322001F014F957
:10193000364B93F900301BB13548152106F084FB76
:10194000344B1B781BB134481121FFF77DFD002378
:101950002370324E3378002B3FD02E4B1B78002B58
:1019600039D000F0B3FB2E4B10EE100A83ED000AC5
:10197000C3ED010A83ED021A10EE904A11EE105ADF
:10198000FEF7E2FD02460B462846CDE90423FEF7AA
:10199000DBFDCDE902012046FEF7D6FDDDE904239B
:1019A000CDE900011F4907A807F07CFC07A8FEF756
:1019B0000FFCC1B207A8FFF747FD00F0E9FB1A4989
:1019C000024607A807F06EFC07A8FEF701FCC1B2AB
:1019D00007A8FFF739FD002333700C4C94F9003051
:1019E000012B08D10B4B1B782BB110480F21FFF7AF
:1019F0002BFD022323700CB070BD00BF010000203E
:101A000000080048B0010020900600207506002064
:101A10002BD900085306002041D900086406002095
:101A20006806002053D9000865D900086ED900085F
:101A300008B5FFF751FFBDE8084005F035BC0000D0
:101A400030B58FB00021044610220AA8CDE9081154
:101A500006F0A0FD08AB7C490DF11F02204607F0FF
:101A600041FC9DF81F30562B32D84C2B2ED8412BE1
:101A700000F09B80422B33D03F2B00F0CB8073498A
:101A80000B22204607F0A7FC002840F0C7807048D2
:101A900003F01EFC59E06D3B092BF0D801A252F86F
:101AA00023F000BF7D1B00087F1A00087F1A000882
:101AB0007F1A00087F1A00080D1B00087F1A000813
:101AC000051C00087F1A00084F1B00084D3BE3E788
:101AD000762BD4D86C2BDED8612B66D0622BCED17E
:101AE0005C4B089A1B685C491A6409A807F0DAFB8A
:101AF00009A8FEF76DFBC1B209A8FFF7A5FC574B7B
:101B000093F900300BB3089A554914E0514B089AE9
:101B10001B6854495A6309A807F0C4FB09A8FEF7DB
:101B200057FBC1B209A8FFF78FFC4C4B93F900306B
:101B30005BB1089A4C4909A807F0B4FB09A8FEF765
:101B400047FB81B209A806F07FFA0FB030BD414BC8
:101B5000089A1B684549DA6309A807F0A3FB09A89E
:101B6000FEF736FBC1B209A8FFF76EFC3B4B93F9B9
:101B70000030002BE9D0089A3D49DCE73D4B089A3C
:101B80001B683D49DA6309A807F08CFB09A8FEF73A
:101B90001FFBC1B209A8FFF757FC304B93F9003087
:101BA000002BD2D0089A3549C5E700F08FFA344BA4
:101BB00010EE100A83ED000AC3ED010A83ED021A4C
:101BC00010EE904A11EE105AFEF7BEFC02460B468C
:101BD0002846CDE90423FEF7B7FCCDE902012046F3
:101BE000FEF7B2FCDDE90423CDE90001254909A88F
:101BF00007F058FB09A8FEF7EBFAC1B209A8FFF7F6
:101C000023FCA2E700F0C4FA1F49024609A807F026
:101C100049FBEFE71D48FFF71BFE96E71C490A2228
:101C2000204607F0D8FB18B9094803F08BFB8CE776
:101C300018490422204607F0CEFB10B9FFF7E6FD55
:101C400083E715480F21DAE77ED90008DCD90008C0
:101C50006C08002020080020AFD90008750600207D
:101C6000B5D9000883D9000889D9000898D9000897
:101C70009ED90008D4070020C5D90008CDD9000896
:101C80006806002053D9000865D90008020000202A
:101C9000E8D90008F3D90008F8D9000830B53C228B
:101CA0009FB00025044629460DEB020008950E95CD
:101CB00006F070FC102229460AA8099506F06AFC75
:101CC00008AB70490DF11F02204607F00BFB9DF891
:101CD0001F30562B1FD84C2B1BD8412B00F0908067
:101CE000422B61D03F2B1ED1674C2046FEF770FA85
:101CF00081B2204606F0A8F90028F6D13CE06D3B01
:101D0000092B10D8DFE803F0660F0F0F0F1A0FA989
:101D10000F3A4D3BF4E7762B05D86C2BEFD8612BAF
:101D20006ED0622B40D059490322204607F053FB66
:101D3000002840F09A8056480A218BE0554B089ABB
:101D40001B6855495A630EA807F0ACFA0EA8FEF7B7
:101D50003FFA81B20EA806F077F9504B1B785BB1C1
:101D6000089A4F4909A807F09DFA09A8FEF730FA2A
:101D7000C1B209A8FFF768FB1FB030BD454B089AF8
:101D80001B684849DA630EA807F08CFA0EA8FEF724
:101D90001FFA81B20EA806F057F9404B1B78002BB2
:101DA000EAD0089A4049DDE73A4B089A1B683F4958
:101DB0001A640EA807F076FA0EA8FEF709FA81B2A7
:101DC0000EA806F041F9354B1B78002BD4D0089AA9
:101DD0003749C7E7374B089A1B683749DA630EA8BB
:101DE00007F060FA0EA8FEF7F3F981B20EA806F02C
:101DF0002BF92A4B1B78002BBED0089A2F49B1E74C
:101E000000F064F92E4B10EE100A83ED000AC3EDCA
:101E1000010A83ED021A10EE904A11EE105AFEF7F5
:101E200093FB02460B462846CDE90423FEF78CFBC4
:101E3000CDE902012046FEF787FBDDE90423CDE969
:101E4000000120490EA807F02DFA0EA8FEF7C0F9F0
:101E500081B20EA806F0F8F88EE700F099F91A4959
:101E600002460EA807F01EFAEFE7184904222046A2
:101E700007F0B1FA10B9FFF7C9FC7DE714480F214C
:101E8000E8E700BF7ED900080200002077DA0008EA
:101E90007BDA0008200800200CDA00085306002036
:101EA00008DA00081BDA000817DA00082CDA000844
:101EB00028DA0008D40700203CDA000838DA0008E5
:101EC0006806002047DA000865D90008F3D9000841
:101ED000F8D9000838B5154C237803B3144D2B6896
:101EE0001B68012B12D82B681B68012B17D11148D6
:101EF000114A006813680021217004780F480D2CE6
:101F0000C45403F101030BD0136008E000232370D5
:101F1000084B1868FFF7C2FE2378002BE3D138BDC9
:101F2000BDE838401160FFF7B9BE00BF740600205D
:101F3000780600207C0600208C0600208006002009
:101F4000F7B50F4E0F4F8DF807000C46154630467B
:101F50000022202101F010F80DF107010A230122CF
:101F6000384602F0D9FD0A232A462146384602F0B7
:101F7000D3FD01222021304600F0FEFF03B0F0BD6A
:101F800000080048A0060020F7B5134E134F60F07C
:101F90003F0014460D468DF80400002230462021F3
:101FA00000F0EAFF01A90A230122384602F0B4FD3D
:101FB0000A23224601A9384602F0A3FF3046012237
:101FC000202100F0D9FF04F0030201A9284606F001
:101FD000D3FA03B0F0BD00BF00080048A0060020FF
:101FE00013B50C46642201461C4806F0C5FA227857
:101FF000A3780DF107011343202001228DF807304B
:10200000FFF79EFF6378012263F077030DF107016C
:1020100023208DF80730FFF793FFC02301220DF135
:1020200007011F208DF80730FFF78AFF6378202B08
:1020300011D004D843B1102B0AD002B010BD302B00
:10204000FBD1074B074A01E0054B074A1A60F4E74A
:10205000034B064AFAE7024B054AF7E7A0060020C1
:10206000C001002048E13A3F8FC2753D8FC2F53D67
:102070008FC2753E73B50222044601A92820FFF7DE
:1020800083FF9DF805309DF8046001A902222A20F3
:1020900006EB0326FFF778FF9DF805309DF8045006
:1020A000022201A92C2005EB0325FFF76DFF9DF807
:1020B00005209DF8043036B22DB203EB02232046F2
:1020C00026806580A38002B070BD000000B58BB093
:1020D00005A8FFF7CFFF254BDFED257A93ED006ACA
:1020E000BDF914309FED231A06EE903A224BF8EE1C
:1020F000E66A93ED007ABDF9163066EE866AB0EEB8
:10210000670AA6EE870A06EE903A1C4BF8EEE66ADE
:1021100093ED007A1A4B66EE866AF0EE670AE6EEF9
:10212000870A93ED007ABDF9183070EEC70A07EE02
:10213000103A144BB8EEC77AD3ED006A124B27EE73
:10214000067AC0EE810AE7EE267A93ED007A0F4B0D
:1021500077EEC77A93ED007A30EE470A80EE010AF7
:1021600087EE811A0BB05DF804FB00BFC0010020B0
:102170000000000000007A44B4010020B8010020F3
:1021800098060020BC0100209C0600209406002038
:1021900007B5022201A90C20FFF7F6FE9DF9050004
:1021A000193003B05DF804FBF0B514228BB00DEBD1
:1021B0000200002106F0EEF9344B354DDA6C354E55
:1021C00042F00402DA64DA6C02F004020192019A2D
:1021D000DA6C42F08002DA64DA6C02F08002029279
:1021E000029ADA6C42F00102DA64DA6C02F001025F
:1021F0000392039ADA6C42F00202DA64DB6C03F0B9
:1022000002030493284600220421049B00F0B4FE3C
:1022100028460122202100F0AFFE30460022042192
:1022200000F0AAFE00244FF400524FF4041305A955
:102230002846CDE905230127079400F02BFD242330
:1022400005A92846CDE90537CDE9074400F022FD70
:10225000042305A93046CDE90537CDE9074400F050
:1022600019FD4FF488134FF48051CDE90513304622
:1022700005A9079400F00EFD22462146282000F013
:1022800091FC282000F0C0FC0BB0F0BD0010024013
:10229000000800480004004810B596B04422002110
:1022A00005A806F077F914220021684606F072F9B5
:1022B0004FF4007001F09CFB08B172B6FEE70122FA
:1022C0004FF48033CDE9052303240223119210211A
:1022D000072205A8CDE90F34CDE91212CDE9143358
:1022E00001F054FC08B172B6FEE7CDE902000F23FD
:1022F000049021466846CDE9003401F0C7FE08B1DC
:1023000072B6FEE716B010BD07B500F0FDFBFFF793
:10231000C3FFFFF749FF00F047FB00F035F800F07E
:1023200069FA00F0DFFA00F0BDF905F00DFEFFF7E5
:1023300089F90021104803F09FFB0C210E4803F09F
:102340009BFB08210C4803F097FB08210B4803F086
:1023500001FC10238DF8043000238DF80530084867
:10236000072301A98DF80630FFF73AFEFFF760FB5F
:10237000FFF7B0FDFAE700BF20080020D4070020D7
:102380000407002072B6FEE71048114A08B54FF462
:102390008273C0E9002300234FF4E062C0E90232F7
:1023A0004FF400711822C0E906120722C0E9043375
:1023B000C0E90833C0E90B238362436302F042FBA8
:1023C00018B1BDE80840FFF7DDBF08BD04070020D5
:1023D000003C004010B5044688B01422002103A838
:1023E00006F0D8F82268134B9A4220D103F5EA335D
:1023F00003219A6D104842F400429A659A6D02F4E6
:1024000000420192019ADA6C42F00402DA64DB6C59
:1024100003F004030293029B4FF4E0520223CDE940
:1024200003230623CDE9061303A900F033FC08B00B
:1024300010BD00BF003C0040000800480A4B1A6E67
:1024400042F001021A661A6E82B002F00102009296
:10245000009A9A6D42F080529A659B6D03F080530A
:102460000193019B02B0704700100240FEE7FEE7B7
:10247000FEE7FEE7FEE770477047704700F05ABB83
:1024800008B5044800F0EEFBBDE808404FF40050EA
:1024900000F078BD4C050020014802F070BF00BF7D
:1024A0006C080020014800F059BF00BF0021002047
:1024B00007B513464FF4805200920A46014605487C
:1024C00002F0F3FB002814BF6FF00500002003B0FA
:1024D0005DF804FB6C07002000F038BB0F494FF497
:1024E000827208B5C0E9001200224FF4E061C0E931
:1024F00002214FF4007C1821C0E906C10721C0E980
:102500000B12C0E90422C0E9082282620822426359
:1025100002F098FA003818BF012008BD00380040CA
:102520002DE9F041294A2A4D2A4B2B601368591C8A
:1025300088B011601BB1002008B0BDE8F0812846CA
:1025400002F097FD04460028F5D1234B9A6D42F422
:1025500080429A659A6D02F480420192019ADA6C87
:1025600042F00202DA64DB6C059003F0020302938E
:102570004FF0020803270526029B18484FF400532A
:1025800003A9CDE90338CDE9067600F083FB4FF4CB
:1025900080431248079603A9CDE90338CDE90547E2
:1025A00000F078FB0D4807964FF4004303A9CDE9EE
:1025B0000338CDE9054700F06DFB2846FFF78EFF95
:1025C0000028B8D06FF00700B6E700BF680700200A
:1025D0006C07002000380040001002400004004852
:1025E0000120704708B505F09DFF162303604FF0EA
:1025F000FF3008BD08B505F095FF16230360FEE720
:1026000070B50D4614460E46731B9C4201DC2046F5
:1026100070BDAFF3008006F8010BF5E770B50D460D
:1026200014460E46731B9C4201DC204670BD16F812
:10263000010BAFF30080F5E74FF0FF3070474FF428
:1026400000534B6000207047012070470020704706
:102650000B4A116810B5034609B90A4911601068A0
:1026600009490A4C0344091B8B4206D905F05AFF5D
:102670000C2303604FF0FF3010BD1360FCE700BF78
:10268000D007002040280020008001200004000026
:10269000034AD2F8883043F47003C2F88830704798
:1026A00000ED00E01FB51048104A4FF4C853C0E9D0
:1026B000002342F20F730024C3608023CDE901445C
:1026C00003948460836102F071FF08B1FFF75AFE42
:1026D0000548019401A9039403F03EFA08B1FFF7FD
:1026E00051FE04B010BD00BF6C0800200014004073
:1026F0001FB503681A4A93420CD11A4B1A6E42F462
:1027000000621A661B6E03F400630193019B05B01F
:102710005DF804FB144A93420AD1124B9A6D42F0C1
:1027200002029A659B6D03F002030293029BEEE79F
:102730000E4A9342EBD10B4B9A6D42F020029A6500
:102740009B6D002203F02003039311463720039B67
:1027500000F028FA372005B05DF804EB00F054BA19
:10276000002C014000100240000400400014004012
:1027700010B5044688B01422002103A805F00AFF12
:102780002368174A934214D1164B1748DA6C42F06B
:102790000202DA64DB6C03F002030193019B022363
:1027A000CDE903330123079303A900F073FA08B0BE
:1027B00010BD0E4A9342FAD10A4B0D48DA6C42F032
:1027C0000402DA64DB6C03F004030293029B4FF40F
:1027D00050720223CDE90323079303A9E5E700BF65
:1027E000002C01400010024000040048000400409A
:1027F0000008004830B510229BB0002400210DEBEA
:10280000020005F0C7FE1C22214608A8CDE90144BC
:10281000039405F0BFFE2C2221460FA805F0BAFE56
:102820002E4D2F4BAC60C5E9003428464FF6FF73A0
:10283000C5E90334C5E9054402F0B8FE08B1FFF765
:10284000A1FD4FF480532548049304A902F0E0FF52
:1028500008B1FFF797FD214802F0D8FE08B1FFF755
:1028600091FD00241D48039401A9CDE9014403F022
:1028700073F908B1FFF786FD602318480E9408220B
:1028800008A9CDE90834CDE90A44CDE90C4402F0A9
:1028900033FF08B1FFF776FD2A681048D36923F0AB
:1028A0000803D36100234FF40052CDE914230FA98C
:1028B0004FF00072CDE90F33CDE91133CDE9172385
:1028C00013931693199303F08DF908B1FFF75AFD8E
:1028D0000248FFF74DFF1BB030BD00BFD4070020FA
:1028E000002C014010B58EB01022002103A805F085
:1028F00051FE00241C220DEB02002146CDE90044CC
:10290000029405F047FE2648264A84600923C0E960
:10291000002341F6FF03C0E90334846102F046FE60
:1029200008B1FFF72FFD4FF480531D48039303A90F
:1029300002F06EFF08B1FFF725FD194802F066FEB0
:1029400008B1FFF71FFD0024154800946946029462
:1029500003F002F908B1FFF715FD60231048099450
:10296000002207A9CDE907340B9402F0C5FE08B197
:10297000FFF708FD0A48082207A902F0BDFE08B1CA
:10298000FFF700FD06480C2207A902F0B5FE08B1CA
:10299000FFF7F8FC0248FFF7EBFE0EB010BD00BFDA
:1029A00020080020000400400C480D4A08B54FF4F0
:1029B000E133C0E9002300230C22C0E90233C0E95F
:1029C0000523C0E907330361436203F078FB18B1C4
:1029D000BDE80840FFF7D6BC08BD00BFB80800201E
:1029E0000044004010B5AAB004461422002103A8F8
:1029F00005F0D0FD8822002108A805F0CBFD226853
:102A0000174B9A4229D1022308A8089301F018FD18
:102A100008B1FFF7B7FC134B9A6D42F400329A6588
:102A20009A6D02F400320192019ADA6C42F00102CE
:102A3000DA64DB6C03F001030293029B0C22022395
:102A40000021CDE903230323CDE905134FF0904086
:102A5000072303A9079300F01DF92AB010BD00BF9A
:102A60000044004000100240DFF834D0FFF710FEB1
:102A70000C480D490D4A002302E0D458C4500433D9
:102A8000C4188C42F9D30A4A0A4C002301E01360AF
:102A90000432A242FBD305F04BFDFFF735FCFEE705
:102AA000008001200000002030050020DCDF00084D
:102AB000300500203C280020FEE7000038B50F4B11
:102AC0000546187808B9012038BD0D4A4FF47A73CD
:102AD000B3FBF0F31068B0FBF3F000F0A3F804468A
:102AE0000028F0D10F2DEED8024629464FF0FF30D6
:102AF00000F058F8034B20461D60E5E7C8010020B0
:102B0000C4010020CC010020094A136843F48073FB
:102B100010B50320136000F033F80020FFF7CEFF5C
:102B2000044618B9FFF78AFC204610BD0124FBE7D4
:102B300000200240034A044B11681B780B441360C9
:102B4000704700BF3C090020C8010020014B1868F5
:102B5000704700BF3C09002038B50446FFF7F6FF78
:102B6000631C1CBF054B1B78054618BFE418FFF714
:102B7000EDFF431BA342FAD338BD00BFC8010020BC
:102B80000749CA6822F4E0620302120403F4E06316
:102B9000120C134343F0BF6343F40033CB60704720
:102BA00000ED00E0164B30B5DC68C4F30224C4F13C
:102BB0000705231D042D28BF0425062B4FF0FF33E6
:102BC0008CBF033C002403FA05F521EA0501A3406C
:102BD00022EA0302A140002841EA0203ACBF00F14F
:102BE0006040084A4FEA0313B8BF00F00F00DBB2A1
:102BF000AABF00F56140135480F8003330BD00BF18
:102C000000ED00E014ED00E0002808DB012342099C
:102C100000F01F0003FA00F0014B43F82200704758
:102C200000E100E00138B0F1807F0BD24FF0E023EB
:102C3000054A5861F02182F823100020072298618C
:102C40001A6170470120704700ED00E011B9426041
:102C5000084670470121FBE710B101600020704772
:102C6000012070470368012203F01F01C3F30043F2
:102C70008A405B01064910B45C58144205D05A5092
:102C8000436813B15DF8044B18475DF8044B704777
:102C9000140401402DE9F74FDFF8B091694C00238F
:102CA0000A6832FA03F502D103B0BDE8F08F4FF0A5
:102CB000010E0EFA03FE1EEA020200F090804D683B
:102CC00005F003064FEA43084FF0030C771E0CFA99
:102CD00008FC012F6FEA0C0C00F28380876807EA7A
:102CE0000C0ACF6807FA08F747EA0A0787604768BF
:102CF00027EA0E0EC5F300179F4047EA0E0747600C
:102D0000C76807EA0C0E8F6807FA08F747EA0E074C
:102D1000022EC76071D0076806FA08F607EA0C07AA
:102D2000374315F4403F076059D0D9F8606046F04A
:102D30000106C9F86060D9F8606023F0030707F165
:102D4000804706F0010607F58037019603F0030E71
:102D5000019EBE684FEA8E0E4FF00F0C0CFA0EFC6F
:102D6000B0F1904F26EA0C0C5FD0374EB0425ED0E7
:102D700006F58066B0425CD006F58066B0425AD057
:102D800006F58066B04258D006F58066B04256D04F
:102D900006F58066B0420CBF0626072606FA0EF638
:102DA00046EA0C06BE60A668D74315F4801F0CBF28
:102DB0003E401643A660E66815F4001F0CBF3E4077
:102DC0001643E660666815F4003F0CBF3E401643AC
:102DD00066602668ED0354BF3E401643266001330B
:102DE0005EE7032E8CD1C76A27EA0E0EC5F3C00733
:102DF0009F4047EA0E07C7628DE74FEAD30A00EB10
:102E00008A0A03F0070BDAF820704FEA8B0B4FF0B9
:102E10000F0E0EFA0BFE27EA0E0E0F6907FA0BF7DC
:102E200047EA0E07CAF8207075E70026B6E70126C4
:102E3000B4E70226B2E70326B0E70426AEE705268C
:102E4000ACE700BF0004014000040048001002404D
:102E50002DE9F04F424CDFF810B100234FF0010A8A
:102E60004FF00F0831FA03F201D1BDE8F08F0AFAF2
:102E700003F616EA010765D023F0030505F1804546
:102E800005F5803503F0030CAA684FEA8C0C08FAAC
:102E90000CF9B0F1904F09EA020E55D0314A904238
:102EA00054D002F58062904252D002F58062904286
:102EB00050D002F5806290424ED002F5806290427E
:102EC0004CD058450CBF0622072202FA0CF272457C
:102ED00013D1226822EA07022260626822EA07020E
:102EE0006260E26822EA0702E260A26822EA070260
:102EF000A260AA6822EA0902AA60056803275A00AC
:102F000007FA02F223FA07F7154300EB870705607B
:102F100003F00705D7F820C0AD0008FA05F52CEA44
:102F200005053D62856825EA02058560456825EA54
:102F300006054560C56825EA0202C260C26A22EA47
:102F40000606C66201338DE70022BEE70122BCE718
:102F50000222BAE70322B8E70422B6E70522B4E763
:102F600000040140000400480018004803691942A9
:102F700014BF0120002070470AB18161704781624F
:102F800070470000044A5169014208B502D05061FF
:102F9000FEF74EFC08BD00BF00040140F0B504463A
:102FA0008BB060B390F8BD34056803F0FF021BB925
:102FB00080F8BC2405F0DCF8032384F8BD34EB6B07
:102FC000254613F4807355F8100B08BF236103F0F6
:102FD00055F90FCD6E460FC60FCD0FC695E803000D
:102FE00086E803002546271D97E80E0055F8100BCC
:102FF00003F094F8064620B1022384F8BD3401257D
:1030000054E00146206803F03FF93046D4F804C08C
:1030100024264FF0010E0146C2B2944500F1010092
:103020001CD8002324261946D8B2844503F1010395
:1030300022D80FCD6E460FC60FCD0FC695E8030000
:1030400086E8030097E80E00206803F09FF901234B
:103050000546F0B1022284F8BD24D0E706FB024306
:10306000C3E9121183F83DE083F83C20A3F8442023
:1030700083F840105965CFE706FB0042C2E9A21170
:1030800082F87D1282F87C0282F88012C2F89412D3
:10309000CAE784F8380084F8BD34636A012B02D192
:1030A000204600F089FC206803F0B0FC28460BB0F5
:1030B000F0BD10B50446006894F8BC34012B12D062
:1030C000012384F8BC34A36A012B02BF836B43F451
:1030D0008033836303F0CCF8206803F089FC002080
:1030E00084F8BC0410BD0220FCE710B590F8BC24A5
:1030F000012A04460BD0012280F8BC2480F8381045
:10310000006803F065FC002084F8BC0410BD0220B8
:10311000FCE770B501F00F0606EBC60411F0800F56
:1031200005464FEA84044FF024001FD000FB0650F0
:1031300004F13C010124294480F83D40CA604A78EA
:103140000E700B7102B10E81022B04BF00234B7174
:1031500095F8BC34012B12D00123286885F8BC34C3
:1031600003F0C6F9002085F8BC0470BD00FB0650D2
:1031700004F51F710024294480F87D42DEE7022017
:10318000F3E710B5044601F00F0000EBC00311F0A7
:10319000800F4FEA83034FF0240216D002FB004257
:1031A00003F13C010123214482F83D30087094F87A
:1031B000BC34012B12D00123206884F8BC3403F006
:1031C000D5F9002084F8BC0410BD02FB004203F5D1
:1031D0001F710023214482F87D32E7E70220F3E7E4
:1031E00038B501F00F05242404FB050104FB050498
:1031F00001F51F71C4F8943200230068C4F88C22D2
:10320000C4F89C3284F87D3284F87C521DB903F0F6
:1032100003FA002038BD03F0B5FAFAE701F00F0118
:10322000242303FB0100D0F89C02704738B501F05D
:103230000F05242404FB050104FB05043C316365F0
:103240000023E36501230068E26484F83D3084F8DC
:103250003C501DB903F0E0F9002038BD03F092FAAC
:10326000FAE738B5436801F00F059D4204462BD8B4
:1032700011F0800F4FF024001DD000FB054200FB31
:10328000054101233C3182F83D3001238B700D70E4
:1032900094F8BC249A4219D0206884F8BC3403F016
:1032A00043FB25B9206804F2C44103F001FC00206F
:1032B00084F8BC0438BD00FB01431A4603F51F71B6
:1032C000002382F87D32E0E70120F3E70220F1E7F6
:1032D00038B5436801F00F029A4204462AD802EB3F
:1032E000C20311F0800F4FEA83034FF0240018D07F
:1032F00000FB024003F13C010123214480F83D30F2
:1033000000258D700A7094F8BC34012B14D0012371
:10331000206884F8BC3403F032FB84F8BC5428469F
:1033200038BD00FB024003F51F710023214480F8E3
:103330007D32E5E70120F3E70220F1E701F00F031A
:1033400003EBC3030A064FEA83034CBF03F13C01BE
:1033500003F51F710144006803F0C2B92DE9F04F75
:10336000066887B00446304603F08DFB01900028C4
:1033700040F06F81206803F057FB002800F069815E
:10338000D6F808382068C3F30D23C4F8FC3403F0E2
:103390004BFB830748BF2268206842BF536903F094
:1033A0000203536103F040FBC70606F500652CD508
:1033B0002268936923F010039361D6F82080C8F344
:1033C0004343022B08F00F0740F0468147F6F073A5
:1033D00018EA030F14D0242303FB0747C8F30A1984
:1033E000D7F88C124A46304603F07EFAD7F88C3272
:1033F0004B44C7F88C32D7F89C324B44C7F89C3208
:103400002268936943F010039361206803F00CFB7A
:10341000000300F13381206803F006FB41030CD563
:10342000206803F00DFB2746029006F5106A4FF066
:103430000009029B002B40F0A381206803F0F4FAFE
:10344000002813DA6B6823F001036B6094F8F434FE
:10345000012B40F02A82002184F8F414204605F064
:1034600029F82268536903F000435361206803F090
:10347000DBFA00050AD5AB68D90702D5204604F06F
:1034800015FF2268536903F400635361206803F059
:10349000CBFA020114D523685A6902F000625A611E
:1034A00094F8F424002A40F00482012184F8F414F2
:1034B0005B6DC3F38303C4F8F834204604F0FAFFCD
:1034C000206803F0B1FAC30432D56B68206823F09A
:1034D00001036B60102102F007FF06F510634FF641
:1034E0007F3162680198824200F2E781EB6943F024
:1034F0000113EB61236B002B00F0F781D5F88430CA
:1035000043F00B03C5F884306B6C43F00B036B6422
:10351000D6F80038206823F4FE63C6F8003804F2B9
:10352000C44103F0C5FA2268536903F48053536120
:10353000206803F079FA870416D5206803F0A7FA0B
:10354000206802F0CBFFE060276800F049FE227B94
:103550000146384602F01CFE204604F094FE226824
:10356000536903F400535361206803F05DFA0007C8
:1035700007D5204604F083FE2268536903F0080350
:103580005361206803F050FA010600F1B981206808
:1035900003F04AFAC2020CD5A04606F512690127CB
:1035A0006368BB4200F2C5812268536903F480134B
:1035B0005361206803F038FA83022DD5D4F804E073
:1035C000234606F5326001218E4520D993F8A4C226
:1035D0000268BCF1010F40F0C281002A80F2BF8175
:1035E000D4F8FC7402F4803207F00107BA4240F0CC
:1035F000B68183F8A3C2B26942F08002B2617269F7
:10360000170600F1AC816B6843F400736B602268AD
:10361000536903F400135361206803F005FA410075
:1036200007D5204604F086FE2268536903F08043E4
:103630005361206803F0F8F942070AD523685D68F2
:103640006B0702D5204604F079FE226853682B43AD
:10365000536007B0BDE8F08F062B7FF4D1AE08228F
:1036600004F2C441304603F03FF9242303FB07472B
:10367000C8F30A18D7F89C324344BFE6206803F029
:10368000D7F906F530678146A3464FF0000AB9F135
:10369000000F3FF4C0AE19F0010F5ED05FFA8AF15F
:1036A0002068029103F0D4F910F0010F02998046CE
:1036B00012D00123BB602368AB4A186C03F530635A
:1036C00003EB4A139042D3F808C053D11CF4004FC7
:1036D0004BD04FF400429A6018F0080F17D008231F
:1036E000BB602368A14A186C03F5306303EB4A13EF
:1036F0009042D3F808C005D91CF4004F1CBF4FF40A
:1037000000429A602046029104F0A2FD029918F04E
:10371000100F1CBF1023BB6018F0020F12D073698A
:103720001A0642BF6B6843F480636B609BF87F327C
:10373000012B05D100238BF87F32204604F0F2FDE7
:103740000223BB6018F0200F1CBF2023BB6018F4BD
:10375000005F1CBF4FF40053BB600AF1010A4FEA3F
:10376000590920370BF1240B91E71CF0200F1CBFE7
:1037700020229A602046029104F070FD0299ABE786
:10378000029BDB0740F188805FFA89FB206859467D
:1037900003F067F910F0010F80460ED06B6B01212A
:1037A00009F00F0201FA02F223EA02036B632046DA
:1037B000CAF80810594604F05AFD18F0080F1CBF4B
:1037C0000823CAF8083018F0100F1CBF1023CAF8DD
:1037D000083018F0400F1CBF4023CAF8083018F01A
:1037E000020F12D04946304602F07EFD97F83F3076
:1037F000012B07D14FF0000387F83F305946204690
:1038000004F094FD0223CAF8083018F0800F43D06A
:10381000FA6D7B6D9A423FD89B1ABA6C216803916E
:10382000934228BF134603339B08049301F51063AA
:1038300003EB49130593059B04989969FA6D7B6D19
:1038400089B2814226D39A420CD3039B09F00F011F
:10385000D3F83428012000FA01F122EA0102C3F86A
:10386000342819E0A3EB0208BB6CF96C0398984567
:1038700028BF984608F103039B0804935A461FFA91
:1038800088F302F06FFFFB6C4344FB64FB6D434421
:10389000FB65D0E79A42D8D2029B5B0809F1010987
:1038A000029324370AF1200AC3E5204604F01AFDEA
:1038B000D7E5204604F0FAFC02E699601A6822F483
:1038C00000121A60C3F80812D3F8002222F4001282
:1038D000C3F80022D3F8002242F00062C3F80022AD
:1038E000019A013201922033FBE56B6943F40053E6
:1038F00043F02B036B612B6943F00B032B6107E64D
:10390000B36923F08003B361012704F27F284FF0ED
:1039100024096368BB427FF63AAE09FB07F318F847
:103920000330012B03D1F9B22046FFF707FD013721
:10393000EFE798F86430D9F80020012B09D1002A6C
:1039400007DA67F07F0188F86330C9B22046FFF7D5
:10395000F5FC013708F1240809F1200920E60131BE
:103960002433203030E600BF0A31544F0A30544F20
:10397000006870B51204446A19B9224382620020BB
:1039800070BD836A4D1E04EB134400235E1CDBB242
:103990009D4205D83F3100EB810022434260EEE7B3
:1039A000403300EB83035B6804EB13443346EDE7DD
:1039B00003680020596270470268002180F8F414FF
:1039C0000123C0F80035936943F000639361536DA0
:1039D00043F0805343F003035365084670470000EB
:1039E000024B186800F4C060704700BF00700040D0
:1039F000174A1368B0F5007F03F4C0631DD1B3F517
:103A0000007F01D100207047136823F4C06343F4A2
:103A1000007313600F4B1B6832214B430E49B3FBFD
:103A2000F1F301335169490500D523B953695B05A9
:103A3000E8D503207047013BF4E7B3F5806F1FBF63
:103A4000136823F4C06343F480631360DAE700BFB4
:103A500000700040C401002040420F00024A536839
:103A600043F48063536070470070004037B51E4DCB
:103A7000AB6DDA00044618D5FFF7B2FFB0F5007F52
:103A800023D1802C29D9A02C8CBF02200120174AD9
:103A9000136823F0070303431360136803F007035D
:103AA000181A18BF012003B030BDAB6D43F080532E
:103AB000AB65AB6D03F080530193019BFFF790FF63
:103AC000AB6D23F08053AB65D8E7802C07D808D0C6
:103AD000A4F1700358425841D9E70020D7E70320EA
:103AE000D5E70220D3E700BF0010024000200240CB
:103AF000224B9A68D96812F00C0205D00C2A15D115
:103B000001F00301012918D119681D48090755BFA3
:103B1000D3F894101968C1F30321C1F3031150F8CD
:103B200021004AB30C2A09D000207047042A22D071
:103B3000082A144818BF002070470020DA6802F0F5
:103B40000302022A15D00F49032A08BF0846D96884
:103B5000DA68C2F306224243D868C0F34160C1F379
:103B60000211013001314000B2FBF1F2B2FBF0F082
:103B700070470548EBE70448704700BF001002405B
:103B8000A0DA000800127A000024F4002DE9F743BF
:103B9000054618B9012003B0BDE8F083924C0368D4
:103BA000A668E768DB0606F00C0607F003073DD5BC
:103BB0001EB10C2E66D1012F64D12368980702D55F
:103BC000AB69002BE6D02368286A190756BFD4F8E2
:103BD000943023681B0903F0F00398423BD9FFF7A8
:103BE00045FF0028D6D1236843F0080323602368EB
:103BF0002A6A23F0F003134323606368EA6923F41D
:103C00007F4343EA02236360FFF772FFA368774AAA
:103C1000C3F30313D35C03F01F03D840744B186045
:103C2000744B1868FEF74AFF0028B4D12B68D807F8
:103C30005FD42B68990700F19E802B68180700F16C
:103C4000DB802B68590700F10181AB6A002B40F043
:103C50006A8100209FE7236843F0080323602368FC
:103C600023F0F003034323606368EA6923F47F438E
:103C700043EA02236360002EC6D1FFF7F7FE002857
:103C8000C2D087E7AB691BB3236843F0010323600D
:103C9000FEF75CFF804623689A0711D5236843F03E
:103CA0000803236023682A6A23F0F0031343236088
:103CB0006368EA6923F47F4343EA02236360B5E75C
:103CC000FEF744FFA0EB08000228E4D9032062E7D6
:103CD000236823F001032360FEF738FF8046236842
:103CE0009B07A3D5FEF732FFA0EB08000228F6D908
:103CF000ECE7082E03D00C2E08D1032F06D1236841
:103D00009A0396D56B68002B93D143E76B68B3F5A4
:103D1000803F10D1236843F480332360FEF716FF01
:103D2000804623689B0384D4FEF710FFA0EB0800B5
:103D30006428F6D9CAE7B3F5A02F04D1236843F469
:103D400080232360E6E7226822F480322260226822
:103D500022F480222260002BE0D1FEF7F7FE80469D
:103D6000236898037FF565AFFEF7F0FEA0EB08002F
:103D70006428F5D9AAE7042E03D00C2E10D1022F07
:103D80000ED12368590503D5EB68002B3FF402AF31
:103D900063682A6923F0F85343EA026363604CE7DF
:103DA000EB687BB1236843F480732360FEF7CEFE9B
:103DB000074623685A05EBD4FEF7C8FEC01B02284D
:103DC000F7D983E7236823F480732360FEF7BEFEF0
:103DD000074623685B057FF530AFFEF7B7FEC01BD3
:103DE0000228F6D972E700BF0010024086DA000808
:103DF000C4010020CC0100206B699BB1D4F8943041
:103E000043F00103C4F89430FEF7A0FE0746D4F84F
:103E100094309A073FF515AFFEF798FEC01B0228B5
:103E2000F5D953E7D4F8943023F00103C4F8943063
:103E3000FEF78CFE0746D4F894309B077FF501AF60
:103E4000FEF784FEC01B0228F5D93FE7A36DDF0013
:103E500029D4A36D43F08053A365A36D03F0805371
:103E60000193019B4FF00108854F3B68D8051DD594
:103E7000AB68012B2BD1D4F8903043F00103C4F888
:103E80009030FEF763FE41F288390746D4F890304F
:103E90009A0742D5B8F1000F3FF4D7AEA36D23F0D7
:103EA0008053A365D1E64FF00008DDE73B6843F49B
:103EB00080733B60FEF74AFE81463B68D905D7D444
:103EC000FEF744FEA0EB09000228F6D9FEE6052B1A
:103ED00006D1D4F8903043F00403C4F89030CAE718
:103EE000D4F8902022F00102C4F89020D4F8902059
:103EF00022F00402C4F89020002BC2D1FEF726FE67
:103F000041F288390746D4F890309B07C2D5FEF7B6
:103F10001DFEC01B4845F6D9D8E6FEF717FEC01BAC
:103F20004845B3D9D2E6022B40F08F80E368EA6AB5
:103F300003F00301914224D1296B03F0700201398F
:103F4000B2EB011F1DD1696B03F4FE42B2EB012FEE
:103F500017D1AA6B073A03F4003118BF012291422E
:103F60000FD1EA6B520803F4C001013AB1EB425F92
:103F700007D12A6C520803F0C063013AB3EB426FD9
:103F80004AD00C2E3FF406AE23685F013FF502AE27
:103F90002368DE003FF5FEAD236823F080732360C5
:103FA000FEF7D4FD0646236898012FD4E268354B0E
:103FB0001340EA6A13436A6B43EA02232A6B013A0D
:103FC00043EA0213AA6B120943EA4243EA6B52081E
:103FD000013A43EA42532A6C5208013A43EA4263E7
:103FE000E360236843F080732360E36843F08073E9
:103FF000E360FEF7ABFD0546236899013FF529AE66
:10400000FEF7A4FD401B0228F6D95FE6FEF79EFDF1
:10401000801B0228C7D959E623689A013FF519AEDB
:10402000236843F080732360E36843F08073E360A8
:10403000FEF78CFD054623689B013FF50AAEFEF7AF
:1040400085FD401B0228F6D940E60C2E3FF4A2ADB8
:10405000236823F080732360FEF778FD054623680C
:1040600013F0007305D1E168074A0A40E260184680
:1040700091E5FEF76BFD401B0228F0D926E600BF54
:10408000007000408C809DF9FCFFEEFE2DE9F041B0
:104090000D46044610B90120BDE8F0814B4A136873
:1040A00003F007038B422CD32068860734D4C10762
:1040B0003FD421688A0768D4444A136803F0070391
:1040C000AB426FD811F0040F414D77D10B0706D5E5
:1040D000AB68226923F4605343EAC203AB60FFF785
:1040E00007FDAB683B4AC3F30313BDE8F041D35C63
:1040F00003F01F03D840384B1860384B1868FEF7A0
:10410000DDBC136823F007030B431360136803F04F
:1041100007038B42BFD1C7E72D4AA668916801F01B
:10412000F0018E4281BF936823F0F0033343936024
:10413000BDE76268264E032A33681AD113F0007F68
:10414000A9D0B36823F003031343B360FEF7FEFC6A
:1041500041F288380746B368626803F00C03B3EB9A
:10416000820FA6D0FEF7F2FCC01B4045F3D9032016
:1041700092E7022A02D113F4003FE1E712B913F0EB
:10418000020FDDE713F4806FDAE7114AA668906842
:1041900000F0F00086423FBF936823F0F003334302
:1041A000936089E7136823F007032B4313601368B8
:1041B00003F00703AB427FF46EAF83E7AB68E268BE
:1041C00023F4E0631343AB6080E700BF00200240AC
:1041D0000010024086DA0008C4010020CC01002053
:1041E000014B1868704700BFC4010020054B064A08
:1041F0009B68C3F30223D35C044A106803F01F03D7
:10420000D84070470010024096DA0008C401002030
:10421000054B064A9B68C3F3C223D35C044A10686B
:1042200003F01F03D84070470010024096DA0008E0
:10423000C4010020F8B5434C0368E26805469007C6
:104240000E4629D0E26802F003029A4278D1002A91
:1042500076D0E3686A68C3F30213013393426FD1E7
:10426000236823F080632360FEF770FC0746236811
:104270001A0130D4AB681F02A6B3012E4DD12A69B2
:1042800021695208531E21F4C00222F4FE423A432F
:1042900042EA4352226130E0022B11D0032B13D0AB
:1042A000012B4DD1226812F0020F49D0E0686A68F4
:1042B00020F07300013A184340EA0210E060CFE7B3
:1042C000226812F4806FF0E722689103EED422682E
:1042D00012F4802FE9E7FEF739FCC01B0228C6D98B
:1042E0000320F8BD2169EB6821F41F3121F44071EE
:1042F0001B09394341EA43412161236843F080634C
:104300002360FEF723FC064623681B0112D52369B0
:10431000AA69134323610020E3E76B6922695B0804
:10432000591E22F0C06323F4FE433B4343EA41633A
:104330002361E2E7FEF70AFC801B0228E4D9CFE7FD
:104340000120CEE700100240F8B53C4C0368E2685B
:10435000054690070E4627D0E26802F003029A4213
:1043600069D1002A67D0E3686A68C3F30213013396
:10437000934260D1236823F080532360FEF7E6FB6D
:10438000074623689A002ED4AB68180296B3636977
:10439000296923F0C063490823F4FE43013903432C
:1043A00043EA4163636130E0022B11D0032B13D049
:1043B000012B40D1226812F0020F3CD0E0686A68FD
:1043C00020F07300013A184340EA0210E060D1E7A0
:1043D000226812F4806FF0E722689103EED422681D
:1043E00012F4802FE9E7FEF7B1FBC01B0228C8D901
:1043F0000320F8BD6269EB6822F41F3222F4407298
:104400001B09024342EA43426261236843F080533E
:104410002360FEF79BFB064623689B0005D5636976
:104420006A69134363610020E3E7FEF78FFB801B9B
:104430000228F1D9DCE70120DBE700BF00100240D1
:104440002DE9F347066816F40066044609D0416E6C
:10445000B1F5000F22D013D831B3B1F5800F2AD0B7
:1044600001262368D80409D5A16EB1F1007F2CD0B4
:1044700026D881B3B1F1807F70D00126354639E06E
:10448000B1F5400FECD13B4A616ED2F8883023F48D
:1044900040030B43C2F888300026E2E7354AD36870
:1044A00043F48033D360EEE70430FFF7C3FE0646E3
:1044B0000028D6D1E7E700212030FFF745FFF6E7D7
:1044C000B1F1407FD9D1354609E02A4AD36843F497
:1044D0008033D360F7E7201DFFF7ACFE0546002DC3
:1044E00042D1244AA16ED2F8883023F040730B43A6
:1044F000C2F888302368990340F15E811D4FBB6D7F
:10450000DA0033D4BB6D43F08053BB65BB6D03F061
:1045100080530193019B4FF00108DFF85C90D9F8BC
:10452000003043F48073C9F80030FEF70FFB824679
:10453000D9F80030DB0521D53DBBD7F8903013F416
:10454000407340F00F81D7F89030D4F8842023F4E2
:1045500040731343C7F89030354616E0002104F14C
:104560002000FFF7F1FEB9E72E46C3E74FF0000841
:10457000D3E700BF0010024000700040FEF7E6FAEB
:10458000A0EB0A000228D3D90325B8F1000F03D00D
:10459000BB6D23F08053BB652368DA0708D59D49BE
:1045A000A06BD1F8882022F003020243C1F88820D2
:1045B0009F0708D59749E06BD1F8882022F00C02BC
:1045C0000243C1F888205E0708D59249206CD1F8D3
:1045D000882022F030020243C1F88820180708D54D
:1045E0008C49606CD1F8882022F0C0020243C1F8E7
:1045F0008820D90608D58749A06CD1F8882022F4F4
:1046000040720243C1F888209A0608D58149E06CBF
:10461000D1F8882022F440620243C1F888209F0527
:1046200008D57C49E06DD1F8882022F4402202436D
:10463000C1F888205E0508D57649206ED1F888201B
:1046400022F440120243C1F88820580608D5714967
:10465000206DD1F8882022F440520243C1F888200E
:10466000190608D56B49606DD1F8882022F44042C4
:104670000243C1F88820DA0508D56649A06DD1F853
:10468000882022F440320243C1F888209B0410D5D0
:10469000604AE16ED2F8883023F040630B43B1F1F9
:1046A000006FC2F8883040F08980D36843F48013EB
:1046B000D36023681F0310D5564A216FD2F8883083
:1046C00023F040630B43B1F1006FC2F8883040F033
:1046D0008180D36843F48013D36023685E030FD5D1
:1046E0004C4A616FD2F8883023F040630B43B1F13C
:1046F000006FC2F8883079D1D36843F48013D36057
:104700002368580412D54349A26FD1F8883023F0AA
:1047100040531343B2F1805FC1F8883071D1022158
:10472000201DFFF787FD002818BF054622681104E9
:1047300008D53849E06FD1F8883023F0804303432F
:10474000C1F88830D30309D5324AD4F88010D2F8A2
:10475000883023F000430B43C2F88830284602B06B
:10476000BDE8F087D4F8842093423FF4ECAED7F84C
:104770009020D7F8903043F48033C7F89030D7F8C2
:10478000903022F4407123F48033D007C7F8903082
:10479000C7F890107FF5D7AEFEF7D8F941F2883907
:1047A0000546D7F8903099073FF5CDAEFEF7CEF924
:1047B000401B4845F5D9E7E63546EDE6B1F1806F97
:1047C0007FF477AF0121201DFFF734FD002818BFCB
:1047D00005466EE7B1F1806F7FF47FAF0121201DA8
:1047E000FFF728FD002818BF054676E7B1F1806F76
:1047F00086D10121201DFFF71DFD002818BF0546A9
:104800007EE7B2F1005F91D1022104F12000FFF7B1
:104810009BFD88E7001002402DE9F74398460023EE
:1048200017468DF8033005460E46FEF78FF9B8445B
:10483000A8EB0004FEF78AF9294BD5F800901B6815
:10484000232253431B0D804663432A6801939368D8
:10485000334001D1184638E0B6F5C06F01BF99F872
:104860000C30DBB28DF803309DF803307B1CEED0AA
:10487000FEF76CF9A0EB0800A04229D32B685A6818
:1048800022F0E0025A606A68B2F5827F0AD1AA6813
:10489000B2F5004F02D0B2F5806F03D11A6822F052
:1048A00040021A60AA6AB2F5005F07D11A6822F4C2
:1048B00000521A601A6842F400521A60012385F807
:1048C0005D30002385F85C30032003B0BDE8F08341
:1048D000019B002B019B08BF0024013BB5E700BFF3
:1048E000C4010020F7B50E4617460546FEF72EF91F
:1048F00037443C1AFEF72AF9224B1B68C3F3CB332B
:10490000074663432A680193936813F0800301D13B
:1049100018462DE0731CF7D0FEF718F9C01BA04213
:1049200028D32B685A6822F0E0025A606A68B2F510
:10493000827F0AD1AA68B2F5004F02D0B2F5806F2B
:1049400003D11A6822F040021A60AA6AB2F5005F29
:1049500007D11A6822F400521A601A6842F4005211
:104960001A60012385F85D30002385F85C30032050
:1049700003B0F0BD019B002B019B08BF0024013B4D
:10498000C0E700BFC401002013464268B2F5827F31
:1049900073B504460E460BD18268B2F5004F02D0C3
:1049A000B2F5806F04D12068026822F040020260F4
:1049B0001A46314620460193FFF794FF019B0546B6
:1049C00028B1236E43F020032366032512E06268BA
:1049D000B2F5827F0ED1A268B2F5004F02D0B2F5D7
:1049E000806F07D132464FF4C0612046FFF714FFB5
:1049F0000028E6D1284602B070BD37B513460192B3
:104A00000D460A464FF4C0510446FFF705FF019BCF
:104A100028B1236E43F020032366032010E01A46DA
:104A2000294620460193FFF75DFF019B0028F0D146
:104A30002A464FF4C0612046FFF7EEFE0028E8D179
:104A400003B030BD70B5044600285FD0436A002B28
:104A500058D14268B2F5827F00D0C3610023A362BF
:104A600094F85D3003F0FF0223B984F85C202046FF
:104A7000FDF7B0FC2568E168022384F85D302B68FF
:104A8000B1F5E06F23F040032B604FF000033FD8F7
:104A90004FF4805000D0A3626368A668A26906F450
:104AA000044603F482733343266906F00206334357
:104AB000666906F00106334302F400763343E66983
:104AC00006F038063343266A06F080063343A66AAA
:104AD00006F4005633432B60666B636A06F00806E3
:104AE00003F01003334301F47061120C194302F018
:104AF00004020A431043686001230020206684F802
:104B00005D3070BD0023C0E90433A7E70120F8E75A
:104B10001846B1F5706FBDE72DE9F7431F4690F8D1
:104B20005C30012B04460D46904600F0BC8001230A
:104B300080F85C30FEF70AF894F85D30012B81466E
:104B4000D8B240F0AE80002D63D0B8F1000F60D035
:104B5000032384F85D3000232366C4E91333A4F8EB
:104B60003E802364A4F84430A4F84630A368266845
:104B7000A563B3F5004FA4F83C8007D1336823F058
:104B800040033360336843F4804333603368E26842
:104B90005B065EBF336843F040033360B2F5E06FFD
:104BA000636842D913B1B8F1010F07D135F8023B60
:104BB000F360A563E38F013B9BB2E387E38F9BB276
:104BC000A3B94A4639462046FFF717FF002865D1AA
:104BD000A36833B901932368DA6801929B68019353
:104BE000019B206E003818BF012012E022689368F4
:104BF0009D0705D5A36B33F8021BD160A363D9E7EA
:104C0000FDF7A4FFA0EB0900B8420BD3781CD5D068
:104C10000320012384F85D30002384F85C3003B066
:104C2000BDE8F083002FC9D1F2E713B1B8F1010F4D
:104C300013D1E38F9BB2012B06D935F8023BF36009
:104C4000A563E38F023B06E02B783373A36B01333C
:104C5000A363E38F013B9BB2E387E38F9BB2002BFF
:104C6000AFD02268936899070CD5E18FA36B89B206
:104C7000012904D933F8021BD160A363E1E71B7853
:104C80001373E3E7FDF762FFA0EB0900B84202D31C
:104C90007B1CE2D0BCE7002FDFD1B9E720232366DD
:104CA00096E70220B5E70220B9E72DE9F8431F4651
:104CB00090F85C30DDF82080012B04460D46164646
:104CC00000F01D81012380F85C30FDF73FFF94F870
:104CD0005D206368012A8146D1B20AD0B3F5827F94
:104CE00040F00B81A268002A40F00781042940F0BF
:104CF0000481002D47D0002E45D0002F43D094F8DA
:104D00005D20E1682664042A1CBF052284F85D202A
:104D10002668A4F8447000222266B1F5E06FA4F87A
:104D20004670E787C4E91322A5637268A78701D894
:104D3000012F2AD022F480527260326850065EBF82
:104D4000326842F040023260B1F5E06F58D90BB1E1
:104D5000012F07D135F8023BF360E38FA563013BD8
:104D60009BB2E3870125E38F9BB28BB9B4F8463041
:104D70009BB26BB94A4641462046FFF73EFE0028EB
:104D800036D020232366012032E042F48052D3E75C
:104D900021688B689A070DD5E38F9BB253B14DB153
:104DA000A36B33F8022BCA60A363E38F013B9BB272
:104DB000E38700258A6812F001020FD0B4F846306C
:104DC0009BB25BB1236CC96823F8021B2364B4F85F
:104DD0004630013B9BB2A4F846301546FDF7B6FEBF
:104DE000A0EB09004045BED3B8F1FF3FBBD0032084
:104DF000012384F85D30002384F85C30BDE8F8833B
:104E00000BB1012F0BD1E38F9BB2012B09D935F8E0
:104E1000023BF360E38FA563023B9BB2E38701256E
:104E200049E02B783373A36B0133A363E38F013B1A
:104E3000F3E7226893689B0711D5E38F9BB273B1A8
:104E40006DB1E18FA36B89B201293ED933F8021B02
:104E5000D160A363E38F023B9BB2E3870025226806
:104E6000936813F001031DD0B4F8461089B2C9B19C
:104E7000B4F84600216C80B201282ED9D06821F800
:104E8000020B2164B4F84610023989B2A4F8461026
:104E9000B4F8461089B2012903D8516841F4805111
:104EA00051601D46FDF752FEA0EB0900404520D39E
:104EB000B8F1FF3F9BD1E38F9BB2002BB9D1B4F87F
:104EC00046309BB2002BB4D154E71B781373A36B0D
:104ED0000133A363E38F013BBEE7127B0A70226CB0
:104EE00001322264B4F84620013A92B2A4F8462076
:104EF000D7E7B8F1000FDED179E7022078E702208A
:104F00007CE72DE9F7431E464368B3F5827F0446EC
:104F1000894617460CD1836853B9042380F85D3065
:104F2000134600960A46FFF7C0FE03B0BDE8F083C3
:104F300094F85C30012B00F09A80012384F85C30F7
:104F4000FDF704FE94F85D30012B8046D8B240F0A6
:104F50008C80B9F1000F6FD0002F6DD00025042395
:104F600084F85D30C4E913552566A563A4F846703E
:104F7000A587E5872568E2686B68C4F84090B2F5BC
:104F8000E06F8CBF23F4805343F48053A4F8447043
:104F90006B60A368B3F5004F07D12B6823F0400383
:104FA0002B602B6823F480432B602B685F065EBF69
:104FB0002B6843F040032B60B2F5E06F23D9B4F8BF
:104FC00046309BB223B323689A68D2073ED5DA688D
:104FD000236C23F8022B2364B4F84630013B9BB2C8
:104FE000A4F84630EBE723689A68D0071BD5226CFB
:104FF0001B7B1370236C01332364B4F84630013BF0
:105000009BB2A4F84630B4F846309BB2002BEAD1EC
:10501000424631462046FFF7B7FC18BB206E0038E9
:1050200018BF012008E0FDF791FDA0EB0800B04299
:1050300009D3711CE7D00320012384F85D300023DD
:1050400084F85C3071E7002EDDD1F4E7FDF77EFDDA
:10505000A0EB0800B04202D3731CB0D0EBE7002EE7
:10506000ADD1E8E720232366D8E70220E4E7022059
:105070005BE790F85D007047036A23F00103036269
:10508000036A70B5446882690D6822F4803222F0A8
:1050900073022A438D6823F002032B431B4DA84261
:1050A0000FD005F50065A8420BD005F54065A84274
:1050B00007D005F58065A84203D005F58065A842B4
:1050C0001ED1CD6823F008032B43104DA84223F0D6
:1050D00004030FD005F50065A8420BD005F5406527
:1050E000A84207D005F58065A84203D005F5806584
:1050F000A84205D124F44075D1E9054634432C4338
:10510000446082614A684263036270BD002C0140C2
:10511000036A23F480730362036A70B54468C2694A
:105120000D6822F4803222F073022A438D6823F442
:10513000007343EA0523164DA84203D005F5006528
:10514000A8420DD1CD6823F4006343EA0523104D36
:10515000A84223F480630ED005F50065A8420AD06A
:105160000C4DA84207D005F58065A84203D005F58F
:105170008065A84206D124F44055D1E90546344360
:1051800045EA04144460C2614A68C263036270BDA8
:10519000002C014000400140036A23F48053036265
:1051A000036A30B54468C2690D6822F0807222F447
:1051B000E64242EA05228D6823F4005343EA0533B0
:1051C0000E4DA8420FD005F50065A8420BD005F59D
:1051D0004065A84207D005F58065A84203D005F5D3
:1051E0008065A84204D14D6924F4804444EA8514C2
:1051F0004460C2614A680264036230BD002C014011
:10520000036A23F480330362036A30B54468426D55
:105210000D6822F4803222F070022A438D6823F454
:10522000003343EA05430F4DA8420FD005F5006552
:10523000A8420BD005F54065A84207D005F580656A
:10524000A84203D005F58065A84204D14D6924F435
:10525000803444EA0524446042654A6882650362FA
:1052600030BD00BF002C0140036A23F480130362A9
:10527000036A30B54468426D0D6822F0807222F4F2
:10528000E04242EA05228D6823F4001343EA055305
:105290000E4DA8420FD005F50065A8420BD005F5CC
:1052A0004065A84207D005F58065A84203D005F502
:1052B0008065A84204D14D6924F4802444EA852401
:1052C000446042654A68C265036230BD002C0140FB
:1052D00090F83D30012B2FD1022380F83D30036838
:1052E000DA6842F00102DA60144A934216D0B3F150
:1052F000804F13D0A2F5943293420FD002F5806212
:1053000093420BD002F58062934207D002F59432AB
:10531000934203D002F54062934207D19968084A4C
:105320000A40062A06D0B2F5803F03D01A6842F040
:1053300001021A600020704701207047002C0140D4
:10534000070001000368DA6822F00102DA60196AD6
:1053500041F21112114208D1196A40F2444211423D
:1053600002BF1A6822F001021A60012380F83D3062
:105370000020704770477047704770477047036858
:105380001A69910710B504460FD5DA6892070CD553
:105390006FF002021A61012202779B69990700F0FF
:1053A0008580FFF7E9FF0023237723681A695207F6
:1053B00010D5DA6850070DD56FF004021A61022289
:1053C00022779B6913F4407F204675D0FFF7D4FF06
:1053D0000023237723681A6911070FD5DA681207AB
:1053E0000CD56FF008021A6104222277DB699B0753
:1053F000204667D0FFF7C0FF0023237723681A6990
:10540000D00610D5DA68D1060DD56FF010021A61FA
:1054100008222277DB6913F4407F204658D0FFF73B
:10542000ABFF0023237723681A69D20708D5DA680F
:10543000D00705D56FF001021A612046FCF702FA89
:1054400023681A69110608D5DA68120605D56FF0C7
:1054500080021A61204600F008FC23681A69D00512
:1054600008D5DA68110605D56FF480721A612046F6
:1054700000F0FCFB23681A69520608D5DA6850066A
:1054800005D56FF040021A612046FFF777FF2368C9
:105490001A69910622D5DA6892061FD56FF02002AC
:1054A00020461A61BDE8104000F0DEBBFFF763FF45
:1054B0002046FFF762FF76E7FFF75DFF2046FFF724
:1054C0005CFF85E7FFF757FF2046FFF756FF93E79E
:1054D000FFF751FF2046FFF750FFA2E710BD000085
:1054E000304A0368904212D0B0F1804F0FD0A2F53D
:1054F000943290420BD002F58062904207D002F5C0
:105500008062904203D002F59432904219D14A68E9
:1055100023F070031343234A90421DD0B0F1804F13
:105520001AD0A2F59432904216D002F580629042D1
:1055300012D002F5806290420ED002F59432904271
:105540000AD0194A904207D002F58062904203D0F7
:1055500002F58062904203D1CA6823F4407313437A
:105560004A6923F08003134303608B68C3620B68AE
:1055700083620C4B98420FD003F5006398420BD026
:1055800003F54063984207D003F58063984203D047
:1055900003F58063984201D10B69036301234361E2
:1055A000704700BF002C01400040014010B5044688
:1055B00050B390F83D3003F0FF021BB980F83C2057
:1055C000FDF796F80223206884F83D30211DFFF78F
:1055D00087FF012384F84830002084F83E3084F8A7
:1055E0003F3084F8403084F8413084F8423084F809
:1055F000433084F8443084F8453084F8463084F8E9
:10560000473084F83D3010BD0120FCE710B504465A
:1056100050B390F83D3003F0FF021BB980F83C20F6
:10562000FFF7A8FE0223206884F83D30211DFFF714
:1056300057FF012384F84830002084F83E3084F876
:105640003F3084F8403084F8413084F8423084F8A8
:10565000433084F8443084F8453084F8463084F888
:10566000473084F83D3010BD0120FCE7036A23F089
:1056700010030362036A70B5446882690D6822F002
:10568000807222F4E64242EA05228D6823F020036C
:1056900043EA0513164DA84203D005F50065A8425C
:1056A0000DD1CD6823F0800343EA0513104DA842C5
:1056B00023F040030ED005F50065A8420AD00D4D39
:1056C000A84207D005F58065A84203D005F580659E
:1056D000A84206D124F44065D1E90546344345EAA1
:1056E0008404446082614A688263036270BD00BFC3
:1056F000002C01400040014070B590F83C30012B77
:10570000054679D001200C2A85F83C0052D008D8F3
:10571000042A2DD0082A3CD0C2B1002385F83C30A1
:1057200070BD102A57D0142AF7D12868FFF79CFDC6
:105730002B6809695A6D42F400625A655A6D22F469
:1057400080625A655A6D42EA012253E02868FFF7E9
:1057500093FC2B6809699A6942F008029A619A6978
:1057600022F004029A619A690A439A610020D4E700
:105770002868FFF77BFF2B6809699A6942F4006289
:105780009A619A6922F480629A619A6942EA0122D6
:10579000EBE72868FFF7BCFC2B680969DA6942F07F
:1057A0000802DA61DA6922F00402DA61DA690A438E
:1057B000DA61DBE72868FFF7EFFC2B680969DA6933
:1057C00042F40062DA61DA6922F48062DA61DA694D
:1057D00042EA0122ECE72868FFF712FD2B6809690D
:1057E0005A6D42F008025A655A6D22F004025A6559
:1057F0005A6D0A435A65B9E7022091E710B58468EB
:10580000114324F47F4441EA03232343836010BD02
:1058100070B590F83C30012B04464FF0020300F0C5
:105820008F80012280F83D3080F83C200068454B95
:1058300085682B4083600B68602B52D033D8402B97
:1058400067D016D8202B0DD00AD833F0100109D01C
:10585000012384F83D30002384F83C30104670BDAD
:10586000302BF5D1826822F07002134343F0070316
:1058700017E0502BECD14A68CE68016A056A25F022
:1058800001050562836921F00A0123F0F00343EA70
:1058900006130A4383610262836823F0700343F0B6
:1058A0005703836011E0B3F5805F0ED0B3F5005F5E
:1058B0000DD0702BCCD1CB68D1E90121FFF79EFF31
:1058C0002268936843F0770393600022C0E7CB68B7
:1058D000D1E90121FFF792FF2268936843F48043E6
:1058E000F2E74D68CE68016A21F010010162826919
:1058F000036A22F4704223F0A00343EA051342EA4C
:10590000063282610362836823F0700343F0670309
:10591000C7E74A68CE68016A056A25F00105056295
:10592000836921F00A0123F0F00343EA06130A43D6
:1059300083610262836823F0700343F04703B0E79A
:105940001A468BE78800FEFF036A01F01F0110B5BD
:1059500001248C4023EA04030362036A8A401A4349
:10596000026210BD10B5044629B990F83E30012BF3
:1059700027D0012049E0042907D190F83F30012BBE
:10598000F7D1022380F83F301EE008290DD190F8AE
:105990004030013B18BF0123002BEAD108294FF00A
:1059A000020333D184F840300EE00C2902D190F884
:1059B0004130EEE710290CBF90F8423090F84330A8
:1059C000E7E7022380F83E3001222068FFF7BCFFA2
:1059D0002368264A934225D002F50062934221D0E3
:1059E00002F5406293421DD002F58062934219D0C5
:1059F00002F58062934215D0B3F1804F1AD19968B5
:105A00001B4A0A40062A2DD1002010BD0C2902D1C4
:105A100084F84130D8E710290CBF84F8423084F86C
:105A20004330D1E75A6C42F400425A640F4A934221
:105A3000E2D1E4E70F4A9342E1D002F5806293425B
:105A4000DDD002F580629342D9D002F594329342C0
:105A5000D5D002F540629342D1D01A6842F00102DB
:105A60001A60D1E7B2F5803FF7D1CDE7002C0140B5
:105A70000700010000040040FFF774BF036A01F053
:105A80001F0110B504248C4023EA04030362036A57
:105A90008A401A43026210BD10B5044629B990F835
:105AA0004430012B1DD0012010BD042907D190F8EE
:105AB0004530012BF7D1022380F8453014E0082946
:105AC00007D190F84630012BEDD1022380F8463003
:105AD0000AE090F84730012BE5D1022380F84730E7
