:020000040800F2
:1000000000800120192900087D1F0008851F0008B5
:100010008D1F0008951F00089D1F000800000000AC
:10002000000000000000000000000000A51F000804
:10003000B31F000800000000C11F0008CF1F000808
:100040006929000869290008692900086929000848
:100050006929000869290008692900086929000838
:100060006929000869290008692900086929000828
:100070006929000869290008692900086929000818
:100080006929000869290008692900086929000808
:1000900069290008692900086929000869290008F8
:1000A00069290008692900086929000869290008E8
:1000B00069290008692900086929000869290008D8
:1000C00069290008692900086929000869290008C8
:1000D00069290008692900086929000869290008B8
:1000E000DD1F00086929000869290008692900083E
:1000F0006929000869290008692900086929000898
:100100006929000869290008692900086929000887
:10011000692900086929000869290008F91F0008F1
:100120006929000869290008692900086929000867
:100130006929000869290008692900086929000857
:100140006929000869290008692900080D200008AC
:100150006929000869290008692900086929000837
:100160006929000869290008692900086929000827
:1001700069290008692900086929000800000000B1
:08018000692900086929000843
:1001900010B5054C237833B9044B13B10448AFF3C1
:1001A00000800123237010BDEC020020000000003D
:1001B000CC23010808B5034B1BB103490348AFF337
:1001C000008008BD00000000F0020020CC230108E0
:1001D00001F0FF01102A2BDB10F0070F08D010F8F8
:1001E000013B013A8B422DD010F0070F42B3F6D1FC
:1001F000F0B441EA012141EA014122F007047FF015
:1002000000070023F0E80256083C85EA010586EA6B
:10021000010685FA47F5A3FA87F586FA47F6A5FAA7
:1002200087F68EB9EED1F0BC01F0FF0102F00702B3
:1002300032B110F8013B013A83EA010313B1F8D15E
:100240000020704701387047002D06BF354603383F
:10025000073815F0010F07D1013015F4807F02BF78
:10026000013015F4C03F0130F0BC0138704700BFC9
:10027000034613F8012B002AFBD1181A01387047E6
:1002800081F0004102E000BF83F0004330B54FEA47
:1002900041044FEA430594EA050F08BF90EA020FB4
:1002A0001FBF54EA000C55EA020C7FEA645C7FEA47
:1002B000655C00F0E2804FEA5454D4EB5555B8BF6A
:1002C0006D420CDD2C4480EA020281EA030382EADB
:1002D000000083EA010180EA020281EA0303362D6D
:1002E00088BF30BD11F0004F4FEA01314FF4801C40
:1002F0004CEA113102D0404261EB410113F0004F52
:100300004FEA03334CEA133302D0524263EB430308
:1003100094EA050F00F0A780A4F10104D5F1200EA6
:100320000DDB02FA0EFC22FA05F2801841F1000101
:1003300003FA0EF2801843FA05F359410EE0A5F1D5
:1003400020050EF1200E012A03FA0EFC28BF4CF006
:10035000020C43FA05F3C01851EBE37101F00045BC
:1003600007D54FF0000EDCF1000C7EEB00006EEBC9
:100370000101B1F5801F1BD3B1F5001F0CD3490853
:100380005FEA30004FEA3C0C04F101044FEA4452AA
:1003900012F5800F80F09A80BCF1004F08BF5FEA31
:1003A000500C50F1000041EB045141EA050130BD11
:1003B0005FEA4C0C404141EB0101013C28BFB1F523
:1003C000801FE9D291F0000F04BF01460020B1FA6E
:1003D00081F308BF2033A3F10B03B3F120020CDA41
:1003E0000C3208DD02F1140CC2F10C0201FA0CF01F
:1003F00021FA02F10CE002F11402D8BFC2F1200C84
:1004000001FA02F120FA0CFCDCBF41EA0C01904039
:10041000E41AA2BF01EB0451294330BD6FEA040482
:100420001F3C1CDA0C340EDC04F11404C4F120026D
:1004300020FA04F001FA02F340EA030021FA04F37F
:1004400045EA030130BDC4F10C04C4F1200220FAD6
:1004500002F001FA04F340EA0300294630BD21FA14
:1004600004F0294630BD94F0000F83F4801306BFDA
:1004700081F480110134013D4EE77FEA645C18BFCE
:100480007FEA655C29D094EA050F08BF90EA020F65
:1004900005D054EA000C04BF1946104630BD91EA5D
:1004A000030F1EBF0021002030BD5FEA545C05D160
:1004B0004000494128BF41F0004130BD14F580049F
:1004C0003CBF01F5801130BD01F0004545F0FE4113
:1004D00041F470014FF0000030BD7FEA645C1ABF48
:1004E000194610467FEA655C1CBF0B46024650EA7F
:1004F000013406BF52EA033591EA030F41F40021AB
:1005000030BD00BF90F0000F04BF0021704730B530
:100510004FF4806404F132044FF000054FF0000105
:1005200050E700BF90F0000F04BF0021704730B5C6
:100530004FF4806404F1320410F0004548BF40429B
:100540004FF000013EE700BF42004FEAE2014FEAF0
:1005500031014FEA02701FBF12F07F4393F07F4FCB
:1005600081F06051704732F07F4208BF704793F0CE
:100570007F4F04BF41F40021704730B54FF46074E1
:1005800001F0004521F000411CE700BF50EA0102E4
:1005900008BF704730B54FF000050AE050EA01028D
:1005A00008BF704730B511F0004502D5404261EBFD
:1005B00041014FF4806404F132045FEA915C3FF43E
:1005C000D8AE4FF003025FEADC0C18BF03325FEADB
:1005D000DC0C18BF033202EBDC02C2F1200300FA8C
:1005E00003FC20FA02F001FA03FE40EA0E0021FAB1
:1005F00002F11444BDE600BF70B54FF0FF0C4CF49F
:10060000E06C1CEA11541DBF1CEA135594EA0C0F50
:1006100095EA0C0F00F0DEF82C4481EA030621EA8B
:100620004C5123EA4C5350EA013518BF52EA0335C6
:1006300041F4801143F4801338D0A0FB02CE4FF078
:100640000005E1FB02E506F00042E0FB03E54FF0A8
:100650000006E1FB03569CF0000F18BF4EF0010EA0
:10066000A4F1FF04B6F5007F64F5407404D25FEA9C
:100670004E0E6D4146EB060642EAC62141EA55514F
:100680004FEAC52040EA5E504FEACE2EB4F1FD0C91
:1006900088BFBCF5E06F1ED8BEF1004F08BF5FEA0F
:1006A000500E50F1000041EB045170BD06F00046C1
:1006B00046EA010140EA020081EA0301B4EB5C046E
:1006C000C2BFD4EB0C0541EA045170BD41F4801166
:1006D0004FF0000E013C00F3AB8014F1360FDEBF8B
:1006E000002001F0004170BDC4F10004203C35DA67
:1006F0000C341BDC04F11404C4F1200500FA05F3EA
:1007000020FA04F001FA05F240EA020001F000428A
:1007100021F0004110EBD37021FA04F642EB060100
:100720005EEA430E08BF20EAD37070BDC4F10C042A
:10073000C4F1200500FA04F320FA05F001FA04F2EE
:1007400040EA020001F0004110EBD37041F10001DA
:100750005EEA430E08BF20EAD37070BDC4F12005E5
:1007600000FA05F24EEA020E20FA04F301FA05F24D
:1007700043EA020321FA04F001F0004121FA04F2F5
:1007800020EA020000EBD3705EEA430E08BF20EAC5
:10079000D37070BD94F0000F0FD101F000464000FF
:1007A00041EB010111F4801F08BF013CF7D041EA81
:1007B000060195F0000F18BF704703F00046520085
:1007C00043EB030313F4801F08BF013DF7D043EA56
:1007D0000603704794EA0C0F0CEA135518BF95EA0C
:1007E0000C0F0CD050EA410618BF52EA4306D1D193
:1007F00081EA030101F000414FF0000070BD50EAB2
:10080000410606BF1046194652EA430619D094EA3B
:100810000C0F02D150EA013613D195EA0C0F05D125
:1008200052EA03361CBF104619460AD181EA030179
:1008300001F0004141F0FE4141F470014FF0000031
:1008400070BD41F0FE4141F4780170BD70B54FF0CC
:10085000FF0C4CF4E06C1CEA11541DBF1CEA13554C
:1008600094EA0C0F95EA0C0F00F0A7F8A4EB05042E
:1008700081EA030E52EA03354FEA013100F0888025
:100880004FEA03334FF0805545EA131343EA1263EE
:100890004FEA022245EA111545EA10654FEA0026A3
:1008A0000EF000419D4208BF964244F1FD0404F55C
:1008B000407402D25B084FEA3202B61A65EB0305B8
:1008C0005B084FEA32024FF480104FF4002CB6EB75
:1008D000020E75EB030E22BFB61A754640EA0C00F5
:1008E0005B084FEA3202B6EB020E75EB030E22BF35
:1008F000B61A754640EA5C005B084FEA3202B6EB76
:10090000020E75EB030E22BFB61A754640EA9C0034
:100910005B084FEA3202B6EB020E75EB030E22BF04
:10092000B61A754640EADC0055EA060E18D04FEAC2
:10093000051545EA16754FEA06164FEAC30343EA62
:1009400052734FEAC2025FEA1C1CC0D111F4801F2F
:100950000BD141EA00014FF000004FF0004CB6E728
:1009600011F4801F04BF01430020B4F1FD0C88BFC7
:10097000BCF5E06F3FF6AFAEB5EB030C04BFB6EBD2
:10098000020C5FEA500C50F1000041EB045170BDC5
:100990000EF0004E4EEA113114EB5C04C2BFD4EBF2
:1009A0000C0541EA045170BD41F480114FF0000E76
:1009B000013C90E645EA060E8DE60CEA135594EAF2
:1009C0000C0F08BF95EA0C0F3FF43BAF94EA0C0FF5
:1009D0000AD150EA01347FF434AF95EA0C0F7FF46A
:1009E00025AF104619462CE795EA0C0F06D152EABE
:1009F00003353FF4FDAE1046194622E750EA4106A2
:100A000018BF52EA43067FF4C5AE50EA41047FF4B2
:100A10000DAF52EA43057FF4EBAE12E74FF0FF3C17
:100A200006E000BF4FF0010C02E000BF4FF0010CE8
:100A30004DF804CD4FEA410C7FEA6C5C4FEA430C61
:100A400018BF7FEA6C5C1BD001B050EA410C0CBFB0
:100A500052EA430C91EA030F02BF90EA020F002012
:100A6000704710F1000F91EA030F58BF994208BF79
:100A700090422CBFD8176FEAE37040F00100704736
:100A80004FEA410C7FEA6C5C02D150EA013C07D18D
:100A90004FEA430C7FEA6C5CD6D152EA033CD3D0D8
:100AA0005DF8040B704700BF8446104662468C46D2
:100AB0001946634600E000BF01B5FFF7B7FF002805
:100AC00048BF10F1000F01BD4DF808EDFFF7F4FF2E
:100AD0000CBF012000205DF808FB00BF4DF808EDB9
:100AE000FFF7EAFF34BF012000205DF808FB00BFDC
:100AF0004DF808EDFFF7E0FF94BF012000205DF8FE
:100B000008FB00BF4DF808EDFFF7CEFF94BF0120B2
:100B100000205DF808FB00BF4DF808EDFFF7C4FFAB
:100B200034BF012000205DF808FB00BF4FEA410CF4
:100B30007FEA6C5C02D150EA013C0AD14FEA430CD7
:100B40007FEA6C5C02D152EA033C02D14FF0000014
:100B500070474FF0010070474FEA410212F5001252
:100B600015D211D56FF47873B3EB625212D94FEAF4
:100B7000C12343F0004343EA505311F0004F23FADE
:100B800002F018BF404270474FF00000704750EA33
:100B9000013005D111F0004008BF6FF000407047F0
:100BA0004FF00000704700BF4A0011D212F500124A
:100BB00011D20DD56FF47873B3EB62520ED44FEAB5
:100BC000C12343F0004343EA505323FA02F0704735
:100BD0004FF00000704750EA013002D14FF0FF3073
:100BE00070474FF0000070474FEA4102B2F1E04316
:100BF00024BFB3F5001CDCF1FE5C0DD901F0004C04
:100C00004FEAC0024CEA5070B2F1004F40EB830053
:100C100008BF20F00100704711F0804F21D113F17F
:100C20003872BCBF01F00040704741F480114FEAB8
:100C30005252C2F11802C2F1200C10FA0CF320FA41
:100C400002F018BF40F001004FEAC1234FEAD3235E
:100C500003FA0CFC40EA0C0023FA02F34FEA4303C8
:100C6000CCE77FEA625307D150EA01331EBF4FF051
:100C7000FE4040F44000704701F0004040F0FE406C
:100C800040F40000704700BF53B94AB9002908BFBB
:100C900000281CBF4FF0FF314FF0FF3000F0A0B92B
:100CA000ADF1080C6DE904CE00F03CF8DDF804E08D
:100CB000DDE9022304B0704738B500220023044662
:100CC0000D46FFF70BFF28B920462946BDE83840FE
:100CD00000F00AB8204605F1004100F005F8404256
:100CE00061EB410138BD00BFD0B50C4B0022064678
:100CF0000F46FFF781FCFFF757FF0446FFF702FCA2
:100D0000074B0022FFF778FC02460B463046394677
:100D1000FFF7BAFAFFF748FF2146D0BD0000F03DCB
:100D20000000F0412DE9F047089D0C46002B4ED104
:100D300094468C458646B2FA82F262D94AB1C2F133
:100D40002003914020FA03F30CFA02FC194300FA45
:100D500002FE4FEA1C471FFA8CF6B1FBF7F44FEA8C
:100D60001E4307FB141143EA014304FB06F19942B9
:100D70000AD91CEB030304F1FF3080F01281994281
:100D800040F20F81023C6344591A1FFA8EF3B1FB03
:100D9000F7F007FB101143EA014300FB06F69E4201
:100DA0000AD91CEB030300F1FF3180F0FC809E4266
:100DB00040F2F980634402389B1B40EA0440002162
:100DC0001DB1D3400022C5E90032BDE8F0878B4257
:100DD00005D90DB1C5E9000100210846F5E7B3FAD0
:100DE00083F1002946D1A34202D39042C0F0F080A3
:100DF000861A64EB03030120002DE6D0C5E90063E9
:100E0000E3E7002A40F09080A1EB0C044FEA1C4875
:100E10001FFA8CF70121B4FBF8F64FEA1E4308FBDA
:100E2000164443EA044307FB06F0984208D91CEB3A
:100E3000030306F1FF3402D2984200F2CD80264629
:100E40001C1A1FFA8EF3B4FBF8F008FB104443EAB7
:100E5000044300FB07F79F4208D91CEB030300F192
:100E6000FF3402D29F4200F2B0802046DB1B40EAF2
:100E70000640A5E7C1F120068B4022FA06F71F4382
:100E800020FA06FC04FA01F343EA0C03F44000FAEA
:100E900001F8380C4FEA1349B4FBF0FE1FFA87FC47
:100EA00000FB1E4449EA04440EFB0CF9A14502FA7A
:100EB00001F20AD93C190EF1FF3A80F08480A14575
:100EC00040F28180AEF1020E3C44A4EB09041FFA0B
:100ED00083F9B4FBF0F300FB134449EA044403FB39
:100EE0000CFCA44507D93C1903F1FF3067D2A44597
:100EF00065D9023B3C4443EA0E40A0FB0293A4EBBD
:100F00000C049C42CE469C4651D34ED055B1B8EB12
:100F10000E0364EB0C0404FA06F6CB401E43CC40EF
:100F2000C5E90064002150E7C2F1200320FA03F173
:100F30000CFA02FC24FA03F394400C434FEA1C48D9
:100F400000FA02FE1FFA8CF7B3FBF8F008FB103131
:100F5000230C43EA014300FB07F1994208D91CEB3B
:100F6000030300F1FF362CD299422AD90238634498
:100F70005B1AA4B2B3FBF8F108FB113344EA034453
:100F800001FB07F3A34208D91CEB040401F1FF366F
:100F900013D2A34211D902396444E41A41EA004150
:100FA00039E70446F0E6084606E7C845AED2B9EB95
:100FB000020E63EB070C0138A8E73146EDE7034664
:100FC00099E73046D4E7D6467FE7634402384DE7D9
:100FD0000646234608460FE7023E634430E700BF5B
:100FE000704700BF80B588B000AF78601E4BDB6CE7
:100FF0001D4A43F00103D3641B4BDB6C03F0010378
:10100000BB60BB684FF48053FB604FF488133B61B7
:1010100000237B6107F10C031946144801F0B6FE6A
:101020000423FB6001233B6100237B610023BB6140
:1010300007F10C0319460E4801F0A8FE0423FB60DB
:1010400001233B6100237B610023BB6107F10C039B
:101050001946064801F09AFE00F0E2FF03461846E2
:101060002037BD4680BD00BF00100240000400488C
:101070000008004880B500AF4FF48051064802F0E8
:101080002FF80421044802F02BF80421034802F051
:1010900027F80023184680BD0004004800080048D7
:1010A00080B500AF012204210A4802F025F9002290
:1010B0000421094802F020F9052001F0D3FC0122A7
:1010C0000421054802F018F9052001F0CBFC0023AB
:1010D000184680BD000400480008004880B588B06C
:1010E00000AF78600B467B8000237B77FF233B7744
:1010F000254A07F1140392E80300186004331970BD
:1011000000220421214802F0F7F807F10C0107F151
:1011100014030522184600F0B3FF3B7B022B29D1B4
:101120003B7C1B021AB2FB7B1BB213431BB2FB833B
:10113000FB8B002B1ED0FA8B7B889A4201D97B88CF
:10114000FB8300237B7710E007F11B0107F11C03F1
:101150000122184600F094FF7B7F7A681344FA7EE0
:10116000D2B21A707B7F01337B777B7F9BB2FA8B85
:101170009A42E9D801220421044802F0BDF87B7F9D
:1011800018462037BD4680BDE8230108000400480A
:1011900080B588B000AF78600B467B80234A07F1AA
:1011A000100392E8030018600433197001F04EFC3C
:1011B000B8610023FB61002204211D4802F09CF865
:1011C00007F1080107F110030522184600F058FF47
:1011D0003B7A022B0FD17B7A1A467B88934206D842
:1011E0007B881A461349786800F04AFF06E06FF0E2
:1011F0000103FB6102E04FF0FF33FB610122042198
:101200000B4802F079F801F021FC0246BB69D31AC1
:101210000F2B03D96FF00203FB6102E0FB69002B87
:10122000C7DBFB6918462037BD4680BDF0230108A7
:10123000000400481003002080B500AF4FF4805137
:10124000054802F041F80346012B0CBF012300239F
:10125000DBB2184680BD00BF0004004880B588B0EE
:1012600000AF124B7B60124BBB60124B7B61124B89
:101270003B61124BFB60124BFB613B1D184609F0B2
:101280006DFB1049104801F03CFD104A00210E484A
:1012900001F01DFD00220021282001F0E2FC2820A1
:1012A00001F0FBFC00BF2037BD4680BDE50F000804
:1012B0007510000891110008DD100008A110000849
:1012C000C12000080C00001608030020D1120008FD
:1012D00080B500AF05E0002009F0A4FC0346002B18
:1012E00005D1FFF7A9FF0346002BF4D100E000BFB2
:1012F00080BD000090B595B006AF002387F8373069
:10130000394B07F124040FCB84E80F00374B07F16A
:1013100014040FCB84E80F00354B3C1D0FCB84E841
:101320000F0097F83730013387F8373007F1240181
:10133000304B009309230122022008F000FF0346EE
:101340001A462D4B1A702C4B1B78002B42D197F864
:101350003730013387F83730264B188807F11402ED
:10136000264B059301230493102303930023029338
:1013700000230193122300931423022108F068FF35
:1013800003461A461C4B1A701B4B1B78002B23D1AB
:1013900097F83730013387F83730164B18883A1DE5
:1013A000174B059301230493102303930123029306
:1013B000002301930C2300931423022108F048FF1B
:1013C00003461A460C4B1A700B4B1B78002B05D1A9
:1013D000002305E000BF02E000BF00E000BF47239C
:1013E00018463C37BD4690BDF82301080824010883
:1013F000182401081A040020200400201C040020E6
:101400001E04002090B58DB008AF114B3C460FCBA9
:1014100007C423700021002009F082F900230693FD
:101420000023059300230493002303933B46029378
:101430000D2301930023009300234FF480524FF4B7
:101440000061002008F017FD00BF1437BD4690BDB5
:101450002824010880B582B000AF78600B46FB708D
:1014600013463B80786800F0E5FA00BF0837BD46B8
:1014700080BD000080B584B002AF78600B46FB7081
:101480000A4B18880A4B1988FA787B680093134630
:10149000002208F0A8FF03461A46064B1A70054BB7
:1014A0001B7818460837BD4680BD00BF1A040020CF
:1014B0001C0400202004002080B582B000AF034649
:1014C0003A60FB800B467B71FA880E4B1B88013318
:1014D0009A4206D1FA887B7919463868FFF7BAFF35
:1014E0000CE0FA88084B1B8802339A4206D13B680D
:1014F0001B78012B02D1054B01221A7000BF08375F
:10150000BD4680BD1E0400201C04002012040020E3
:10151000F0B599B006AF78600B467B80354B012261
:101520001A70354A7B881380344B93F90030002BB6
:101530005BD0334B5B791E46314B1B791A46304BDF
:10154000DB7819462E4B9B781C462D4B5B781D464D
:101550002B4B1B7807F1080004930395029401912B
:1015600000923346274A40210DF0B0FA07F10803F4
:101570001846FEF77DFE03469AB207F108031146AE
:1015800018460BF0CBFD052001F06CFA7B680533A3
:101590001B781E467B6804331B781A467B6803332E
:1015A0001B7819467B6802331B781C467B68013325
:1015B0001B781D467B681B7807F108000493039590
:1015C00002940191009233460F4A40210DF07EFAB9
:1015D00007F108031846FEF74BFE03469AB207F1DF
:1015E0000803114618460BF099FD00BF4C37BD4665
:1015F000F0BD00BF0F040020100400202D040020C7
:1016000004000020382401087024010880B500AFD0
:10161000104B00221A70104B01221A700F4B00223F
:101620001A700F4B00221A700E4B00221A700E4BCC
:1016300000221A700D4B00221A700D4B93F90030E6
:10164000002B03D015210B480BF068FD00F0E8F8E3
:1016500000BF80BD0F040020000000201204002005
:101660001304002014040020150400201604002098
:101670002D040020A824010880B582B000AF0346E5
:101680003A60FB800B467B71FA88084B1B8801335C
:101690009A4206D1064B1A887B7919463868FFF7BB
:1016A000D9FE00BF0837BD4680BD00BF180400202A
:1016B0001C04002080B58AB000AF78607B687B6234
:1016C0007B6A01333B627B6A1B78042B52D13B6AF5
:1016D0001B78FF2B1FD0FF2B4FDC052B02D03E2B9E
:1016E00003D04AE0FFF792FF47E03B6A02333B61D9
:1016F0003B691B78012B3FD13B690133FB60FB68E1
:101700005A1DFB68B3F801309BB219461046FFF72B
:10171000FFFE00BF30E03B6A0233FB61FB691B88C0
:101720009BB240F60142934204D040F60F429342EE
:101730000ED022E0FB6902337B617B695B8898B243
:101740007B6919797B6907331A46FFF7B5FE10E00C
:10175000FB690233BB61BB69B3F8033098B2BB6964
:101760009B78023BD9B2BB6905331A46FFF784FF69
:1017700000BF02E000BF00E000BF2837BD4680BDCB
:1017800080B586B004AF4FF40051204801F09CFDB5
:1017900003461A461E4B1A7000211E4809F09CF899
:1017A00008F09CFF642001F05DF97A1C1A4B0621B9
:1017B000802008F00DFF184A0621002008F0A3FE43
:1017C00008F09AFCBA1DBB1C01933B1D0093134605
:1017D0000C220021012008F0FEFA012303930F4B95
:1017E000029300230193102300930723002200217A
:1017F000012008F02AFCFFF77DFD0421012008F0FC
:101800003CFF00BF0837BD4680BD00BF0008004850
:101810000A000020B51600080400002040E2010084
:1018200080B500AF0A4B1B6800225A63084B1B6847
:101830000022DA63064B1B6800221A64054B1B6802
:101840000022DA63044805F04EF800BF80BD00BFF7
:10185000B005002064050020FC05002080B483B0A2
:1018600000AF0346FB80FB88B3F5005F02D1044B59
:1018700001221A7000BF0C37BD465DF8047B70472B
:101880002104002080B58CB000AF78607868FEF746
:10189000EFFCB862B96A3A4BA3FB01231A0913465D
:1018A0009B0013449B00CA1A7A62BB6A344AA2FBAB
:1018B00003231B093B620023FB620023FB6240E021
:1018C000FA6A13469B0013449B001A467B689918DA
:1018D00007F10803142218460DF097F901F0B6F845
:1018E0000346FB6106E001F0B1F80246FB69D31A3A
:1018F0000A2B09D807F1080314211846FFF7BAFD8F
:101900000346002BEFD100E000BF01F09FF8034633
:10191000FB61F96A1B4B83FB01235A10CB17D21AC8
:1019200013469B001344CA1A002A07D100BF01F0D6
:101930008DF80246FB69D31A132BF8D9FB6A0133E1
:10194000FB62FA6A3B6A9A42BADBFA6A13469B0068
:1019500013449B001A467B6899187A6A07F10803BA
:1019600018460DF052F97B6ADAB207F10803114606
:101970001846FFF77FFD00BF3037BD4680BD00BF72
:10198000CDCCCCCC6766666680B500AF224B1B78A9
:10199000DBB2002B0DD0FFF735FD1F4B00221A7074
:1019A0004FF400511D4801F08FFC03461A461C4BB2
:1019B0001A701C4B1B78002B2BD0322001F052F8F0
:1019C00000BF4FF40051154801F07EFC03461A4653
:1019D000134B1B78DBB2002B0CBF01230023DBB2BF
:1019E0009A42EED0322001F03DF80F4B93F90030CF
:1019F000002B03D015210D480BF090FB0C4B1B78EE
:101A0000DBB2002B02D00948FFF73CFF054B002258
:101A10001A7000BF80BD00BF000000200008004811
:101A20000A000020210400202D040020C024010809
:101A30000F04002080B582B000AF7860084B93F9A6
:101A40000030002B08D07868FEF712FC03469BB2EA
:101A5000194678680BF062FB00BF0837BD4680BDB1
:101A60002D04002080B500AF0C4B1B78002B13D049
:101A70000B4B1B78DBB2002B0ED00A4B1B681846B1
:101A8000FFF700FF074B1B680122002118460DF0ED
:101A9000B4F8024B00221A7000BF80BD2C04002055
:101AA0000F0400202804002080B500AFFFF76CFF72
:101AB000FFF7D8FF09F08AF800BF80BD80B584B079
:101AC00000AF03463960FB711346BB71FB79FB73B2
:101AD000002220210C4801F00FFC07F10F010A231E
:101AE00001220A4804F0A1F9BB799AB20A233968A5
:101AF000064804F09AF901222021034801F0FCFB7A
:101B000000BF1037BD4680BD0008004830040020EB
:101B100080B584B000AF786039600023FB73642225
:101B200079682A480DF0FBF83B689A78FB7B1343F1
:101B3000DBB2FB733B681A78FB7B1343DBB2FB73AE
:101B400007F10F03012219462020FFF7B7FF0023FA
:101B5000FB733B685A78FB7B1343DBB263F077037C
:101B6000DBB2FB7307F10F03012219462320FFF7B5
:101B7000A5FFC023FB7307F10F03012219461F20A5
:101B8000FFF79CFF3B685B78302B16D0302B18DCBE
:101B9000202B0ED0202B14DC002B02D0102B04D0D5
:101BA0000FE00B4B0B4A1A600BE0094B0A4A1A6014
:101BB00007E0074B094A1A6003E0054B084A1A6020
:101BC00000BF00BF1037BD4680BD00BF30040020FD
:101BD0000C0000208FC2753D8FC2F53D8FC2753E4F
:101BE00048E13A3F80B58AB000AF07F11403002204
:101BF0001A605A609A60DA601A61414BDB6C404AA5
:101C000043F00403D3643E4BDB6C03F004033B61FD
:101C10003B693B4BDB6C3A4A43F08003D364384B5F
:101C2000DB6C03F08003FB60FB68354BDB6C344AF4
:101C300043F00103D364324BDB6C03F00103BB6060
:101C4000BB682F4BDB6C2E4A43F00203D3642C4B52
:101C5000DB6C03F002037B607B68002204212948CF
:101C600001F04AFB01222021264801F045FB002219
:101C70000421254801F040FB4FF400537B614FF4F1
:101C80000413BB610023FB6107F1140319461D48CF
:101C900001F07CF824237B610123BB610023FB61FD
:101CA00000233B6207F114031946164801F06EF851
:101CB00004237B610123BB610023FB6100233B62A2
:101CC00007F114031946104801F060F84FF48053EF
:101CD0007B614FF48813BB610023FB6107F11403A0
:101CE0001946094801F052F800220021282000F08E
:101CF000B8FF282000F0D1FF00BF2837BD4680BDC7
:101D000000100240000800480004004880B582B07E
:101D100000AF00F02BFE00F035F8FFF763FF00F096
:101D20006FFD00F085F800F045FB00F0F7FB00F0D8
:101D300083FC0BF0D7F8FFF723FD00210E4804F0D9
:101D400063FE0C210C4804F05FFE08210A4804F0F1
:101D50005BFE0821094805F0B1FE10233B7100230A
:101D60007B710723BB713B1D19460548FFF7D0FE69
:101D7000FFF79AFEFCE700BFB005002064050020D5
:101D80009404002080B596B000AF07F114034422FC
:101D9000002118460CF031FF3B4600221A605A60C1
:101DA0009A60DA601A614FF4007002F079FC034621
:101DB000002B01D000F035F801237B614FF4803314
:101DC000BB610223FB6303233B6401237B64102379
:101DD000BB640723FB6402233B6502237B6507F199
:101DE0001403184602F0C2FC0346002B01D000F099
:101DF00018F80F233B6003237B600023BB600023A4
:101E0000FB6000233B613B460321184603F08AF840
:101E10000346002B01D000F004F800BF5837BD4640
:101E200080BD80B400AF72B600BF00BFFDE7000008
:101E300080B500AF1B4B1C4A1A601A4B4FF48272DC
:101E40005A60184B00229A60164B4FF4E062DA6039
:101E5000144B00221A61134B00225A61114B4FF4AC
:101E600000729A610F4B1822DA610E4B00221A623F
:101E70000C4B00225A620B4B00229A62094B07223C
:101E8000DA62084B00221A63064B00225A630548A7
:101E900003F028FF0346002B01D0FFF7C2FF00BF6D
:101EA00080BD00BF94040020003C004080B58AB093
:101EB00000AF786007F1140300221A605A609A603C
:101EC000DA601A617B681B68174A934228D1174B66
:101ED0009B6D164A43F400439365144B9B6D03F4CA
:101EE00000433B613B69114BDB6C104A43F0040338
:101EF000D3640E4BDB6C03F00403FB60FB684FF410
:101F0000E0537B610223BB610023FB6103233B623F
:101F100006237B6207F114031946054800F036FFDB
:101F200000BF2837BD4680BD003C00400010024085
:101F30000008004880B483B000AF0F4B1B6E0E4A00
:101F400043F0010313660C4B1B6E03F001037B602F
:101F50007B68094B9B6D084A43F080539365064BA1
:101F60009B6D03F080533B603B6800BF0C37BD4660
:101F70005DF8047B704700BF0010024080B400AFE2
:101F800000BFFDE780B400AF00BFFDE780B400AF45
:101F900000BFFDE780B400AF00BFFDE780B400AF35
:101FA00000BFFDE780B400AF00BFBD465DF8047B15
:101FB000704780B400AF00BFBD465DF8047B70473A
:101FC00080B400AF00BFBD465DF8047B704780B5AC
:101FD00000AF00F027FD00BF80BD000080B500AF5E
:101FE000044800F0A3FE4FF4005001F09DF900BF3B
:101FF00080BD00BF0803002080B500AF024804F098
:1020000009FE00BF80BD00BFFC05002080B500AF09
:10201000024801F0DFFA00BF80BD00BFA01E002013
:1020200080B582B000AF00237B60124B124A1A6069
:10203000124B1B685A1C11490A60002B14D10D4821
:1020400004F088FA0346002B0ED10A4800F082F80B
:102050007B68002B08D1074800F03AF80346002BB4
:1020600002D06FF007037B607B6818460837BD46D7
:1020700080BD00BFF8040020003800405C0500204F
:1020800080B588B002AFF860B9601346FB800023CA
:102090007B61FB884FF480520092BA68F968074868
:1020A00004F039F80346002B02D06FF005037B6182
:1020B0007B6918461837BD4680BD00BFF804002074
:1020C00080B500AF00F0C2FC0346184680BD00009A
:1020D00080B584B000AF78600023FB737B681C4A36
:1020E0001A607B684FF482725A607B6800229A60A3
:1020F0007B684FF4E062DA607B6800221A617B68DB
:1021000000225A617B684FF400729A617B68182242
:10211000DA617B6800221A627B6800225A627B685F
:1021200000229A627B680722DA627B6800221A63C7
:102130007B6808225A63786803F0D4FD0346002BBD
:1021400001D00123FB73FB7B18461037BD4680BDD1
:102150000038004080B58AB000AF7860274B9B6D97
:10216000264A43F480439365244B9B6D03F48043DC
:102170003B613B69214BDB6C204A43F00203D36493
:102180001E4BDB6C03F00203FB60FB684FF4005353
:102190007B610223BB610023FB6103233B620523B8
:1021A0007B6207F114031946154800F0EFFD4FF468
:1021B00080437B610223BB610023FB6103233B62FD
:1021C00005237B6207F1140319460D4800F0DEFD7C
:1021D0004FF400437B610223BB610023FB610323B7
:1021E0003B6205237B6207F114031946044800F0A3
:1021F000CDFD00BF2837BD4680BD00BF00100240A6
:102200000004004880B400AF01231846BD465DF8C5
:10221000047B704780B582B000AF786039600CF005
:1022200051FD034616221A604FF0FF331846083757
:10223000BD4680BD80B582B000AF78604FF0FF3101
:102240007868FFF7E7FF00BFFDE780B586B000AF15
:10225000F860B9607A6000237B610AE0AFF3008028
:102260000146BB685A1CBA60CAB21A707B69013356
:102270007B617A697B689A42F0DB7B681846183785
:10228000BD4680BD80B586B000AFF860B9607A60A9
:1022900000237B6109E0BB685A1CBA601B781846B2
:1022A000AFF300807B6901337B617A697B689A4276
:1022B000F1DB7B6818461837BD4680BD80B483B01B
:1022C00000AF78604FF0FF3318460C37BD465DF81D
:1022D000047B704780B483B000AF786039603B689E
:1022E0004FF400525A60002318460C37BD465DF883
:1022F000047B704780B483B000AF78600123184638
:102300000C37BD465DF8047B704780B485B000AFE4
:10231000F860B9607A60002318461437BD465DF84E
:10232000047B704780B586B000AF7860144A154BC7
:10233000D31A7B617B693B61134B1B68002B02D175
:10234000114B124A1A60104B1A687B6813443A69A1
:102350009A4207D20CF0B6FC03460C221A604FF0EA
:10236000FF3309E0084B1B68FB60074B1A687B686A
:102370001344054A1360FB6818461837BD4680BDF4
:10238000008001200004000060050020F0260020ED
:1023900080B400AF064BD3F88830054A43F470038D
:1023A000C2F8883000BFBD465DF8047B704700BFAF
:1023B00000ED00E080B59AB000AF07F158030022AD
:1023C0001A605A609A60DA6007F14C0300221A60C2
:1023D0005A609A6007F1300300221A605A609A60CE
:1023E000DA601A615A619A613B1D2C22002118465D
:1023F0000CF003FC474B484A1A60464B00225A60D7
:10240000444B00229A60434B4FF6FF72DA60414B17
:1024100000221A613F4B00225A613E4B00229A6112
:102420003C4804F009FA0346002B01D0FFF7F9FC01
:102430004FF48053BB6507F158031946354804F043
:1024400005FE0346002B01D0FFF7EBFC314804F0FA
:1024500079FA0346002B01D0FFF7E3FC0023FB646D
:1024600000233B6500237B6507F14C03194629488F
:1024700005F0DEFB0346002B01D0FFF7D2FC602302
:102480003B6300237B630023BB630023FB630023C8
:102490003B6400237B640023BB6407F13003082204
:1024A00019461C4804F0BEFC0346002B01D0FFF780
:1024B000B8FC184B1B68DA69164B1B6822F008023F
:1024C000DA6100237B600023BB600023FB600023F4
:1024D0003B6100237B614FF40053BB610023FB6130
:1024E00000233B624FF000737B620023BB6200233A
:1024F000FB623B1D1946074805F022FC0346002BF2
:1025000001D0FFF78EFC034800F01CF900BF6837CC
:10251000BD4680BD64050020002C014080B58EB012
:1025200000AF07F1280300221A605A609A60DA604F
:1025300007F11C0300221A605A609A603B46002291
:102540001A605A609A60DA601A615A619A61384B6F
:10255000384A1A60364B09225A60354B00229A607D
:10256000334B41F6FF02DA60314B00221A61304BE7
:1025700000229A612E4804F05FF90346002B01D037
:10258000FFF74FFC4FF48053BB6207F12803194655
:10259000274804F05BFD0346002B01D0FFF741FC08
:1025A000234804F0CFF90346002B01D0FFF739FC94
:1025B0000023FB6100237B6207F11C0319461C48C2
:1025C00005F036FB0346002B01D0FFF72AFC602301
:1025D0003B6000237B600023BB6000233B613B46E4
:1025E00000221946124804F01DFC0346002B01D0BE
:1025F000FFF717FC3B46082219460D4804F012FC71
:102600000346002B01D0FFF70CFC3B460C22194679
:10261000074804F007FC0346002B01D0FFF701FC3C
:10262000034800F08FF800BF3837BD4680BD00BFBB
:10263000B00500200004004080B584B000AF3B1D11
:1026400000221A605A609A60154B164A1A60144BA1
:102650004FF4C8525A60124B00229A60104B42F25B
:102660000F72DA600E4B80229A610D4804F0E4F894
:102670000346002B01D0FFF7D4FB00237B6000232F
:10268000FB603B1D1946064805F0D2FA0346002BB5
:1026900001D0FFF7C6FB00BF1037BD4680BD00BFAD
:1026A000FC0500200014004080B586B000AF7860C3
:1026B0007B681B681F4A93420CD11F4B1B6E1E4A3E
:1026C00043F4006313661C4B1B6E03F400637B61D1
:1026D0007B692AE07B681B68184A93420CD1164B31
:1026E0009B6D154A43F002039365134B9B6D03F0FA
:1026F00002033B613B6918E07B681B68104A934208
:1027000013D10D4B9B6D0C4A43F0200393650A4B8C
:102710009B6D03F02003FB60FB6800220021372043
:1027200000F09FFA372000F0B8FA00BF1837BD4616
:1027300080BD00BF002C014000100240000400409A
:102740000014004080B58AB000AF786007F1140330
:1027500000221A605A609A60DA601A617B681B680E
:10276000224A93421CD1224BDB6C214A43F00203E4
:10277000D3641F4BDB6C03F002033B613B69022314
:102780007B610223BB610023FB6100233B620123C9
:102790007B6207F114031946164800F0F7FA21E0AE
:1027A0007B681B68144A93421CD1114BDB6C104AA6
:1027B00043F00403D3640E4BDB6C03F00403FB60B3
:1027C000FB684FF450737B610223BB610023FB6104
:1027D00000233B6202237B6207F11403194607487A
:1027E00000F0D4FA00BF2837BD4680BD002C014060
:1027F00000100240000400480004004000080048A7
:1028000080B500AF144B154A1A60134B4FF4E132F8
:102810005A60114B00229A600F4B0022DA600E4B77
:1028200000221A610C4B0C225A610B4B00229A6158
:10283000094B0022DA61084B00221A62064B002283
:102840005A62054805F03DFB0346002B01D0FFF717
:10285000E8FA00BF80BD00BF4806002000440040E9
:1028600080B5ACB000AF786007F19C0300221A601D
:102870005A609A60DA601A6107F114038822002115
:1028800018460CF0BAF97B681B68214A93423BD189
:1028900002237B6100233B6507F11403184602F015
:1028A00065FD0346002B01D0FFF7BBFA194B9B6D6A
:1028B000184A43F400339365164B9B6D03F40033C1
:1028C0003B613B69134BDB6C124A43F00103D36459
:1028D000104BDB6C03F00103FB60FB680C23C7F8B3
:1028E0009C300223C7F8A0300023C7F8A43003238C
:1028F000C7F8A8300723C7F8AC3007F19C03194686
:102900004FF0904000F042FA00BFB037BD4680BDA6
:102910000044004000100240DFF834D0FFF738FDDB
:102920000C480D490D4A002302E0D458C45004332A
:10293000C4188C42F9D30A4A0A4C002301E0136000
:102940000432A242FBD30CF0C3F9FFF7DFF9FEE734
:102950000080012000000020EC02002090290108E6
:10296000EC020020F0260020FEE7000080B582B0D7
:1029700000AF0023FB710C4B1B680B4A43F48073C0
:102980001360032000F062F9002000F00FF8034606
:10299000002B02D00123FB7101E0FFF7CBFAFB799A
:1029A00018460837BD4680BD0020024080B584B07F
:1029B00000AF78600023FB73174B1B78002B23D0EC
:1029C000164B1A68144B1B7819464FF47A73B3FBF5
:1029D000F1F3B2FBF3F3184600F06DF90346002B58
:1029E0000FD17B680F2B09D8002279684FF0FF3098
:1029F00000F037F90A4A7B68136007E00123FB7394
:102A000004E00123FB7301E00123FB73FB7B184609
:102A10001037BD4680BD00BF180000201000002008
:102A20001400002080B400AF064B1B781A46064BFA
:102A30001B681344044A136000BFBD465DF8047B65
:102A4000704700BF18000020D006002080B400AFFF
:102A5000034B1B681846BD465DF8047B704700BFFA
:102A6000D006002080B584B000AF7860FFF7EEFF9D
:102A7000B8607B68FB60FB68B3F1FF3F05D00A4B91
:102A80001B781A46FB681344FB6000BFFFF7DEFFAC
:102A90000246BB68D31AFA689A42F7D800BF00BF53
:102AA0001037BD4680BD00BF1800002080B485B03F
:102AB00000AF78607B6803F00703FB600C4BDB68BA
:102AC000BB60BA684FF6FF031340BB60FB681A0295
:102AD000BB68134343F0BF6343F40033BB60044A55
:102AE000BB68D36000BF1437BD465DF8047B7047F8
:102AF00000ED00E080B400AF044BDB681B0A03F07C
:102B000007031846BD465DF8047B704700ED00E002
:102B100080B483B000AF0346FB7197F90730002BF8
:102B20000BDBFB7903F01F02074997F907305B09BC
:102B3000012000FA02F241F8232000BF0C37BD4605
:102B40005DF8047B704700BF00E100E080B483B013
:102B500000AF03463960FB7197F90730002B0ADBA1
:102B60003B68DAB20C4997F907301201D2B20B4434
:102B700083F800230AE03B68DAB20849FB7903F0E6
:102B80000F03043B1201D2B20B441A7600BF0C377C
:102B9000BD465DF8047B704700E100E000ED00E019
:102BA00080B489B000AFF860B9607A60FB6803F068
:102BB0000703FB61FB69C3F10703042B28BF042350
:102BC000BB61FB690433062B02D9FB69033B00E0C0
:102BD00000237B614FF0FF32BB6902FA03F3DA4353
:102BE000BB681A407B699A404FF0FF317B6901FA5C
:102BF00003F3D9437B680B40134318462437BD4683
:102C00005DF8047B7047000080B582B000AF78604B
:102C10007B68013BB3F1807F01D301230FE00A4AB7
:102C20007B68013B53600F214FF0FF30FFF78EFFB1
:102C3000054B00229A60044B07221A6000231846B5
:102C40000837BD4680BD00BF10E000E080B582B00F
:102C500000AF78607868FFF729FF00BF0837BD46EE
:102C600080BD80B586B000AF0346B9607A60FB7363
:102C700000237B61FFF73EFF78617A68B968786965
:102C8000FFF78EFF024697F90F3011461846FFF7FF
:102C90005DFF00BF1837BD4680BD80B582B000AF74
:102CA0000346FB7197F907301846FFF731FF00BF65
:102CB0000837BD4680BD80B582B000AF78607868C7
:102CC000FFF7A2FF034618460837BD4680BD80B413
:102CD00087B000AFF8600B467A60FB720023FB758B
:102CE000FB7A002B03D1FB687A685A6002E001236B
:102CF000FB7500BFFB7D18461C37BD465DF8047BA5
:102D0000704780B483B000AF786039607B68002B77
:102D100001D1012303E07B683A681A60002318465A
:102D20000C37BD465DF8047B7047000080B586B067
:102D300000AF78607B681B681B0C03F001037B61AC
:102D40007B681B6803F01F03012202FA03F33B6157
:102D50007B695A010C4B1344FB60FB681B683A69A2
:102D60001340BB60BB68002B09D0FB683A691A604E
:102D70007B685B68002B02D07B685B68984700BF6C
:102D80001837BD4680BD00BF1404014080B487B031
:102D900000AF7860396000237B617FE13B681A688F
:102DA00001217B6901FA03F31340FB60FB68002BF0
:102DB00000F071813B685B6803F00303012B05D0D1
:102DC0003B685B6803F00303022B30D17B689B6890
:102DD0003B617B695B00032202FA03F3DB433A6940
:102DE00013403B613B68DA687B695B0002FA03F3DE
:102DF0003A6913433B617B683A699A607B685B6818
:102E00003B6101227B6902FA03F3DB433A69134019
:102E10003B613B685B681B0903F001027B6902FAB6
:102E200003F33A6913433B617B683A695A603B6834
:102E30005B6803F00303032B18D17B68DB6A3B61FB
:102E400001227B6902FA03F3DB433A6913403B61D9
:102E50003B685B68DB0803F001027B6902FA03F35D
:102E60003A6913433B617B683A69DA623B685B68A5
:102E700003F00303032B17D07B68DB683B617B699E
:102E80005B00032202FA03F3DB433A6913403B6120
:102E90003B689A687B695B0002FA03F33A69134363
:102EA0003B617B683A69DA603B685B6803F0030367
:102EB000022B23D17B69DA087B68083253F8223071
:102EC0003B617B6903F007039B000F2202FA03F3C7
:102ED000DB433A6913403B613B681A697B6903F045
:102EE00007039B0002FA03F33A6913433B617B69D2
:102EF000DA087B680832396943F822107B681B685E
:102F00003B617B695B00032202FA03F3DB433A690E
:102F100013403B613B685B6803F003027B695B0025
:102F200002FA03F33A6913433B617B683A691A601A
:102F30003B685B6803F44033002B00F0AC805F4BD0
:102F40001B6E5E4A43F0010313665C4B1B6E03F07D
:102F50000103BB60BB685A4A7B699B08023352F885
:102F600023303B617B6903F003039B000F2202FACD
:102F700003F3DB433A6913403B617B68B3F1904F45
:102F800025D07B684F4A93421FD07B684E4A9342BC
:102F900019D07B684D4A934213D07B684C4A9342C8
:102FA0000DD07B684B4A934207D07B684A4A9342D4
:102FB00001D106230CE007230AE0052308E00423DF
:102FC00006E0032304E0022302E0012300E00023E3
:102FD0007A6902F00302920093403A6913433B611D
:102FE00037497B699B0802333A6941F823203B4B00
:102FF0009B683B61FB68DB433A6913403B613B687C
:103000005B6803F48013002B03D03A69FB68134319
:103010003B61324A3B699360304BDB683B61FB6844
:10302000DB433A6913403B613B685B6803F4001380
:10303000002B03D03A69FB6813433B61274A3B6985
:10304000D360264B5B683B61FB68DB433A69134006
:103050003B613B685B6803F40033002B03D03A69A3
:10306000FB6813433B611D4A3B6953601B4B1B6864
:103070003B61FB68DB433A6913403B613B685B683B
:1030800003F48033002B03D03A69FB6813433B61A0
:10309000124A3B6913607B6901337B613B681A68A4
:1030A0007B6922FA03F3002B7FF478AE00BF00BFE8
:1030B0001C37BD465DF8047B704700BF001002401E
:1030C000000001400004004800080048000C0048CF
:1030D0000010004800140048001800480004014097
:1030E00080B487B000AF7860396000237B61CDE0A9
:1030F00001227B6902FA03F33A6813403B613B69A2
:10310000002B00F0C080684A7B699B08023352F8AC
:103110002330FB607B6903F003039B000F2202FA5C
:1031200003F3FA681340FB607B68B3F1904F25D03E
:103130007B685E4A93421FD07B685D4A934219D0F8
:103140007B685C4A934213D07B685B4A93420DD004
:103150007B685A4A934207D07B68594A934201D10F
:1031600006230CE007230AE0052308E0042306E019
:10317000032304E0022302E0012300E000237A6934
:1031800002F0030292009340FA689A4232D14D4B0A
:103190001A683B69DB434B4913400B60494B5A6843
:1031A0003B69DB43474913404B60464BDA683B6958
:1031B000DB4344491340CB60424B9A683B69DB4395
:1031C000404913408B607B6903F003039B000F228F
:1031D00002FA03F3FB60344A7B699B08023352F81E
:1031E0002310FB68DA4330487B699B080A400233AE
:1031F00040F823207B681A687B695B00032101FA91
:1032000003F31A437B681A607B69DA087B6808322B
:1032100053F822107B6903F007039B000F2202FA88
:1032200003F3DB437A69D20819407B68083243F81C
:1032300022107B689A687B695B00032101FA03F323
:10324000DB431A407B689A607B685A6801217B697E
:1032500001FA03F3DB431A407B685A607B68DA6843
:103260007B695B00032101FA03F3DB431A407B68AF
:10327000DA607B68DA6A01217B6901FA03F3DB43D8
:103280001A407B68DA627B6901337B613A687B694B
:1032900022FA03F3002B7FF42BAF00BF00BF1C37D3
:1032A000BD465DF8047B7047000001400004004803
:1032B00000080048000C00480010004800140048B6
:1032C000001800480004014080B485B000AF786069
:1032D0000B467B807B681A697B881340002B02D0E9
:1032E0000123FB7301E00023FB73FB7B18461437BB
:1032F000BD465DF8047B704780B483B000AF786052
:103300000B467B8013467B707B78002B03D07A883A
:103310007B689A6102E07A887B689A6200BF0C370A
:10332000BD465DF8047B704780B582B000AF0346B0
:10333000FB80084B5A69FB881340002B06D0054AD6
:10334000FB885361FB881846FEF788FA00BF0837F0
:10335000BD4680BD0004014080B586B002AF7860F4
:103360007B68002B01D1012301E17B6893F8953440
:10337000DBB2002B06D17B68002283F894247868A6
:103380000AF026F87B68032283F895247B680022E4
:103390009A717B681B68184605F08FFB7B6818687C
:1033A0007B681A7C8DF8002004330ECB05F0ABFA55
:1033B0000346002B05D07B68022283F89524012365
:1033C000D5E07B681B680021184605F087FB0346A3
:1033D000002B05D07B68022283F895240123C6E0E8
:1033E0000023FB734AE0FA7B79681346DB00134441
:1033F0009B000B44153301221A70FA7B796813463F
:10340000DB0013449B000B441433FA7B1A70FA7BE5
:10341000FB7B98B279681346DB0013449B000B4496
:103420002E3302461A80FA7B79681346DB00134478
:103430009B000B44183300221A70FA7B79681346FC
:10344000DB0013449B000B441C3300221A60FA7B00
:1034500079681346DB0013449B000B4420330022A1
:103460001A60FA7B79681346DB0013449B000B4417
:10347000243300221A60FB7B0133FB737B681B79CA
:10348000FA7B9A42AFD30023FB7344E0FA7B79685E
:103490001346DB0013449B000B4403F25523002228
:1034A0001A70FA7B79681346DB0013449B000B44C7
:1034B00003F51573FA7B1A70FA7B79681346DB0003
:1034C00013449B000B4403F5167300221A70FA7B19
:1034D00079681346DB0013449B000B4403F5177314
:1034E00000221A60FA7B79681346DB0013449B00C4
:1034F0000B4403F5187300221A60FA7B79681346AF
:10350000DB0013449B000B4403F5197300221A607F
:10351000FB7B0133FB737B681B79FA7B9A42B5D343
:103520007B6818687B681A7C8DF8002004330ECB0A
:1035300005F020FB0346002B05D07B68022283F8B0
:103540009524012313E07B6800225A747B680122D2
:1035500083F895247B681B7B012B02D1786801F0EE
:103560006DF87B681B68184606F0D7FA00231846EA
:103570001037BD4680BD80B584B000AF78607B68F1
:103580001B68FB607B6893F89434012B01D1022304
:103590001CE07B68012283F894247B685B7B012B11
:1035A00005D1FB689B6B43F48032FB689A637B68B0
:1035B0001B68184605F070FA7B681B68184606F011
:1035C0008BFA7B68002283F8942400231846103776
:1035D000BD4680BD90B58DB000AF78607B681B683C
:1035E0003B623B6AFB617B681B68184606F049FB3F
:1035F0000346002B40F081847B681B68184606F068
:10360000ADFA0346002B00F07784FB6903F50063F5
:103610009B681B0AC3F30D027B68C3F8D4247B6844
:103620001B68184606F09AFA034603F00203022BC1
:1036300007D17B681B685A697B681B6802F002022D
:103640005A617B681B68184606F088FA034603F047
:103650001003102B61D17B681B689A697B681B681B
:1036600022F010029A613B6A1B6ABB61BB6903F0DE
:103670000F021346DB0013449B0003F514737A68B2
:10368000134404337B61BB695B0C03F00F03022B13
:1036900024D1BA6947F6F0731340002B35D07B690B
:1036A000D968BB691B099BB2C3F30A039BB21A46D4
:1036B000386A06F0BFF87B69DA68BB691B09C3F397
:1036C0000A031A447B69DA607B695A69BB691B0982
:1036D000C3F30A031A447B695A6116E0BB695B0CA9
:1036E00003F00F03062B10D17B6803F29C430822E2
:1036F0001946386A06F09EF87B695A69BB691B094E
:10370000C3F30A031A447B695A617B681B689A6990
:103710007B681B6842F010029A617B681B68184640
:1037200006F01CFA034603F40023B3F5002F40F023
:10373000A78000237B627B681B68184606F021FA8D
:10374000B86299E0BB6A03F00103002B00F08E80A1
:103750007B681B687A6AD2B21146184606F045FAB1
:1037600038613B6903F00103002B0CD07B6A5A01DE
:10377000FB69134403F530631A4601239360796AA9
:10378000786800F081FE3B6903F00803002B0CD041
:103790007B6A5A01FB69134403F530631A46082318
:1037A0009360796A786800F0BDFE3B6903F010030E
:1037B000002B08D07B6A5A01FB69134403F5306380
:1037C0001A46102393603B6903F00203002B30D0AC
:1037D0003B6A5B6903F08003802B09D1FB6903F529
:1037E00000635B68FA6902F5006243F4806353602A
:1037F0007A6A1346DB0013449B0003F514737A685E
:10380000134404337B617B69DB78012B08D17B692E
:103810000022DA707B6ADBB21946786809F038FF5B
:103820007B6A5A01FB69134403F530631A4602238D
:1038300093603B6903F02003002B08D07B6A5A0198
:10384000FB69134403F530631A46202393603B69F8
:1038500003F40053002B09D07B6A5A01FB6913441F
:1038600003F530631A464FF4005393607B6A0133CB
:103870007B62BB6A5B08BB62BB6A002B7FF462AFF2
:103880007B681B68184606F069F9034603F4802339
:10389000B3F5802F40F0A4807B681B68184606F0C3
:1038A0008AF9B86200237B6296E0BB6A03F00103E9
:1038B000002B00F08B807B681B687A6AD2B21146BD
:1038C000184606F0B0F938613B6903F00103002B9C
:1038D00020D07B6A03F00F03012202FA03F3FB609E
:1038E000FB6903F500635A6BFB68DB43F96901F57B
:1038F000006113404B637B6A5A01FB69134403F573
:1039000010631A46012393607B6ADBB2194678681C
:1039100009F01DFE3B6903F00803002B08D07B6A09
:103920005A01FB69134403F510631A460823936098
:103930003B6903F01003002B08D07B6A5A01FB6936
:10394000134403F510631A46102393603B6903F098
:103950004003002B08D07B6A5A01FB69134403F52E
:1039600010631A46402393603B6903F00203002B67
:1039700023D0796A386A05F045FA7A6A1346DB0083
:1039800013449B0010337A68134404337B617B69D2
:10399000DB78012B08D17B690022DA707B6ADBB20D
:1039A0001946786809F086FE7B6A5A01FB69134460
:1039B00003F510631A46022393603B6903F080030A
:1039C000002B03D0796A786800F0D6FC7B6A01335B
:1039D0007B62BB6A5B08BB62BB6A002B7FF465AF8E
:1039E0007B681B68184606F0B9F8034603F00043ED
:1039F000B3F1004F22D1FB6903F500635B68FA69FC
:103A000002F5006223F0010353607B6893F8CC3425
:103A1000012B08D17B68002283F8CC240021786830
:103A20000AF0BAF802E0786809F004FE7B681B68C7
:103A30005A697B681B6802F000425A617B681B6808
:103A4000184606F08BF8034603F40063B3F5006FE5
:103A500012D1FB6903F500639B6803F00103012B9E
:103A600002D1786809F0BAFD7B681B685A697B68E7
:103A70001B6802F400625A617B681B68184606F0F6
:103A80006DF8034603F00063B3F1006F21D17B684A
:103A90001B685A697B681B6802F000625A617B6888
:103AA00093F8CC34002B11D17B68012283F8CC240D
:103AB0007B681B685B6D9B0803F00F027B68C3F893
:103AC000D024012178680AF067F802E0786809F0EC
:103AD00085FD7B681B68184606F040F8034603F432
:103AE0008053B3F5805F40F0B680FB6903F5006357
:103AF0005B68FA6902F5006223F0010353607B689A
:103B00001B681021184605F07DF90023FB6246E092
:103B1000FB6A5A01FB69134403F510631A464FF61A
:103B20007F339360FB6A5A01FB69134403F510630A
:103B30001B68FA6A5101FA690A4402F5106223F41B
:103B400000131360FB6A5A01FB69134403F53063E9
:103B50001A464FF67F339360FB6A5A01FB691344A0
:103B600003F530631B68FA6A5101FA690A4402F5E9
:103B7000306223F400131360FB6A5A01FB6913449B
:103B800003F530631B68FA6A5101FA690A4402F5C9
:103B9000306243F000631360FB6A0133FB627B68B1
:103BA0001B791A46FB6A9342B2D3FB6903F50063A3
:103BB000DB69FA6902F5006243F00113D3617B68A7
:103BC000DB7B002B16D0FB6903F50063D3F8843050
:103BD000FA6902F5006243F00B03C2F88430FB6916
:103BE00003F500635B6CFA6902F5006243F00B03B6
:103BF000536415E0FB6903F500635B69FA6902F53C
:103C0000006243F4005343F02B035361FB6903F557
:103C100000631B69FA6902F5006243F00B0313614C
:103C2000FB6903F500631B68FA6902F5006223F47F
:103C3000FE6313607B681A687B6803F29C43194635
:103C4000104606F04FF87B681B685A697B681B6852
:103C500002F480525A617B681B68184605F07EFFAB
:103C6000034603F40053B3F5005F23D17B681B6860
:103C7000184606F014F87B681B68184605F03BF9F7
:103C800003461A467B68DA717B681C6801F0D6FA35
:103C900001467B68DB791A46204604F061FE7868AD
:103CA00009F07DFC7B681B685A697B681B6802F41D
:103CB00000525A617B681B68184605F04FFF0346A7
:103CC00003F00803082B0AD1786809F05AFC7B68D6
:103CD0001B685A697B681B6802F008025A617B689E
:103CE0001B68184605F03AFF034603F08003802B5B
:103CF00023D13B6A9B6923F080023B6A9A610123CE
:103D00007B6214E079687A6A1346DB0013449B00F7
:103D10000B4403F257231B78012B05D17B6ADBB2DE
:103D20001946786800F0F7FA7B6A01337B627B689A
:103D30001B791A467B6A9342E4D37B681B6818465A
:103D400005F00CFF034603F48013B3F5801F3CD14C
:103D500001237B622BE07B6A5A01FB69134403F564
:103D600010631B68BB6179687A6A1346DB001344F1
:103D70009B000B4418331B78012B15D1BB69002B1A
:103D800012DA79687A6A1346DB0013449B000B440D
:103D9000173301221A707B6ADBB263F07F03DBB258
:103DA0001946786800F0B7FA7B6A01337B627B685A
:103DB0001B791A467B6A9342CDD37B681B685A698C
:103DC0007B681B6802F480125A617B681B68184686
:103DD00005F0C4FE034603F40013B3F5001F56D1EB
:103DE00001237B6245E07B6A5A01FB69134403F5BA
:103DF00030631B68BB6179687A6A1346DB00134441
:103E00009B000B4403F516731B78012B2ED1BB6965
:103E1000002B2BDABB6903F480327B68D3F8D434EF
:103E200003F001039A4221D179687A6A1346DB00D4
:103E300013449B000B4403F2572301221A703B6A80
:103E40009B6943F080023B6A9A613B6A5B6903F0BD
:103E50008003002B0AD1FB6903F500635B68FA69F4
:103E600002F5006243F40073536008E07B6A01339B
:103E70007B627B681B791A467B6A9342B3D37B686B
:103E80001B685A697B681B6802F400125A617B68E0
:103E90001B68184605F062FE034603F08043B3F149
:103EA000804F0AD1786809F017FC7B681B685A6953
:103EB0007B681B6802F080425A617B681B68184669
:103EC00005F04CFE034603F00403042B15D17B6878
:103ED0001B685B68BB61BB6903F00403002B02D065
:103EE000786809F007FC7B681B6859687B681B6869
:103EF000BA690A435A6000E000BF3437BD4690BD3E
:103F000080B582B000AF78600B46FB707B6893F899
:103F10009434012B01D1022312E07B68012283F843
:103F200094247B68FA785A747B681B68FA78114687
:103F3000184605F0ABFD7B68002283F8942400232B
:103F400018460837BD4680BD80B584B000AF7860A4
:103F5000084611461A460346FB700B463B80134643
:103F6000BB700023FB7297F90330002B0FDAFB784C
:103F700003F00F021346DB0013449B0010337A68F2
:103F800013440433FB60FB6801225A700FE0FB7896
:103F900003F00F021346DB0013449B0003F5147378
:103FA0007A6813440433FB60FB6800225A70FB7884
:103FB00003F00F03DAB2FB681A703B88C3F30A02FE
:103FC000FB689A60FB68BA781A71FB685B78002B13
:103FD00004D0FB681B781A46FB685A83BB78022B17
:103FE00002D1FB6800225A717B6893F89434012B4C
:103FF00001D102230EE07B68012283F894247B68C0
:104000001B68F968184604F095FF7B68002283F866
:104010009424FB7A18461037BD4680BD80B584B025
:1040200000AF78600B46FB7097F90330002B0FDA76
:10403000FB7803F00F021346DB0013449B001033A0
:104040007A6813440433FB60FB6801225A700FE066
:10405000FB7803F00F021346DB0013449B0003F5CB
:1040600014737A6813440433FB60FB6800225A70AF
:10407000FB7803F00F03DAB2FB681A707B6893F8E1
:104080009434012B01D102230EE07B68012283F8D6
:1040900094247B681B68F968184604F0D3FF7B689A
:1040A000002283F89424002318461037BD4680BDB3
:1040B00080B586B000AFF8607A603B600B46FB725B
:1040C000FB7A03F00F021346DB0013449B0003F559
:1040D0001473FA68134404337B617B697A68DA608D
:1040E0007B693A681A617B6900225A617B69002208
:1040F0005A70FB7A03F00F03DAB27B691A70FB681F
:104100001B687969184605F079F8002318461837B6
:10411000BD4680BD80B483B000AF78600B46FB70B5
:10412000FB7803F00F0279681346DB0013449B0011
:104130000B4403F51A731B6818460C37BD465DF82F
:10414000047B704780B586B000AFF8607A603B6052
:104150000B46FB72FB7A03F00F021346DB0013449D
:104160009B001033FA68134404337B617B697A68DF
:10417000DA607B693A681A617B6900225A617B695F
:1041800001225A70FB7A03F00F03DAB27B691A70CE
:10419000FB681B687969184605F030F8002318465B
:1041A0001837BD4680BD80B584B000AF78600B463F
:1041B000FB70FB7803F00F037A681279934201D900
:1041C00001234EE097F90330002B0FDAFB7803F060
:1041D0000F021346DB0013449B0010337A6813442C
:1041E0000433FB60FB6801225A700DE0FA78134635
:1041F000DB0013449B0003F514737A681344043303
:10420000FB60FB6800225A70FB6801229A70FB7801
:1042100003F00F03DAB2FB681A707B6893F89434EA
:10422000012B01D102231CE07B68012283F8942436
:104230007B681B68F968184605F054FBFB7803F0AF
:104240000F03002B08D17B681A687B6803F29C433C
:104250001946104605F046FD7B68002283F8942439
:10426000002318461037BD4680BD80B584B000AF2E
:1042700078600B46FB70FB7803F00F037A681279C5
:10428000934201D9012342E097F90330002B0FDA62
:10429000FB7803F00F021346DB0013449B0010333E
:1042A0007A6813440433FB60FB6801225A700FE004
:1042B000FB7803F00F021346DB0013449B0003F569
:1042C00014737A6813440433FB60FB6800225A704D
:1042D000FB6800229A70FB7803F00F03DAB2FB68E8
:1042E0001A707B6893F89434012B01D102230EE0FD
:1042F0007B68012283F894247B681B68F968184660
:1043000005F05EFB7B68002283F8942400231846A6
:104310001037BD4680BD80B584B000AF78600B46D5
:10432000FB7097F90330002B0CDAFB7803F00F02D7
:104330001346DB0013449B0010337A6813440433A4
:10434000FB600CE0FB7803F00F021346DB00134424
:104350009B0003F514737A6813440433FB607B6895
:104360001B68F968184605F081F90346FB72FB7A71
:1043700018461037BD4680BD80B588B000AF786064
:1043800039607B681B687B617B693B613A681346D7
:10439000DB0013449B0010337A6813440433FB6042
:1043A000FB685A69FB681B699A4201D9012367E0DF
:1043B000FB681A69FB685B69D31AFB61FB689B6841
:1043C000FA699A4202D9FB689B68FB61FB69033377
:1043D0009B08BB6126E0FB681A69FB685B69D31A1E
:1043E000FB61FB689B68FA699A4202D9FB689B688B
:1043F000FB61FB6903339B08BB61FB68D9683B68C1
:10440000DAB2FB699BB2786905F0DAF9FB68DA6821
:10441000FB691A44FB68DA60FB685A69FB691A4455
:10442000FB685A613B685A013B69134403F510630A
:104430009B699BB2BA699A4209D8FB685A69FB68C2
:104440001B699A4203D2FB681B69002BC3D1FB682E
:104450001A69FB685B699A4211D83B6803F00F0345
:10446000012202FA03F3BB603B6903F500635A6B58
:10447000BB68DB43396901F5006113404B630023DE
:1044800018462037BD4680BD80B586B000AF786045
:1044900039607B681B687B617B693B617B693C336E
:1044A00004331B68FB603B685A013B69134403F506
:1044B00030639B68BB60FB68194A934224D1BB6898
:1044C00003F40043002B0AD03B685A013B691344B4
:1044D00003F530631A464FF4004393601AE0BB685B
:1044E00003F02003002B08D03B685A013B691344BA
:1044F00003F530631A46202393603B68DBB219460C
:10450000786809F009F805E03B68DBB2194678687D
:1045100009F002F8002318461837BD4680BD00BFD9
:104520000A31544F80B586B000AF786039607B683F
:104530001B687B617B693B617B693C3304331B688F
:10454000FB603B685A013B69134403F530639B6889
:10455000BB60FB680C4A93420ED9BB6803F400436E
:10456000002B09D03B685A013B69134403F53063C3
:104570001A464FF400439360786808F0BBFF0023AD
:1045800018461837BD4680BD0A30544F80B485B0F8
:1045900000AF78600B46FB7013463B807B681B685E
:1045A0005B6ABB60FB78002B07D13B8819047B68F2
:1045B0001B68BA680A439A6228E07B681B689B6A9A
:1045C0001B0CBA681344BB600023FB730DE07B68CF
:1045D0001A68FB7B40339B0013445B681B0CBA6872
:1045E0001344BB60FB7B0133FB73FA7BFB78013B1D
:1045F0009A42ECD33B8818047B681968FB78013B2E
:10460000BA68024340339B000B445A6000231846AB
:104610001437BD465DF8047B704780B483B000AFAB
:1046200078600B467B807B681B687A885A6200231F
:1046300018460C37BD465DF8047B704780B485B0E2
:1046400000AF78607B681B68FB607B680122C3F861
:10465000D8247B68002283F8CC24FB689B6943F054
:104660000062FB689A61FB685B6D43F0805343F026
:104670000303FA685365002318461437BD465DF8F6
:10468000047B704780B400AF044B1B6803F4C06325
:104690001846BD465DF8047B704700BF00700040BF
:1046A00080B485B000AF78607B68B3F5007F30D10F
:1046B000234B1B6803F4C063B3F5007F38D0204B55
:1046C0001B6823F4C0631E4A43F4007313601D4B40
:1046D0001B68322202FB03F31B4AA2FB03239B0C41
:1046E0000133FB6002E0FB68013BFB60144B5B693C
:1046F00003F48063B3F5806F02D1FB68002BF2D125
:104700000F4B5B6903F48063B3F5806F10D1032313
:104710000FE00B4B1B6803F4C063B3F5806F07D049
:10472000074B1B6823F4C063054A43F4806313609E
:10473000002318461437BD465DF8047B704700BF60
:10474000007000401000002083DE1B4380B400AFE7
:10475000054B5B68044A43F48063536000BFBD4669
:104760005DF8047B704700BF0070004080B588B0E2
:1047700000AF78607B68002B01D10123CAE3974B1F
:104780009B6803F00C03BB61944BDB6803F00303ED
:104790007B617B681B6803F01003002B00F0E48052
:1047A000BB69002B07D0BB690C2B40F08B807B6969
:1047B000012B40F08780894B1B6803F00203002B1C
:1047C00005D07B689B69002B01D10123A2E37B68A4
:1047D0001A6A824B1B6803F00803002B04D07F4B3E
:1047E0001B6803F0F00305E07C4BD3F894301B0901
:1047F00003F0F003934223D27B681B6A184600F053
:1048000055FD0346002B01D0012383E3734B1B6846
:10481000724A43F008031360704B1B6823F0F002E8
:104820007B681B6A6D4913430B606C4B5B6823F418
:104830007F427B68DB691B02684913434B6025E0BC
:10484000664B1B68654A43F008031360634B1B68A3
:1048500023F0F0027B681B6A604913430B605F4BD7
:104860005B6823F47F427B68DB691B025B4913436F
:104870004B60BB69002B09D17B681B6A184600F0AE
:1048800015FD0346002B01D0012343E300F04AFC51
:104890000246524B9B681B0903F00F035049CB5C47
:1048A00003F01F0322FA03F34E4A13604E4B1B68BA
:1048B0001846FEF77BF80346FB73FB7B002B52D0B8
:1048C000FB7B27E37B689B69002B32D0434B1B6843
:1048D000424A43F001031360FEF7B8F8386108E07C
:1048E000FEF7B4F802463B69D31A022B01D9032321
:1048F00010E33A4B1B6803F00203002BF0D0374B58
:104900001B68364A43F008031360344B1B6823F0DE
:10491000F0027B681B6A314913430B602F4B5B68C5
:1049200023F47F427B68DB691B022C4913434B60F5
:104930001AE02A4B1B68294A23F001031360FEF793
:1049400085F8386108E0FEF781F802463B69D31A22
:10495000022B01D90323DDE2204B1B6803F0020385
:10496000002BF0D100E000BF7B681B6803F001035F
:10497000002B74D0BB69082B05D0BB690C2B0ED162
:104980007B69032B0BD1154B1B6803F40033002B01
:1049900064D07B685B68002B60D10123BAE27B683E
:1049A0005B68B3F5803F06D10C4B1B680B4A43F4A0
:1049B0008033136026E07B685B68B3F5A02F15D1C8
:1049C000064B1B68054A43F480231360034B1B68A6
:1049D000024A43F48033136014E000BF0010024029
:1049E000082501081000002014000020A04B1B68BF
:1049F0009F4A23F4803313609D4B1B689C4A23F429
:104A0000802313607B685B68002B13D0FEF71EF8D1
:104A1000386108E0FEF71AF802463B69D31A642BA6
:104A200001D9032376E2924B1B6803F40033002B79
:104A3000F0D014E0FEF70AF8386108E0FEF706F857
:104A400002463B69D31A642B01D9032362E2884BE7
:104A50001B6803F40033002BF0D100E000BF7B683B
:104A60001B6803F00203002B60D0BB69042B05D048
:104A7000BB690C2B19D17B69022B16D17C4B1B68AF
:104A800003F48063002B05D07B68DB68002B01D129
:104A900001233FE2764B5B6823F0F8527B681B6989
:104AA0001B06734913434B6040E07B68DB68002BB7
:104AB00023D06F4B1B686E4A43F480731360FDF77D
:104AC000C5FF386108E0FDF7C1FF02463B69D31A14
:104AD000022B01D903231DE2654B1B6803F480639D
:104AE000002BF0D0624B5B6823F0F8527B681B69A7
:104AF0001B065F4913434B6018E05D4B1B685C4A23
:104B000023F480731360FDF7A1FF386108E0FDF71F
:104B10009DFF02463B69D31A022B01D90323F9E119
:104B2000534B1B6803F48063002BF0D17B681B6838
:104B300003F00803002B3CD07B685B69002B1CD082
:104B40004B4BD3F894304A4A43F00103C2F89430F7
:104B5000FDF77CFF386108E0FDF778FF02463B690E
:104B6000D31A022B01D90323D4E1414BD3F894305B
:104B700003F00203002BEFD01BE03D4BD3F8943041
:104B80003B4A23F00103C2F89430FDF75FFF386120
:104B900008E0FDF75BFF02463B69D31A022B01D9FF
:104BA0000323B7E1324BD3F8943003F00203002B18
:104BB000EFD17B681B6803F00403002B00F0A68094
:104BC0000023FB772A4B9B6D03F08053002B0DD104
:104BD000274B9B6D264A43F080539365244B9B6D76
:104BE00003F08053BB60BB680123FB77214B1B683C
:104BF00003F48073002B18D11E4B1B681D4A43F42D
:104C000080731360FDF722FF386108E0FDF71EFF97
:104C100002463B69D31A022B01D903237AE1154BD3
:104C20001B6803F48073002BF0D07B689B68012B1A
:104C300008D10F4BD3F890300D4A43F00103C2F86E
:104C4000903029E07B689B68052B15D1084BD3F881
:104C50009030074A43F00403C2F89030044BD3F875
:104C60009030034A43F00103C2F8903014E000BFD3
:104C700000100240007000409C4BD3F890309B4ADB
:104C800023F00103C2F89030984BD3F89030974A44
:104C900023F00403C2F890307B689B68002B16D089
:104CA000FDF7D4FE38610AE0FDF7D0FE02463B690D
:104CB000D31A41F28832934201D903232AE18B4B64
:104CC000D3F8903003F00203002BEDD015E0FDF790
:104CD000BDFE38610AE0FDF7B9FE02463B69D31A12
:104CE00041F28832934201D9032313E17F4BD3F879
:104CF000903003F00203002BEDD1FB7F012B05D197
:104D00007A4B9B6D794A23F0805393657B689B6A4D
:104D1000002B00F0FE807B689B6A022B40F0D08065
:104D2000724BDB687B617B6903F003027B68DB6AA3
:104D30009A4230D17B6903F070027B681B6B013BA8
:104D40001B019A4227D17B6903F4FE427B685B6BAF
:104D50001B029A421FD17B6903F400337A68926B7D
:104D6000072A14BF01220022D2B2934213D17B69D9
:104D700003F4C0027B68DB6B5B08013B5B059A4276
:104D800009D17B6903F0C0627B681B6C5B08013B47
:104D90005B069A426ED0BB690C2B69D0534B1B68E3
:104DA00003F08063002B05D1504B1B6803F0805348
:104DB000002B01D00123ADE04C4B1B684B4A23F084
:104DC00080731360FDF742FE386108E0FDF73EFE98
:104DD00002463B69D31A022B01D903239AE0434BC5
:104DE0001B6803F00073002BF0D1404BDA68404B96
:104DF00013407A68D16A7A68126B013A1201114342
:104E00007A68526B120211437A68D26B5208013AE7
:104E1000520511437A68126C5208013A5206114346
:104E20007A68926B120952040A4330491343CB60EB
:104E30002E4B1B682D4A43F0807313602B4BDB68AD
:104E40002A4A43F08073D360FDF700FE386108E022
:104E5000FDF7FCFD02463B69D31A022B01D903235F
:104E600058E0224B1B6803F00073002BF0D050E099
:104E700001234FE01D4B1B6803F00073002B48D14A
:104E80001A4B1B68194A43F080731360174BDB6899
:104E9000164A43F08073D360FDF7D8FD386108E00F
:104EA000FDF7D4FD02463B69D31A022B01D9032337
:104EB00030E00E4B1B6803F00073002BF0D028E0AD
:104EC000BB690C2B23D0094B1B68084A23F0807365
:104ED0001360FDF7BBFD38610CE0FDF7B7FD02463E
:104EE0003B69D31A022B05D9032313E000100240BB
:104EF0008C809DF9094B1B6803F00073002BECD1EB
:104F0000064BDA680549064B1340CB6001E00123EC
:104F100000E0002318462037BD4680BD0010024047
:104F2000FCFFEEFE80B584B000AF786039607B682E
:104F3000002B01D10123E7E0754B1B6803F0070349
:104F40003A689A4210D9724B1B6823F007027049E5
:104F50003B6813430B606E4B1B6803F007033A6812
:104F60009A4201D00123CFE07B681B6803F0020363
:104F7000002B10D07B689A68664B9B6803F0F003A7
:104F80009A4208D9634B9B6823F0F0027B689B68C8
:104F9000604913438B607B681B6803F00103002B9F
:104FA0004CD07B685B68032B07D15A4B1B6803F01E
:104FB0000073002B21D10123A6E07B685B68022BE4
:104FC00007D1544B1B6803F40033002B15D1012388
:104FD0009AE07B685B68002B07D14E4B1B6803F09F
:104FE0000203002B09D101238EE04A4B1B6803F416
:104FF0008063002B01D1012386E0464B9B6823F0A0
:1050000003027B685B68434913438B60FDF71EFD19
:10501000F8600AE0FDF71AFD0246FB68D31A41F278
:105020008832934201D903236EE03A4B9B6803F028
:105030000C027B685B689B009A42EBD17B681B6823
:1050400003F00203002B10D07B689A68314B9B68F9
:1050500003F0F0039A4208D22E4B9B6823F0F00233
:105060007B689B682B4913438B60294B1B6803F0BB
:1050700007033A689A4210D2254B1B6823F00702B7
:1050800023493B6813430B60214B1B6803F0070364
:105090003A689A4201D0012336E07B681B6803F02E
:1050A0000403002B08D01B4B9B6823F4E0627B6851
:1050B000DB68184913438B607B681B6803F00803A7
:1050C000002B09D0134B9B6823F460527B681B694B
:1050D000DB00104913438B6000F024F802460D4BAF
:1050E0009B681B0903F00F030B49CB5C03F01F0304
:1050F00022FA03F3094A1360094B1B681846FDF7AF
:1051000055FC0346FB72FB7A18461037BD4680BD3E
:105110000020024000100240082501081000002075
:105120001400002080B489B000AF0023FB6100238D
:10513000BB613E4B9B6803F00C033B613B4BDB6860
:1051400003F00303FB603B69002B05D03B690C2B8C
:1051500021D1FB68012B1ED1344B1B6803F00803DF
:10516000002B07D1314BD3F894301B0A03F00F0307
:10517000FB6105E02D4B1B681B0903F00F03FB616E
:105180002B4AFB6952F82330FB613B69002B0DD1A0
:10519000FB69BB610AE03B69042B02D1254BBB6173
:1051A00004E03B69082B01D1234BBB613B690C2B0D
:1051B00034D11E4BDB6803F00303BB60BB68022BDA
:1051C00003D0BB68032B03D005E01A4B7B6105E0DD
:1051D000194B7B6102E0FB697B6100BF134BDB680D
:1051E0001B0903F0070301337B60104BDB681B0ACC
:1051F00003F07F037A6903FB02F27B68B2FBF3F3EF
:105200007B610A4BDB685B0E03F0030301335B0039
:105210003B607A693B68B2FBF3F3BB61BB6918463C
:105220002437BD465DF8047B704700BF0010024084
:10523000202501080024F40000127A0080B400AF99
:10524000034B1B681846BD465DF8047B704700BFE2
:105250001000002080B500AFFFF7F0FF0246064BBC
:105260009B681B0A03F007030449CB5C03F01F0390
:1052700022FA03F3184680BD0010024018250108E9
:1052800080B500AFFFF7DAFF0246064B9B68DB0AEA
:1052900003F007030449CB5C03F01F0322FA03F376
:1052A000184680BD001002401825010880B586B060
:1052B00000AF786000233B612A4B9B6D03F0805365
:1052C000002B03D0FFF7DEF9786114E0254B9B6DCE
:1052D000244A43F080539365224B9B6D03F0805327
:1052E000FB60FB68FFF7CEF978611E4B9B6D1D4A92
:1052F00023F0805393657B69B3F5007F0BD17B6806
:10530000802B19D97B68A02B02D902233B6113E0C3
:1053100001233B6110E07B68802B02D903233B61B2
:105320000AE07B68802B02D102233B6104E07B68AA
:10533000702B01D101233B610B4B1B6823F007024B
:1053400009493B6913430B60074B1B6803F00703D4
:105350003A699A4201D0012300E000231846183729
:10536000BD4680BD001002400020024080B586B0DE
:1053700000AF78600023FB740023BB747B681B685C
:1053800003F40063002B41D07B685B6EB3F5400FE4
:105390002AD0B3F5400F24D8B3F5000F08D0B3F5E9
:1053A000000F1ED8002B0AD0B3F5800F10D018E0E4
:1053B000864BDB68854A43F48033D36015E07B6815
:1053C00004330021184600F0BBFA0346FB740CE0DE
:1053D0007B6820330021184600F0A6FB0346FB74CF
:1053E00003E00123FB7400E000BFFB7C002B0BD12A
:1053F000764BD3F8883023F440027B685B6E7349A8
:105400001343C1F8883001E0FB7CBB747B681B68E8
:1054100003F48053002B41D07B689B6EB3F1407F37
:105420002AD0B3F1407F24D8B3F1007F08D0B3F184
:10543000007F1ED8002B0AD0B3F1807F10D018E077
:10544000624BDB68614A43F48033D36015E07B68CC
:1054500004330021184600F073FA0346FB740CE095
:105460007B6820330021184600F05EFB0346FB7486
:1054700003E00123FB7400E000BFFB7C002B0BD199
:10548000524BD3F8883023F040727B689B6E4F49B3
:105490001343C1F8883001E0FB7CBB747B681B6858
:1054A00003F40033002B00F0A08000237B74474BF3
:1054B0009B6D03F08053002B01D1012300E00023FA
:1054C000002B0DD0414B9B6D404A43F080539365B8
:1054D0003E4B9B6D03F08053BB60BB6801237B7424
:1054E0003B4B1B683A4A43F480731360FDF7AEFAF6
:1054F000F86009E0FDF7AAFA0246FB68D31A022B0E
:1055000002D90323FB7405E0314B1B6803F480735D
:10551000002BEFD0FB7C002B5CD12C4BD3F89030D0
:1055200003F440737B617B69002B1FD07B68D3F849
:1055300084307A699A4219D0244BD3F8903023F4FE
:1055400040737B61214BD3F89030204A43F4803381
:10555000C2F890301D4BD3F890301C4A23F48033AE
:10556000C2F89030194A7B69C2F890307B6903F029
:105570000103002B16D0FDF769FAF8600BE0FDF788
:1055800065FA0246FB68D31A41F28832934202D987
:105590000323FB7406E00D4BD3F8903003F00203B5
:1055A000002BECD0FB7C002B0CD1084BD3F89030B7
:1055B00023F440727B68D3F8843004491343C1F864
:1055C000903009E0FB7CBB7406E000BF0010024095
:1055D00000700040FB7CBB747B7C012B05D19E4B93
:1055E0009B6D9D4A23F0805393657B681B6803F095
:1055F0000103002B0AD0984BD3F8883023F0030224
:105600007B689B6B94491343C1F888307B681B68A7
:1056100003F00203002B0AD08F4BD3F8883023F01D
:105620000C027B68DB6B8C491343C1F888307B68C4
:105630001B6803F00403002B0AD0874BD3F8883093
:1056400023F030027B681B6C83491343C1F8883018
:105650007B681B6803F00803002B0AD07E4BD3F84D
:10566000883023F0C0027B685B6C7B491343C1F830
:1056700088307B681B6803F01003002B0AD0764B40
:10568000D3F8883023F440727B689B6C72491343D3
:10569000C1F888307B681B6803F02003002B0AD018
:1056A0006D4BD3F8883023F440627B68DB6C6A4929
:1056B0001343C1F888307B681B6803F40073002B28
:1056C0000AD0654BD3F8883023F440227B68DB6D29
:1056D00061491343C1F888307B681B6803F4806319
:1056E000002B0AD05C4BD3F8883023F440127B683F
:1056F0001B6E59491343C1F888307B681B6803F05F
:105700004003002B0AD0544BD3F8883023F4405286
:105710007B681B6D50491343C1F888307B681B6858
:1057200003F08003002B0AD04B4BD3F8883023F4CE
:1057300040427B685B6D48491343C1F888307B6801
:105740001B6803F48073002B0AD0434BD3F88830D6
:1057500023F440327B689B6D3F491343C1F8883086
:105760007B681B6803F40053002B28D03A4BD3F816
:10577000883023F040627B68DB6E37491343C1F801
:1057800088307B68DB6EB3F1006F06D1324BDB688B
:10579000314A43F48013D36011E07B68DB6EB3F1D0
:1057A000806F0CD17B6804330121184600F0C8F8E3
:1057B0000346FB74FB7C002B01D0FB7CBB747B6835
:1057C0001B6803F40023002B28D0234BD3F8883028
:1057D00023F040627B681B6F1F491343C1F8883078
:1057E0007B681B6FB3F1006F06D11B4BDB681A4A55
:1057F00043F48013D36011E07B681B6FB3F1806FBB
:105800000CD17B6804330121184600F099F8034657
:10581000FB74FB7C002B01D0FB7CBB747B681B689A
:1058200003F48023002B2BD00B4BD3F8883023F0CC
:1058300040627B685B6F08491343C1F888307B681E
:105840005B6FB3F1006F09D1034BDB68024A43F48D
:105850008013D36014E000BF001002407B685B6FD0
:10586000B3F1806F0CD17B6804330121184600F03E
:1058700067F80346FB74FB7C002B01D0FB7CBB74F8
:105880007B681B6803F48043002B2FD02B4BD3F88D
:10589000883023F040527B689B6F28491343C1F83E
:1058A00088307B689B6FB3F1805F0DD17B680433D8
:1058B0000221184600F044F80346FB74FB7C002BE1
:1058C00014D0FB7CBB7411E07B689B6FB3F1005F6D
:1058D0000CD17B6820330221184600F025F90346DD
:1058E000FB74FB7C002B01D0FB7CBB747B681B68CA
:1058F00003F40043002B0AD0104BD3F8883023F078
:1059000080427B68DB6F0D491343C1F888307B68A8
:105910001B6803F48033002B0BD0084BD3F888307E
:1059200023F000427B68D3F8803004491343C1F868
:105930008830BB7C18461837BD4680BD0010024039
:1059400080B584B000AF786039600023FB73754B7D
:10595000DB6803F00303002B18D0724BDB6803F005
:1059600003027B681B689A420DD17B681B68002B81
:1059700009D06C4BDB681B0903F007035A1C7B68DA
:105980005B689A4247D00123FB7344E07B681B6845
:10599000032B18D0032B25D8012B02D0022B09D0C2
:1059A00020E0604B1B6803F00203002B1DD1012394
:1059B000FB731AE05B4B1B6803F48063002B16D16A
:1059C0000123FB7313E0574B1B6803F40033002BD8
:1059D0000FD1544B1B6803F48023002B09D1012302
:1059E000FB7306E00123FB7304E000BF02E000BF8D
:1059F00000E000BFFB7B002B0DD14A4BDB6823F09E
:105A000073027B6819687B685B68013B1B010B4371
:105A100044491343CB60FB7B002B7DD1414B1B687A
:105A2000404A23F080631360FDF710F8B86009E086
:105A3000FDF70CF80246BB68D31A022B02D90323E8
:105A4000FB7305E0374B1B6803F00063002BEFD1BD
:105A5000FB7B002B60D13B68002B11D1314B1B69C4
:105A600023F41F3323F440737A68926811027A6832
:105A7000D268120952040A432A4913430B6127E0F2
:105A80003B68012B12D1274B1B6923F4C00323F47D
:105A9000FE437A68926811027A6812695208013AE4
:105AA00052050A431F4913430B6111E01D4B1B694B
:105AB00023F0C06323F4FE437A68926811027A6887
:105AC00052695208013A52060A43164913430B61C0
:105AD000144B1B68134A43F080631360FCF7B6FF56
